{
  "contractName": "Contract",
  "abi": [
    {
      "inputs": [],
      "stateMutability": "nonpayable",
      "type": "constructor"
    },
    {
      "inputs": [],
      "name": "admin",
      "outputs": [
        {
          "internalType": "address",
          "name": "",
          "type": "address"
        }
      ],
      "stateMutability": "view",
      "type": "function",
      "constant": true
    },
    {
      "inputs": [
        {
          "internalType": "address",
          "name": "",
          "type": "address"
        }
      ],
      "name": "doctors",
      "outputs": [
        {
          "internalType": "string",
          "name": "first_name",
          "type": "string"
        },
        {
          "internalType": "string",
          "name": "last_name",
          "type": "string"
        },
        {
          "internalType": "string",
          "name": "email",
          "type": "string"
        },
        {
          "internalType": "string",
          "name": "specialite",
          "type": "string"
        },
        {
          "internalType": "string",
          "name": "hospital_name",
          "type": "string"
        },
        {
          "internalType": "string",
          "name": "wilaya",
          "type": "string"
        },
        {
          "internalType": "string",
          "name": "birth_date",
          "type": "string"
        },
        {
          "internalType": "string",
          "name": "phone",
          "type": "string"
        },
        {
          "internalType": "string",
          "name": "gender",
          "type": "string"
        },
        {
          "internalType": "string",
          "name": "join_date",
          "type": "string"
        }
      ],
      "stateMutability": "view",
      "type": "function",
      "constant": true
    },
    {
      "inputs": [
        {
          "internalType": "address",
          "name": "",
          "type": "address"
        }
      ],
      "name": "isAdmin",
      "outputs": [
        {
          "internalType": "bool",
          "name": "",
          "type": "bool"
        }
      ],
      "stateMutability": "view",
      "type": "function",
      "constant": true
    },
    {
      "inputs": [
        {
          "internalType": "address",
          "name": "",
          "type": "address"
        }
      ],
      "name": "isDoctor",
      "outputs": [
        {
          "internalType": "bool",
          "name": "",
          "type": "bool"
        }
      ],
      "stateMutability": "view",
      "type": "function",
      "constant": true
    },
    {
      "inputs": [
        {
          "internalType": "address",
          "name": "",
          "type": "address"
        }
      ],
      "name": "isPatient",
      "outputs": [
        {
          "internalType": "bool",
          "name": "",
          "type": "bool"
        }
      ],
      "stateMutability": "view",
      "type": "function",
      "constant": true
    },
    {
      "inputs": [
        {
          "internalType": "address",
          "name": "",
          "type": "address"
        }
      ],
      "name": "medicalRecords",
      "outputs": [
        {
          "internalType": "string",
          "name": "blood_type",
          "type": "string"
        },
        {
          "internalType": "string",
          "name": "height",
          "type": "string"
        },
        {
          "internalType": "string",
          "name": "weight",
          "type": "string"
        },
        {
          "internalType": "string",
          "name": "vision_test",
          "type": "string"
        }
      ],
      "stateMutability": "view",
      "type": "function",
      "constant": true
    },
    {
      "inputs": [
        {
          "internalType": "address",
          "name": "",
          "type": "address"
        }
      ],
      "name": "patients",
      "outputs": [
        {
          "internalType": "string",
          "name": "first_name",
          "type": "string"
        },
        {
          "internalType": "string",
          "name": "last_name",
          "type": "string"
        },
        {
          "internalType": "string",
          "name": "email",
          "type": "string"
        },
        {
          "internalType": "string",
          "name": "wilaya",
          "type": "string"
        },
        {
          "internalType": "string",
          "name": "birth_date",
          "type": "string"
        },
        {
          "internalType": "string",
          "name": "phone",
          "type": "string"
        },
        {
          "internalType": "string",
          "name": "gender",
          "type": "string"
        },
        {
          "internalType": "string",
          "name": "join_date",
          "type": "string"
        }
      ],
      "stateMutability": "view",
      "type": "function",
      "constant": true
    },
    {
      "inputs": [
        {
          "internalType": "address",
          "name": "_doctorAddress",
          "type": "address"
        },
        {
          "internalType": "string",
          "name": "_first_name",
          "type": "string"
        },
        {
          "internalType": "string",
          "name": "_last_name",
          "type": "string"
        },
        {
          "internalType": "string",
          "name": "_email",
          "type": "string"
        },
        {
          "internalType": "string",
          "name": "_specialite",
          "type": "string"
        },
        {
          "internalType": "string",
          "name": "_hospital_name",
          "type": "string"
        },
        {
          "internalType": "string",
          "name": "_wilaya",
          "type": "string"
        },
        {
          "internalType": "string",
          "name": "_birth_date",
          "type": "string"
        },
        {
          "internalType": "string",
          "name": "_phone",
          "type": "string"
        },
        {
          "internalType": "string",
          "name": "_gender",
          "type": "string"
        },
        {
          "internalType": "string",
          "name": "_join_date",
          "type": "string"
        }
      ],
      "name": "createDoctor",
      "outputs": [],
      "stateMutability": "nonpayable",
      "type": "function"
    },
    {
      "inputs": [
        {
          "internalType": "address",
          "name": "_patientAddress",
          "type": "address"
        },
        {
          "internalType": "string",
          "name": "_first_name",
          "type": "string"
        },
        {
          "internalType": "string",
          "name": "_last_name",
          "type": "string"
        },
        {
          "internalType": "string",
          "name": "_email",
          "type": "string"
        },
        {
          "internalType": "string",
          "name": "_wilaya",
          "type": "string"
        },
        {
          "internalType": "string",
          "name": "_birth_date",
          "type": "string"
        },
        {
          "internalType": "string",
          "name": "_phone",
          "type": "string"
        },
        {
          "internalType": "string",
          "name": "_gender",
          "type": "string"
        },
        {
          "internalType": "string",
          "name": "_join_date",
          "type": "string"
        }
      ],
      "name": "createPatient",
      "outputs": [],
      "stateMutability": "nonpayable",
      "type": "function"
    },
    {
      "inputs": [
        {
          "internalType": "address",
          "name": "_patientAddress",
          "type": "address"
        },
        {
          "internalType": "string",
          "name": "_blood_type",
          "type": "string"
        },
        {
          "internalType": "string",
          "name": "_height",
          "type": "string"
        },
        {
          "internalType": "string",
          "name": "_weight",
          "type": "string"
        },
        {
          "internalType": "string",
          "name": "_vision_test",
          "type": "string"
        },
        {
          "internalType": "string[]",
          "name": "_medical_history",
          "type": "string[]"
        },
        {
          "internalType": "string[]",
          "name": "_diagnostic_tests",
          "type": "string[]"
        },
        {
          "internalType": "string[]",
          "name": "_treatments",
          "type": "string[]"
        }
      ],
      "name": "createMedicalRecord",
      "outputs": [],
      "stateMutability": "nonpayable",
      "type": "function"
    },
    {
      "inputs": [],
      "name": "getAllDoctorAddresses",
      "outputs": [
        {
          "internalType": "address[]",
          "name": "",
          "type": "address[]"
        }
      ],
      "stateMutability": "view",
      "type": "function",
      "constant": true
    },
    {
      "inputs": [],
      "name": "getAllPatientAddresses",
      "outputs": [
        {
          "internalType": "address[]",
          "name": "",
          "type": "address[]"
        }
      ],
      "stateMutability": "view",
      "type": "function",
      "constant": true
    },
    {
      "inputs": [
        {
          "internalType": "address",
          "name": "_adr",
          "type": "address"
        }
      ],
      "name": "getDoctorinfo",
      "outputs": [
        {
          "components": [
            {
              "internalType": "string",
              "name": "first_name",
              "type": "string"
            },
            {
              "internalType": "string",
              "name": "last_name",
              "type": "string"
            },
            {
              "internalType": "string",
              "name": "email",
              "type": "string"
            },
            {
              "internalType": "string",
              "name": "specialite",
              "type": "string"
            },
            {
              "internalType": "string",
              "name": "hospital_name",
              "type": "string"
            },
            {
              "internalType": "string",
              "name": "wilaya",
              "type": "string"
            },
            {
              "internalType": "string",
              "name": "birth_date",
              "type": "string"
            },
            {
              "internalType": "string",
              "name": "phone",
              "type": "string"
            },
            {
              "internalType": "string",
              "name": "gender",
              "type": "string"
            },
            {
              "internalType": "string",
              "name": "join_date",
              "type": "string"
            }
          ],
          "internalType": "struct Contract.Doctor",
          "name": "",
          "type": "tuple"
        }
      ],
      "stateMutability": "view",
      "type": "function",
      "constant": true
    },
    {
      "inputs": [
        {
          "internalType": "address",
          "name": "_adr",
          "type": "address"
        }
      ],
      "name": "getPatieninfo",
      "outputs": [
        {
          "components": [
            {
              "internalType": "string",
              "name": "first_name",
              "type": "string"
            },
            {
              "internalType": "string",
              "name": "last_name",
              "type": "string"
            },
            {
              "internalType": "string",
              "name": "email",
              "type": "string"
            },
            {
              "internalType": "string",
              "name": "wilaya",
              "type": "string"
            },
            {
              "internalType": "string",
              "name": "birth_date",
              "type": "string"
            },
            {
              "internalType": "string",
              "name": "phone",
              "type": "string"
            },
            {
              "internalType": "string",
              "name": "gender",
              "type": "string"
            },
            {
              "internalType": "string",
              "name": "join_date",
              "type": "string"
            }
          ],
          "internalType": "struct Contract.Patient",
          "name": "",
          "type": "tuple"
        }
      ],
      "stateMutability": "view",
      "type": "function",
      "constant": true
    },
    {
      "inputs": [
        {
          "internalType": "address",
          "name": "_adr",
          "type": "address"
        }
      ],
      "name": "getMedicalRecordinfo",
      "outputs": [
        {
          "components": [
            {
              "internalType": "string",
              "name": "blood_type",
              "type": "string"
            },
            {
              "internalType": "string",
              "name": "height",
              "type": "string"
            },
            {
              "internalType": "string",
              "name": "weight",
              "type": "string"
            },
            {
              "internalType": "string",
              "name": "vision_test",
              "type": "string"
            },
            {
              "internalType": "string[]",
              "name": "medical_history",
              "type": "string[]"
            },
            {
              "internalType": "string[]",
              "name": "diagnostic_tests",
              "type": "string[]"
            },
            {
              "internalType": "string[]",
              "name": "treatments",
              "type": "string[]"
            }
          ],
          "internalType": "struct Contract.MedicalRecord",
          "name": "",
          "type": "tuple"
        }
      ],
      "stateMutability": "view",
      "type": "function",
      "constant": true
    },
    {
      "inputs": [],
      "name": "getDoctorsCount",
      "outputs": [
        {
          "internalType": "uint256",
          "name": "",
          "type": "uint256"
        }
      ],
      "stateMutability": "view",
      "type": "function",
      "constant": true
    },
    {
      "inputs": [],
      "name": "getPatiensCount",
      "outputs": [
        {
          "internalType": "uint256",
          "name": "",
          "type": "uint256"
        }
      ],
      "stateMutability": "view",
      "type": "function",
      "constant": true
    },
    {
      "inputs": [
        {
          "internalType": "address",
          "name": "_doctor_address",
          "type": "address"
        }
      ],
      "name": "approveDoctor",
      "outputs": [],
      "stateMutability": "nonpayable",
      "type": "function"
    },
    {
      "inputs": [
        {
          "internalType": "address",
          "name": "_doctor_address",
          "type": "address"
        }
      ],
      "name": "disapproveDoctor",
      "outputs": [],
      "stateMutability": "nonpayable",
      "type": "function"
    },
    {
      "inputs": [],
      "name": "getMyDoctors",
      "outputs": [
        {
          "internalType": "address[]",
          "name": "",
          "type": "address[]"
        }
      ],
      "stateMutability": "view",
      "type": "function",
      "constant": true
    },
    {
      "inputs": [],
      "name": "getMyPatientsCount",
      "outputs": [
        {
          "internalType": "uint256",
          "name": "",
          "type": "uint256"
        }
      ],
      "stateMutability": "view",
      "type": "function",
      "constant": true
    },
    {
      "inputs": [],
      "name": "getAddressesOfMyPatiens",
      "outputs": [
        {
          "internalType": "address[]",
          "name": "",
          "type": "address[]"
        }
      ],
      "stateMutability": "view",
      "type": "function",
      "constant": true
    },
    {
      "inputs": [
        {
          "internalType": "address",
          "name": "_adr",
          "type": "address"
        }
      ],
      "name": "getPatientName",
      "outputs": [
        {
          "internalType": "string",
          "name": "",
          "type": "string"
        }
      ],
      "stateMutability": "view",
      "type": "function",
      "constant": true
    },
    {
      "inputs": [],
      "name": "whoIam",
      "outputs": [
        {
          "internalType": "address",
          "name": "",
          "type": "address"
        }
      ],
      "stateMutability": "view",
      "type": "function",
      "constant": true
    }
  ],
  "bytecode": "0x608060405234801561001057600080fd5b50336000806101000a81548173ffffffffffffffffffffffffffffffffffffffff021916908373ffffffffffffffffffffffffffffffffffffffff1602179055506001600360008060009054906101000a900473ffffffffffffffffffffffffffffffffffffffff1673ffffffffffffffffffffffffffffffffffffffff1673ffffffffffffffffffffffffffffffffffffffff16815260200190815260200160002060006101000a81548160ff0219169083151502179055506155a280620000da6000396000f3fe608060405234801561001057600080fd5b50600436106101585760003560e01c80638f9c79ed116100c3578063a9583c221161007c578063a9583c221461040b578063b76d371614610444578063b8f3578414610462578063bd7be4901461047e578063de9151a2146104ae578063f851a440146104cc57610158565b80638f9c79ed1461031157806392be3e651461034157806396bf25481461035f578063996440c61461038f5780639c395bfa146103bf5780639f1bd194146103ef57610158565b80633430efa3116101155780633430efa31461024f578063587fb7a31461027f5780636160a5c21461029d5780636c13139d146102b957806383a5c2fa146102d757806389ec3a6a146102f557610158565b80630869cfbc1461015d57806308ff78f714610194578063106d6170146101b25780631a33a9fc146101e557806324d7806c1461020157806331357af214610231575b600080fd5b61017760048036038101906101729190613c75565b6104ea565b60405161018b989796959493929190613d32565b60405180910390f35b61019c610972565b6040516101a99190613e01565b60405180910390f35b6101cc60048036038101906101c79190613c75565b610a48565b6040516101dc9493929190613e1c565b60405180910390f35b6101ff60048036038101906101fa9190614098565b610c98565b005b61021b60048036038101906102169190613c75565b610ee4565b604051610228919061422d565b60405180910390f35b610239610f04565b6040516102469190613e01565b60405180910390f35b61026960048036038101906102649190613c75565b610f11565b604051610276919061441a565b60405180910390f35b610287611507565b60405161029491906144fa565b60405180910390f35b6102b760048036038101906102b29190613c75565b611595565b005b6102c16118af565b6040516102ce91906144fa565b60405180910390f35b6102df611ab2565b6040516102ec919061452b565b60405180910390f35b61030f600480360381019061030a9190613c75565b611aba565b005b61032b60048036038101906103269190613c75565b611d8d565b604051610338919061422d565b60405180910390f35b610349611dad565b60405161035691906144fa565b60405180910390f35b61037960048036038101906103749190613c75565b611e3b565b6040516103869190614627565b60405180910390f35b6103a960048036038101906103a49190613c75565b612325565b6040516103b6919061422d565b60405180910390f35b6103d960048036038101906103d49190613c75565b612345565b6040516103e69190614762565b60405180910390f35b61040960048036038101906104049190614784565b612953565b005b61042560048036038101906104209190613c75565b612c14565b60405161043b9a99989796959493929190614990565b60405180910390f35b61044c6131b8565b6040516104599190613e01565b60405180910390f35b61047c60048036038101906104779190614a72565b6131c5565b005b61049860048036038101906104939190613c75565b61344b565b6040516104a59190614c1c565b60405180910390f35b6104b6613461565b6040516104c391906144fa565b60405180910390f35b6104d46135b8565b6040516104e1919061452b565b60405180910390f35b600760205280600052604060002060009150905080600001805461050d90614c6d565b80601f016020809104026020016040519081016040528092919081815260200182805461053990614c6d565b80156105865780601f1061055b57610100808354040283529160200191610586565b820191906000526020600020905b81548152906001019060200180831161056957829003601f168201915b50505050509080600101805461059b90614c6d565b80601f01602080910402602001604051908101604052809291908181526020018280546105c790614c6d565b80156106145780601f106105e957610100808354040283529160200191610614565b820191906000526020600020905b8154815290600101906020018083116105f757829003601f168201915b50505050509080600201805461062990614c6d565b80601f016020809104026020016040519081016040528092919081815260200182805461065590614c6d565b80156106a25780601f10610677576101008083540402835291602001916106a2565b820191906000526020600020905b81548152906001019060200180831161068557829003601f168201915b5050505050908060030180546106b790614c6d565b80601f01602080910402602001604051908101604052809291908181526020018280546106e390614c6d565b80156107305780601f1061070557610100808354040283529160200191610730565b820191906000526020600020905b81548152906001019060200180831161071357829003601f168201915b50505050509080600401805461074590614c6d565b80601f016020809104026020016040519081016040528092919081815260200182805461077190614c6d565b80156107be5780601f10610793576101008083540402835291602001916107be565b820191906000526020600020905b8154815290600101906020018083116107a157829003601f168201915b5050505050908060050180546107d390614c6d565b80601f01602080910402602001604051908101604052809291908181526020018280546107ff90614c6d565b801561084c5780601f106108215761010080835404028352916020019161084c565b820191906000526020600020905b81548152906001019060200180831161082f57829003601f168201915b50505050509080600601805461086190614c6d565b80601f016020809104026020016040519081016040528092919081815260200182805461088d90614c6d565b80156108da5780601f106108af576101008083540402835291602001916108da565b820191906000526020600020905b8154815290600101906020018083116108bd57829003601f168201915b5050505050908060070180546108ef90614c6d565b80601f016020809104026020016040519081016040528092919081815260200182805461091b90614c6d565b80156109685780601f1061093d57610100808354040283529160200191610968565b820191906000526020600020905b81548152906001019060200180831161094b57829003601f168201915b5050505050905088565b6000600160003373ffffffffffffffffffffffffffffffffffffffff1673ffffffffffffffffffffffffffffffffffffffff16815260200190815260200160002060009054906101000a900460ff16610a00576040517f08c379a00000000000000000000000000000000000000000000000000000000081526004016109f790614d10565b60405180910390fd5b600a60003373ffffffffffffffffffffffffffffffffffffffff1673ffffffffffffffffffffffffffffffffffffffff16815260200190815260200160002080549050905090565b6008602052806000526040600020600091509050806000018054610a6b90614c6d565b80601f0160208091040260200160405190810160405280929190818152602001828054610a9790614c6d565b8015610ae45780601f10610ab957610100808354040283529160200191610ae4565b820191906000526020600020905b815481529060010190602001808311610ac757829003601f168201915b505050505090806001018054610af990614c6d565b80601f0160208091040260200160405190810160405280929190818152602001828054610b2590614c6d565b8015610b725780601f10610b4757610100808354040283529160200191610b72565b820191906000526020600020905b815481529060010190602001808311610b5557829003601f168201915b505050505090806002018054610b8790614c6d565b80601f0160208091040260200160405190810160405280929190818152602001828054610bb390614c6d565b8015610c005780601f10610bd557610100808354040283529160200191610c00565b820191906000526020600020905b815481529060010190602001808311610be357829003601f168201915b505050505090806003018054610c1590614c6d565b80601f0160208091040260200160405190810160405280929190818152602001828054610c4190614c6d565b8015610c8e5780601f10610c6357610100808354040283529160200191610c8e565b820191906000526020600020905b815481529060010190602001808311610c7157829003601f168201915b5050505050905084565b600160003373ffffffffffffffffffffffffffffffffffffffff1673ffffffffffffffffffffffffffffffffffffffff16815260200190815260200160002060009054906101000a900460ff16610d24576040517f08c379a0000000000000000000000000000000000000000000000000000000008152600401610d1b90614d10565b60405180910390fd5b600260008973ffffffffffffffffffffffffffffffffffffffff1673ffffffffffffffffffffffffffffffffffffffff16815260200190815260200160002060009054906101000a900460ff16610db0576040517f08c379a0000000000000000000000000000000000000000000000000000000008152600401610da790614da2565b60405180910390fd5b60006040518060e0016040528089815260200188815260200187815260200186815260200185815260200184815260200183815250905080600860008b73ffffffffffffffffffffffffffffffffffffffff1673ffffffffffffffffffffffffffffffffffffffff1681526020019081526020016000206000820151816000019081610e3c9190614f6e565b506020820151816001019081610e529190614f6e565b506040820151816002019081610e689190614f6e565b506060820151816003019081610e7e9190614f6e565b506080820151816004019080519060200190610e9b9291906139ca565b5060a0820151816005019080519060200190610eb89291906139ca565b5060c0820151816006019080519060200190610ed59291906139ca565b50905050505050505050505050565b60036020528060005260406000206000915054906101000a900460ff1681565b6000600480549050905090565b610f19613a23565b600960003373ffffffffffffffffffffffffffffffffffffffff1673ffffffffffffffffffffffffffffffffffffffff16815260200190815260200160002060008373ffffffffffffffffffffffffffffffffffffffff1673ffffffffffffffffffffffffffffffffffffffff16815260200190815260200160002060009054906101000a900460ff1615610fe3576040517f08c379a0000000000000000000000000000000000000000000000000000000008152600401610fda9061508c565b60405180910390fd5b600860008373ffffffffffffffffffffffffffffffffffffffff1673ffffffffffffffffffffffffffffffffffffffff1681526020019081526020016000206040518060e001604052908160008201805461103d90614c6d565b80601f016020809104026020016040519081016040528092919081815260200182805461106990614c6d565b80156110b65780601f1061108b576101008083540402835291602001916110b6565b820191906000526020600020905b81548152906001019060200180831161109957829003601f168201915b505050505081526020016001820180546110cf90614c6d565b80601f01602080910402602001604051908101604052809291908181526020018280546110fb90614c6d565b80156111485780601f1061111d57610100808354040283529160200191611148565b820191906000526020600020905b81548152906001019060200180831161112b57829003601f168201915b5050505050815260200160028201805461116190614c6d565b80601f016020809104026020016040519081016040528092919081815260200182805461118d90614c6d565b80156111da5780601f106111af576101008083540402835291602001916111da565b820191906000526020600020905b8154815290600101906020018083116111bd57829003601f168201915b505050505081526020016003820180546111f390614c6d565b80601f016020809104026020016040519081016040528092919081815260200182805461121f90614c6d565b801561126c5780601f106112415761010080835404028352916020019161126c565b820191906000526020600020905b81548152906001019060200180831161124f57829003601f168201915b5050505050815260200160048201805480602002602001604051908101604052809291908181526020016000905b828210156113465783829060005260206000200180546112b990614c6d565b80601f01602080910402602001604051908101604052809291908181526020018280546112e590614c6d565b80156113325780601f1061130757610100808354040283529160200191611332565b820191906000526020600020905b81548152906001019060200180831161131557829003601f168201915b50505050508152602001906001019061129a565b50505050815260200160058201805480602002602001604051908101604052809291908181526020016000905b8282101561141f57838290600052602060002001805461139290614c6d565b80601f01602080910402602001604051908101604052809291908181526020018280546113be90614c6d565b801561140b5780601f106113e05761010080835404028352916020019161140b565b820191906000526020600020905b8154815290600101906020018083116113ee57829003601f168201915b505050505081526020019060010190611373565b50505050815260200160068201805480602002602001604051908101604052809291908181526020016000905b828210156114f857838290600052602060002001805461146b90614c6d565b80601f016020809104026020016040519081016040528092919081815260200182805461149790614c6d565b80156114e45780601f106114b9576101008083540402835291602001916114e4565b820191906000526020600020905b8154815290600101906020018083116114c757829003601f168201915b50505050508152602001906001019061144c565b50505050815250509050919050565b6060600480548060200260200160405190810160405280929190818152602001828054801561158b57602002820191906000526020600020905b8160009054906101000a900473ffffffffffffffffffffffffffffffffffffffff1673ffffffffffffffffffffffffffffffffffffffff1681526020019060010190808311611541575b5050505050905090565b600260003373ffffffffffffffffffffffffffffffffffffffff1673ffffffffffffffffffffffffffffffffffffffff16815260200190815260200160002060009054906101000a900460ff16611621576040517f08c379a00000000000000000000000000000000000000000000000000000000081526004016116189061511e565b60405180910390fd5b600160008273ffffffffffffffffffffffffffffffffffffffff1673ffffffffffffffffffffffffffffffffffffffff16815260200190815260200160002060009054906101000a900460ff166116ad576040517f08c379a00000000000000000000000000000000000000000000000000000000081526004016116a4906151b0565b60405180910390fd5b600960003373ffffffffffffffffffffffffffffffffffffffff1673ffffffffffffffffffffffffffffffffffffffff16815260200190815260200160002060008273ffffffffffffffffffffffffffffffffffffffff1673ffffffffffffffffffffffffffffffffffffffff16815260200190815260200160002060009054906101000a900460ff1615611777576040517f08c379a000000000000000000000000000000000000000000000000000000000815260040161176e9061521c565b60405180910390fd5b6001600960003373ffffffffffffffffffffffffffffffffffffffff1673ffffffffffffffffffffffffffffffffffffffff16815260200190815260200160002060008373ffffffffffffffffffffffffffffffffffffffff1673ffffffffffffffffffffffffffffffffffffffff16815260200190815260200160002060006101000a81548160ff021916908315150217905550600a60008273ffffffffffffffffffffffffffffffffffffffff1673ffffffffffffffffffffffffffffffffffffffff168152602001908152602001600020339080600181540180825580915050600190039060005260206000200160009091909190916101000a81548173ffffffffffffffffffffffffffffffffffffffff021916908373ffffffffffffffffffffffffffffffffffffffff16021790555050565b6060600260003373ffffffffffffffffffffffffffffffffffffffff1673ffffffffffffffffffffffffffffffffffffffff16815260200190815260200160002060009054906101000a900460ff1661193d576040517f08c379a0000000000000000000000000000000000000000000000000000000008152600401611934906152ae565b60405180910390fd5b60008067ffffffffffffffff81111561195957611958613e87565b5b6040519080825280602002602001820160405280156119875781602001602082028036833780820191505090505b5090506000611994611507565b905060005b8151811015611aa957600960003373ffffffffffffffffffffffffffffffffffffffff1673ffffffffffffffffffffffffffffffffffffffff1681526020019081526020016000206000600483815481106119f7576119f66152ce565b5b9060005260206000200160009054906101000a900473ffffffffffffffffffffffffffffffffffffffff1673ffffffffffffffffffffffffffffffffffffffff1673ffffffffffffffffffffffffffffffffffffffff16815260200190815260200160002060009054906101000a900460ff1615611a9657611a9383838381518110611a8657611a856152ce565b5b60200260200101516135dc565b92505b8080611aa19061532c565b915050611999565b50819250505090565b600033905090565b6000600a60008373ffffffffffffffffffffffffffffffffffffffff1673ffffffffffffffffffffffffffffffffffffffff168152602001908152602001600020805480602002602001604051908101604052809291908181526020018280548015611b7b57602002820191906000526020600020905b8160009054906101000a900473ffffffffffffffffffffffffffffffffffffffff1673ffffffffffffffffffffffffffffffffffffffff1681526020019060010190808311611b31575b50505050509050600960003373ffffffffffffffffffffffffffffffffffffffff1673ffffffffffffffffffffffffffffffffffffffff16815260200190815260200160002060008373ffffffffffffffffffffffffffffffffffffffff1673ffffffffffffffffffffffffffffffffffffffff16815260200190815260200160002060009054906101000a900460ff16611c4b576040517f08c379a0000000000000000000000000000000000000000000000000000000008152600401611c42906153c0565b60405180910390fd5b611c55338261372a565b611c94576040517f08c379a0000000000000000000000000000000000000000000000000000000008152600401611c8b90615452565b60405180910390fd5b6000600960003373ffffffffffffffffffffffffffffffffffffffff1673ffffffffffffffffffffffffffffffffffffffff16815260200190815260200160002060008473ffffffffffffffffffffffffffffffffffffffff1673ffffffffffffffffffffffffffffffffffffffff16815260200190815260200160002060006101000a81548160ff021916908315150217905550611d3333826137b1565b905080600a60008473ffffffffffffffffffffffffffffffffffffffff1673ffffffffffffffffffffffffffffffffffffffff1681526020019081526020016000209080519060200190611d88929190613a60565b505050565b60026020528060005260406000206000915054906101000a900460ff1681565b60606005805480602002602001604051908101604052809291908181526020018280548015611e3157602002820191906000526020600020905b8160009054906101000a900473ffffffffffffffffffffffffffffffffffffffff1673ffffffffffffffffffffffffffffffffffffffff1681526020019060010190808311611de7575b5050505050905090565b611e43613aea565b600760008373ffffffffffffffffffffffffffffffffffffffff1673ffffffffffffffffffffffffffffffffffffffff16815260200190815260200160002060405180610100016040529081600082018054611e9e90614c6d565b80601f0160208091040260200160405190810160405280929190818152602001828054611eca90614c6d565b8015611f175780601f10611eec57610100808354040283529160200191611f17565b820191906000526020600020905b815481529060010190602001808311611efa57829003601f168201915b50505050508152602001600182018054611f3090614c6d565b80601f0160208091040260200160405190810160405280929190818152602001828054611f5c90614c6d565b8015611fa95780601f10611f7e57610100808354040283529160200191611fa9565b820191906000526020600020905b815481529060010190602001808311611f8c57829003601f168201915b50505050508152602001600282018054611fc290614c6d565b80601f0160208091040260200160405190810160405280929190818152602001828054611fee90614c6d565b801561203b5780601f106120105761010080835404028352916020019161203b565b820191906000526020600020905b81548152906001019060200180831161201e57829003601f168201915b5050505050815260200160038201805461205490614c6d565b80601f016020809104026020016040519081016040528092919081815260200182805461208090614c6d565b80156120cd5780601f106120a2576101008083540402835291602001916120cd565b820191906000526020600020905b8154815290600101906020018083116120b057829003601f168201915b505050505081526020016004820180546120e690614c6d565b80601f016020809104026020016040519081016040528092919081815260200182805461211290614c6d565b801561215f5780601f106121345761010080835404028352916020019161215f565b820191906000526020600020905b81548152906001019060200180831161214257829003601f168201915b5050505050815260200160058201805461217890614c6d565b80601f01602080910402602001604051908101604052809291908181526020018280546121a490614c6d565b80156121f15780601f106121c6576101008083540402835291602001916121f1565b820191906000526020600020905b8154815290600101906020018083116121d457829003601f168201915b5050505050815260200160068201805461220a90614c6d565b80601f016020809104026020016040519081016040528092919081815260200182805461223690614c6d565b80156122835780601f1061225857610100808354040283529160200191612283565b820191906000526020600020905b81548152906001019060200180831161226657829003601f168201915b5050505050815260200160078201805461229c90614c6d565b80601f01602080910402602001604051908101604052809291908181526020018280546122c890614c6d565b80156123155780601f106122ea57610100808354040283529160200191612315565b820191906000526020600020905b8154815290600101906020018083116122f857829003601f168201915b5050505050815250509050919050565b60016020528060005260406000206000915054906101000a900460ff1681565b61234d613b2f565b600660008373ffffffffffffffffffffffffffffffffffffffff1673ffffffffffffffffffffffffffffffffffffffff168152602001908152602001600020604051806101400160405290816000820180546123a890614c6d565b80601f01602080910402602001604051908101604052809291908181526020018280546123d490614c6d565b80156124215780601f106123f657610100808354040283529160200191612421565b820191906000526020600020905b81548152906001019060200180831161240457829003601f168201915b5050505050815260200160018201805461243a90614c6d565b80601f016020809104026020016040519081016040528092919081815260200182805461246690614c6d565b80156124b35780601f10612488576101008083540402835291602001916124b3565b820191906000526020600020905b81548152906001019060200180831161249657829003601f168201915b505050505081526020016002820180546124cc90614c6d565b80601f01602080910402602001604051908101604052809291908181526020018280546124f890614c6d565b80156125455780601f1061251a57610100808354040283529160200191612545565b820191906000526020600020905b81548152906001019060200180831161252857829003601f168201915b5050505050815260200160038201805461255e90614c6d565b80601f016020809104026020016040519081016040528092919081815260200182805461258a90614c6d565b80156125d75780601f106125ac576101008083540402835291602001916125d7565b820191906000526020600020905b8154815290600101906020018083116125ba57829003601f168201915b505050505081526020016004820180546125f090614c6d565b80601f016020809104026020016040519081016040528092919081815260200182805461261c90614c6d565b80156126695780601f1061263e57610100808354040283529160200191612669565b820191906000526020600020905b81548152906001019060200180831161264c57829003601f168201915b5050505050815260200160058201805461268290614c6d565b80601f01602080910402602001604051908101604052809291908181526020018280546126ae90614c6d565b80156126fb5780601f106126d0576101008083540402835291602001916126fb565b820191906000526020600020905b8154815290600101906020018083116126de57829003601f168201915b5050505050815260200160068201805461271490614c6d565b80601f016020809104026020016040519081016040528092919081815260200182805461274090614c6d565b801561278d5780601f106127625761010080835404028352916020019161278d565b820191906000526020600020905b81548152906001019060200180831161277057829003601f168201915b505050505081526020016007820180546127a690614c6d565b80601f01602080910402602001604051908101604052809291908181526020018280546127d290614c6d565b801561281f5780601f106127f45761010080835404028352916020019161281f565b820191906000526020600020905b81548152906001019060200180831161280257829003601f168201915b5050505050815260200160088201805461283890614c6d565b80601f016020809104026020016040519081016040528092919081815260200182805461286490614c6d565b80156128b15780601f10612886576101008083540402835291602001916128b1565b820191906000526020600020905b81548152906001019060200180831161289457829003601f168201915b505050505081526020016009820180546128ca90614c6d565b80601f01602080910402602001604051908101604052809291908181526020018280546128f690614c6d565b80156129435780601f1061291857610100808354040283529160200191612943565b820191906000526020600020905b81548152906001019060200180831161292657829003601f168201915b5050505050815250509050919050565b60008054906101000a900473ffffffffffffffffffffffffffffffffffffffff1673ffffffffffffffffffffffffffffffffffffffff163373ffffffffffffffffffffffffffffffffffffffff16146129e1576040517f08c379a00000000000000000000000000000000000000000000000000000000081526004016129d8906154e4565b60405180910390fd5b60006040518061014001604052808c81526020018b81526020018a815260200189815260200188815260200187815260200186815260200185815260200184815260200183815250905080600660008e73ffffffffffffffffffffffffffffffffffffffff1673ffffffffffffffffffffffffffffffffffffffff1681526020019081526020016000206000820151816000019081612a809190614f6e565b506020820151816001019081612a969190614f6e565b506040820151816002019081612aac9190614f6e565b506060820151816003019081612ac29190614f6e565b506080820151816004019081612ad89190614f6e565b5060a0820151816005019081612aee9190614f6e565b5060c0820151816006019081612b049190614f6e565b5060e0820151816007019081612b1a9190614f6e565b50610100820151816008019081612b319190614f6e565b50610120820151816009019081612b489190614f6e565b5090505060018060008e73ffffffffffffffffffffffffffffffffffffffff1673ffffffffffffffffffffffffffffffffffffffff16815260200190815260200160002060006101000a81548160ff02191690831515021790555060048c9080600181540180825580915050600190039060005260206000200160009091909190916101000a81548173ffffffffffffffffffffffffffffffffffffffff021916908373ffffffffffffffffffffffffffffffffffffffff160217905550505050505050505050505050565b6006602052806000526040600020600091509050806000018054612c3790614c6d565b80601f0160208091040260200160405190810160405280929190818152602001828054612c6390614c6d565b8015612cb05780601f10612c8557610100808354040283529160200191612cb0565b820191906000526020600020905b815481529060010190602001808311612c9357829003601f168201915b505050505090806001018054612cc590614c6d565b80601f0160208091040260200160405190810160405280929190818152602001828054612cf190614c6d565b8015612d3e5780601f10612d1357610100808354040283529160200191612d3e565b820191906000526020600020905b815481529060010190602001808311612d2157829003601f168201915b505050505090806002018054612d5390614c6d565b80601f0160208091040260200160405190810160405280929190818152602001828054612d7f90614c6d565b8015612dcc5780601f10612da157610100808354040283529160200191612dcc565b820191906000526020600020905b815481529060010190602001808311612daf57829003601f168201915b505050505090806003018054612de190614c6d565b80601f0160208091040260200160405190810160405280929190818152602001828054612e0d90614c6d565b8015612e5a5780601f10612e2f57610100808354040283529160200191612e5a565b820191906000526020600020905b815481529060010190602001808311612e3d57829003601f168201915b505050505090806004018054612e6f90614c6d565b80601f0160208091040260200160405190810160405280929190818152602001828054612e9b90614c6d565b8015612ee85780601f10612ebd57610100808354040283529160200191612ee8565b820191906000526020600020905b815481529060010190602001808311612ecb57829003601f168201915b505050505090806005018054612efd90614c6d565b80601f0160208091040260200160405190810160405280929190818152602001828054612f2990614c6d565b8015612f765780601f10612f4b57610100808354040283529160200191612f76565b820191906000526020600020905b815481529060010190602001808311612f5957829003601f168201915b505050505090806006018054612f8b90614c6d565b80601f0160208091040260200160405190810160405280929190818152602001828054612fb790614c6d565b80156130045780601f10612fd957610100808354040283529160200191613004565b820191906000526020600020905b815481529060010190602001808311612fe757829003601f168201915b50505050509080600701805461301990614c6d565b80601f016020809104026020016040519081016040528092919081815260200182805461304590614c6d565b80156130925780601f1061306757610100808354040283529160200191613092565b820191906000526020600020905b81548152906001019060200180831161307557829003601f168201915b5050505050908060080180546130a790614c6d565b80601f01602080910402602001604051908101604052809291908181526020018280546130d390614c6d565b80156131205780601f106130f557610100808354040283529160200191613120565b820191906000526020600020905b81548152906001019060200180831161310357829003601f168201915b50505050509080600901805461313590614c6d565b80601f016020809104026020016040519081016040528092919081815260200182805461316190614c6d565b80156131ae5780601f10613183576101008083540402835291602001916131ae565b820191906000526020600020905b81548152906001019060200180831161319157829003601f168201915b505050505090508a565b6000600580549050905090565b60008054906101000a900473ffffffffffffffffffffffffffffffffffffffff1673ffffffffffffffffffffffffffffffffffffffff163373ffffffffffffffffffffffffffffffffffffffff1614613253576040517f08c379a000000000000000000000000000000000000000000000000000000000815260040161324a906154e4565b60405180910390fd5b60006040518061010001604052808a815260200189815260200188815260200187815260200186815260200185815260200184815260200183815250905080600760008c73ffffffffffffffffffffffffffffffffffffffff1673ffffffffffffffffffffffffffffffffffffffff16815260200190815260200160002060008201518160000190816132e69190614f6e565b5060208201518160010190816132fc9190614f6e565b5060408201518160020190816133129190614f6e565b5060608201518160030190816133289190614f6e565b50608082015181600401908161333e9190614f6e565b5060a08201518160050190816133549190614f6e565b5060c082015181600601908161336a9190614f6e565b5060e08201518160070190816133809190614f6e565b509050506001600260008c73ffffffffffffffffffffffffffffffffffffffff1673ffffffffffffffffffffffffffffffffffffffff16815260200190815260200160002060006101000a81548160ff02191690831515021790555060058a9080600181540180825580915050600190039060005260206000200160009091909190916101000a81548173ffffffffffffffffffffffffffffffffffffffff021916908373ffffffffffffffffffffffffffffffffffffffff16021790555050505050505050505050565b606061345682611e3b565b600001519050919050565b6060600160003373ffffffffffffffffffffffffffffffffffffffff1673ffffffffffffffffffffffffffffffffffffffff16815260200190815260200160002060009054906101000a900460ff166134ef576040517f08c379a00000000000000000000000000000000000000000000000000000000081526004016134e690614d10565b60405180910390fd5b600a60003373ffffffffffffffffffffffffffffffffffffffff1673ffffffffffffffffffffffffffffffffffffffff1681526020019081526020016000208054806020026020016040519081016040528092919081815260200182805480156135ae57602002820191906000526020600020905b8160009054906101000a900473ffffffffffffffffffffffffffffffffffffffff1673ffffffffffffffffffffffffffffffffffffffff1681526020019060010190808311613564575b5050505050905090565b60008054906101000a900473ffffffffffffffffffffffffffffffffffffffff1681565b60606000600184516135ee9190615504565b905060008167ffffffffffffffff81111561360c5761360b613e87565b5b60405190808252806020026020018201604052801561363a5781602001602082028036833780820191505090505b50905060005b85518110156136c45785818151811061365c5761365b6152ce565b5b6020026020010151828281518110613677576136766152ce565b5b602002602001019073ffffffffffffffffffffffffffffffffffffffff16908173ffffffffffffffffffffffffffffffffffffffff168152505080806136bc9061532c565b915050613640565b5083816001846136d49190615538565b815181106136e5576136e46152ce565b5b602002602001019073ffffffffffffffffffffffffffffffffffffffff16908173ffffffffffffffffffffffffffffffffffffffff1681525050809250505092915050565b600080600090505b82518110156137a5578373ffffffffffffffffffffffffffffffffffffffff16838281518110613765576137646152ce565b5b602002602001015173ffffffffffffffffffffffffffffffffffffffff16036137925760019150506137ab565b808061379d9061532c565b915050613732565b50600090505b92915050565b60606000825190506000600184516137c99190615538565b67ffffffffffffffff8111156137e2576137e1613e87565b5b6040519080825280602002602001820160405280156138105781602001602082028036833780820191505090505b50905060005b8451811015613887578573ffffffffffffffffffffffffffffffffffffffff16858281518110613849576138486152ce565b5b602002602001015173ffffffffffffffffffffffffffffffffffffffff160361387457809250613887565b808061387f9061532c565b915050613816565b5060008290505b6001855161389c9190615538565b81101561392a57846001826138b19190615504565b815181106138c2576138c16152ce565b5b60200260200101518582815181106138dd576138dc6152ce565b5b602002602001019073ffffffffffffffffffffffffffffffffffffffff16908173ffffffffffffffffffffffffffffffffffffffff168152505080806139229061532c565b91505061388e565b5060005b6001855161393c9190615538565b8110156139be57848181518110613956576139556152ce565b5b6020026020010151828281518110613971576139706152ce565b5b602002602001019073ffffffffffffffffffffffffffffffffffffffff16908173ffffffffffffffffffffffffffffffffffffffff168152505080806139b69061532c565b91505061392e565b50809250505092915050565b828054828255906000526020600020908101928215613a12579160200282015b82811115613a11578251829081613a019190614f6e565b50916020019190600101906139ea565b5b509050613a1f9190613b82565b5090565b6040518060e00160405280606081526020016060815260200160608152602001606081526020016060815260200160608152602001606081525090565b828054828255906000526020600020908101928215613ad9579160200282015b82811115613ad85782518260006101000a81548173ffffffffffffffffffffffffffffffffffffffff021916908373ffffffffffffffffffffffffffffffffffffffff16021790555091602001919060010190613a80565b5b509050613ae69190613ba6565b5090565b60405180610100016040528060608152602001606081526020016060815260200160608152602001606081526020016060815260200160608152602001606081525090565b604051806101400160405280606081526020016060815260200160608152602001606081526020016060815260200160608152602001606081526020016060815260200160608152602001606081525090565b5b80821115613ba25760008181613b999190613bc3565b50600101613b83565b5090565b5b80821115613bbf576000816000905550600101613ba7565b5090565b508054613bcf90614c6d565b6000825580601f10613be15750613c00565b601f016020900490600052602060002090810190613bff9190613ba6565b5b50565b6000604051905090565b600080fd5b600080fd5b600073ffffffffffffffffffffffffffffffffffffffff82169050919050565b6000613c4282613c17565b9050919050565b613c5281613c37565b8114613c5d57600080fd5b50565b600081359050613c6f81613c49565b92915050565b600060208284031215613c8b57613c8a613c0d565b5b6000613c9984828501613c60565b91505092915050565b600081519050919050565b600082825260208201905092915050565b60005b83811015613cdc578082015181840152602081019050613cc1565b60008484015250505050565b6000601f19601f8301169050919050565b6000613d0482613ca2565b613d0e8185613cad565b9350613d1e818560208601613cbe565b613d2781613ce8565b840191505092915050565b6000610100820190508181036000830152613d4d818b613cf9565b90508181036020830152613d61818a613cf9565b90508181036040830152613d758189613cf9565b90508181036060830152613d898188613cf9565b90508181036080830152613d9d8187613cf9565b905081810360a0830152613db18186613cf9565b905081810360c0830152613dc58185613cf9565b905081810360e0830152613dd98184613cf9565b90509998505050505050505050565b6000819050919050565b613dfb81613de8565b82525050565b6000602082019050613e166000830184613df2565b92915050565b60006080820190508181036000830152613e368187613cf9565b90508181036020830152613e4a8186613cf9565b90508181036040830152613e5e8185613cf9565b90508181036060830152613e728184613cf9565b905095945050505050565b600080fd5b600080fd5b7f4e487b7100000000000000000000000000000000000000000000000000000000600052604160045260246000fd5b613ebf82613ce8565b810181811067ffffffffffffffff82111715613ede57613edd613e87565b5b80604052505050565b6000613ef1613c03565b9050613efd8282613eb6565b919050565b600067ffffffffffffffff821115613f1d57613f1c613e87565b5b613f2682613ce8565b9050602081019050919050565b82818337600083830152505050565b6000613f55613f5084613f02565b613ee7565b905082815260208101848484011115613f7157613f70613e82565b5b613f7c848285613f33565b509392505050565b600082601f830112613f9957613f98613e7d565b5b8135613fa9848260208601613f42565b91505092915050565b600067ffffffffffffffff821115613fcd57613fcc613e87565b5b602082029050602081019050919050565b600080fd5b6000613ff6613ff184613fb2565b613ee7565b9050808382526020820190506020840283018581111561401957614018613fde565b5b835b8181101561406057803567ffffffffffffffff81111561403e5761403d613e7d565b5b80860161404b8982613f84565b8552602085019450505060208101905061401b565b5050509392505050565b600082601f83011261407f5761407e613e7d565b5b813561408f848260208601613fe3565b91505092915050565b600080600080600080600080610100898b0312156140b9576140b8613c0d565b5b60006140c78b828c01613c60565b985050602089013567ffffffffffffffff8111156140e8576140e7613c12565b5b6140f48b828c01613f84565b975050604089013567ffffffffffffffff81111561411557614114613c12565b5b6141218b828c01613f84565b965050606089013567ffffffffffffffff81111561414257614141613c12565b5b61414e8b828c01613f84565b955050608089013567ffffffffffffffff81111561416f5761416e613c12565b5b61417b8b828c01613f84565b94505060a089013567ffffffffffffffff81111561419c5761419b613c12565b5b6141a88b828c0161406a565b93505060c089013567ffffffffffffffff8111156141c9576141c8613c12565b5b6141d58b828c0161406a565b92505060e089013567ffffffffffffffff8111156141f6576141f5613c12565b5b6142028b828c0161406a565b9150509295985092959890939650565b60008115159050919050565b61422781614212565b82525050565b6000602082019050614242600083018461421e565b92915050565b600082825260208201905092915050565b600061426482613ca2565b61426e8185614248565b935061427e818560208601613cbe565b61428781613ce8565b840191505092915050565b600081519050919050565b600082825260208201905092915050565b6000819050602082019050919050565b60006142ca8383614259565b905092915050565b6000602082019050919050565b60006142ea82614292565b6142f4818561429d565b935083602082028501614306856142ae565b8060005b85811015614342578484038952815161432385826142be565b945061432e836142d2565b925060208a0199505060018101905061430a565b50829750879550505050505092915050565b600060e08301600083015184820360008601526143718282614259565b9150506020830151848203602086015261438b8282614259565b915050604083015184820360408601526143a58282614259565b915050606083015184820360608601526143bf8282614259565b915050608083015184820360808601526143d982826142df565b91505060a083015184820360a08601526143f382826142df565b91505060c083015184820360c086015261440d82826142df565b9150508091505092915050565b600060208201905081810360008301526144348184614354565b905092915050565b600081519050919050565b600082825260208201905092915050565b6000819050602082019050919050565b61447181613c37565b82525050565b60006144838383614468565b60208301905092915050565b6000602082019050919050565b60006144a78261443c565b6144b18185614447565b93506144bc83614458565b8060005b838110156144ed5781516144d48882614477565b97506144df8361448f565b9250506001810190506144c0565b5085935050505092915050565b60006020820190508181036000830152614514818461449c565b905092915050565b61452581613c37565b82525050565b6000602082019050614540600083018461451c565b92915050565b60006101008301600083015184820360008601526145648282614259565b9150506020830151848203602086015261457e8282614259565b915050604083015184820360408601526145988282614259565b915050606083015184820360608601526145b28282614259565b915050608083015184820360808601526145cc8282614259565b91505060a083015184820360a08601526145e68282614259565b91505060c083015184820360c08601526146008282614259565b91505060e083015184820360e086015261461a8282614259565b9150508091505092915050565b600060208201905081810360008301526146418184614546565b905092915050565b60006101408301600083015184820360008601526146678282614259565b915050602083015184820360208601526146818282614259565b9150506040830151848203604086015261469b8282614259565b915050606083015184820360608601526146b58282614259565b915050608083015184820360808601526146cf8282614259565b91505060a083015184820360a08601526146e98282614259565b91505060c083015184820360c08601526147038282614259565b91505060e083015184820360e086015261471d8282614259565b9150506101008301518482036101008601526147398282614259565b9150506101208301518482036101208601526147558282614259565b9150508091505092915050565b6000602082019050818103600083015261477c8184614649565b905092915050565b60008060008060008060008060008060006101608c8e0312156147aa576147a9613c0d565b5b60006147b88e828f01613c60565b9b505060208c013567ffffffffffffffff8111156147d9576147d8613c12565b5b6147e58e828f01613f84565b9a505060408c013567ffffffffffffffff81111561480657614805613c12565b5b6148128e828f01613f84565b99505060608c013567ffffffffffffffff81111561483357614832613c12565b5b61483f8e828f01613f84565b98505060808c013567ffffffffffffffff8111156148605761485f613c12565b5b61486c8e828f01613f84565b97505060a08c013567ffffffffffffffff81111561488d5761488c613c12565b5b6148998e828f01613f84565b96505060c08c013567ffffffffffffffff8111156148ba576148b9613c12565b5b6148c68e828f01613f84565b95505060e08c013567ffffffffffffffff8111156148e7576148e6613c12565b5b6148f38e828f01613f84565b9450506101008c013567ffffffffffffffff81111561491557614914613c12565b5b6149218e828f01613f84565b9350506101208c013567ffffffffffffffff81111561494357614942613c12565b5b61494f8e828f01613f84565b9250506101408c013567ffffffffffffffff81111561497157614970613c12565b5b61497d8e828f01613f84565b9150509295989b509295989b9093969950565b60006101408201905081810360008301526149ab818d613cf9565b905081810360208301526149bf818c613cf9565b905081810360408301526149d3818b613cf9565b905081810360608301526149e7818a613cf9565b905081810360808301526149fb8189613cf9565b905081810360a0830152614a0f8188613cf9565b905081810360c0830152614a238187613cf9565b905081810360e0830152614a378186613cf9565b9050818103610100830152614a4c8185613cf9565b9050818103610120830152614a618184613cf9565b90509b9a5050505050505050505050565b60008060008060008060008060006101208a8c031215614a9557614a94613c0d565b5b6000614aa38c828d01613c60565b99505060208a013567ffffffffffffffff811115614ac457614ac3613c12565b5b614ad08c828d01613f84565b98505060408a013567ffffffffffffffff811115614af157614af0613c12565b5b614afd8c828d01613f84565b97505060608a013567ffffffffffffffff811115614b1e57614b1d613c12565b5b614b2a8c828d01613f84565b96505060808a013567ffffffffffffffff811115614b4b57614b4a613c12565b5b614b578c828d01613f84565b95505060a08a013567ffffffffffffffff811115614b7857614b77613c12565b5b614b848c828d01613f84565b94505060c08a013567ffffffffffffffff811115614ba557614ba4613c12565b5b614bb18c828d01613f84565b93505060e08a013567ffffffffffffffff811115614bd257614bd1613c12565b5b614bde8c828d01613f84565b9250506101008a013567ffffffffffffffff811115614c0057614bff613c12565b5b614c0c8c828d01613f84565b9150509295985092959850929598565b60006020820190508181036000830152614c368184613cf9565b905092915050565b7f4e487b7100000000000000000000000000000000000000000000000000000000600052602260045260246000fd5b60006002820490506001821680614c8557607f821691505b602082108103614c9857614c97614c3e565b5b50919050565b7f4f6e6c7920446f63746f722063616e20706572666f726d2074686973206f706560008201527f726174696f6e0000000000000000000000000000000000000000000000000000602082015250565b6000614cfa602683613cad565b9150614d0582614c9e565b604082019050919050565b60006020820190508181036000830152614d2981614ced565b9050919050565b7f54686973206973206e6f7420612070617469656e74206164647265737320776c60008201527f61206e6f74207265676973747265640000000000000000000000000000000000602082015250565b6000614d8c602f83613cad565b9150614d9782614d30565b604082019050919050565b60006020820190508181036000830152614dbb81614d7f565b9050919050565b60008190508160005260206000209050919050565b60006020601f8301049050919050565b600082821b905092915050565b600060088302614e247fffffffffffffffffffffffffffffffffffffffffffffffffffffffffffffffff82614de7565b614e2e8683614de7565b95508019841693508086168417925050509392505050565b6000819050919050565b6000614e6b614e66614e6184613de8565b614e46565b613de8565b9050919050565b6000819050919050565b614e8583614e50565b614e99614e9182614e72565b848454614df4565b825550505050565b600090565b614eae614ea1565b614eb9818484614e7c565b505050565b5b81811015614edd57614ed2600082614ea6565b600181019050614ebf565b5050565b601f821115614f2257614ef381614dc2565b614efc84614dd7565b81016020851015614f0b578190505b614f1f614f1785614dd7565b830182614ebe565b50505b505050565b600082821c905092915050565b6000614f4560001984600802614f27565b1980831691505092915050565b6000614f5e8383614f34565b9150826002028217905092915050565b614f7782613ca2565b67ffffffffffffffff811115614f9057614f8f613e87565b5b614f9a8254614c6d565b614fa5828285614ee1565b600060209050601f831160018114614fd85760008415614fc6578287015190505b614fd08582614f52565b865550615038565b601f198416614fe686614dc2565b60005b8281101561500e57848901518255600182019150602085019450602081019050614fe9565b8683101561502b5784890151615027601f891682614f34565b8355505b6001600288020188555050505b505050505050565b7f54686973206e6f7420796f75722070617469656e742021000000000000000000600082015250565b6000615076601783613cad565b915061508182615040565b602082019050919050565b600060208201905081810360008301526150a581615069565b9050919050565b7f4f6e6c792050617469656e742063616e2061646420617070726f76656420446f60008201527f7263746f72000000000000000000000000000000000000000000000000000000602082015250565b6000615108602583613cad565b9150615113826150ac565b604082019050919050565b60006020820190508181036000830152615137816150fb565b9050919050565b7f54686973206164647265737320646f65736e27742062656c6f6e6720746f206160008201527f20446f63746f7200000000000000000000000000000000000000000000000000602082015250565b600061519a602783613cad565b91506151a58261513e565b604082019050919050565b600060208201905081810360008301526151c98161518d565b9050919050565b7f596f7520616c726561647920617070726f7665207468697320646f6300000000600082015250565b6000615206601c83613cad565b9150615211826151d0565b602082019050919050565b60006020820190508181036000830152615235816151f9565b9050919050565b7f4f6e6c792050617469656e742063616e20706572666f726d2074686973206f7060008201527f65726174696f6e00000000000000000000000000000000000000000000000000602082015250565b6000615298602783613cad565b91506152a38261523c565b604082019050919050565b600060208201905081810360008301526152c78161528b565b9050919050565b7f4e487b7100000000000000000000000000000000000000000000000000000000600052603260045260246000fd5b7f4e487b7100000000000000000000000000000000000000000000000000000000600052601160045260246000fd5b600061533782613de8565b91507fffffffffffffffffffffffffffffffffffffffffffffffffffffffffffffffff8203615369576153686152fd565b5b600182019050919050565b7f4e6f7420617070726f7665640000000000000000000000000000000000000000600082015250565b60006153aa600c83613cad565b91506153b582615374565b602082019050919050565b600060208201905081810360008301526153d98161539d565b9050919050565b7f446f65736e277420657869737420696e204c697374206f662070617469656e7360008201527f206f66207468617420446f63746f720000000000000000000000000000000000602082015250565b600061543c602f83613cad565b9150615447826153e0565b604082019050919050565b6000602082019050818103600083015261546b8161542f565b9050919050565b7f4f6e6c792061646d696e2063616e20706572666f726d2074686973206f70657260008201527f6174696f6e000000000000000000000000000000000000000000000000000000602082015250565b60006154ce602583613cad565b91506154d982615472565b604082019050919050565b600060208201905081810360008301526154fd816154c1565b9050919050565b600061550f82613de8565b915061551a83613de8565b9250828201905080821115615532576155316152fd565b5b92915050565b600061554382613de8565b915061554e83613de8565b9250828203905081811115615566576155656152fd565b5b9291505056fea2646970667358221220cee57cf2e9ae81496d026bf8a1f7d287d6ec4bb19df498d78a4e4b812a29dd5164736f6c63430008120033",
  "immutableReferences": {},
  "source": "// SPDX-License-Identifier: UNLICENSED\r\npragma solidity ^0.8.0;\r\n\r\ncontract  Contract {\r\n\r\n    address public admin;\r\n\r\n    constructor(){\r\n        admin=msg.sender;\r\n        isAdmin[admin]=true;\r\n        ////////////////////////////////\r\n        //createDoctor(0xff640B68F773729E8A352cCa92888dc3535dB90d,\"first_name of Doctor\",\"last_name of Doctor\",\"email of Doctor\",\"specialite of Doctor\",\"hospital_name of Doctor\",\"wilaya of Doctor\",\"birth_date of Doctor\",\"phone of Doctor\",\"gender of Doctor\",\"_join_date\");\r\n        //createDoctor(0xb5b6d0E2C523ec14618D44F9AFB73195414F8786 ,\"doc2\",\"doc2\",\"doc2\",\"doc2\",\"doc2\",\"doc2\",\"doc2\",\"doc2\",\"doc2\",\"_join_date\");\r\n\r\n        //createPatient(0x695553ff7eAAdb81BCeb8DEEE24118dC36c486AF,\"first_name pat1\",\"last_name pat12\",\"email pat13\",\" pat14\",\"pat15\",\"pat16\",\"pat17\",\"_join_date\")  ;\r\n        //createPatient(0x9fE7AF5782D9bf27ECC304EE6ED34c0FF97b9eE0,\"pat2\",\"pat2\",\"pat2\",\"pat2\",\"pat2\",\"pat2\",\"pat2\",\"_join_date\")  ;\r\n    }\r\n    struct Doctor{\r\n        string first_name ;\r\n        string last_name ;\r\n        string email ;\r\n        string specialite ;\r\n        string hospital_name ;\r\n        string wilaya ;\r\n        string birth_date ;\r\n        string phone ;\r\n        string gender ;\r\n        string join_date ;\r\n    }\r\n    struct Patient{\r\n        string first_name ;\r\n        string last_name ;\r\n        string email ;\r\n        string wilaya ;\r\n        string birth_date ;\r\n        string phone ;\r\n        string gender ;\r\n        string join_date ;\r\n    }\r\n    struct MedicalRecord{\r\n        string blood_type ;\r\n        string height ;\r\n        string weight ;\r\n        string vision_test ;\r\n        string [] medical_history;\r\n        string [] diagnostic_tests;\r\n        string [] treatments;\r\n    }\r\n    mapping (address => bool) public isDoctor;\r\n    mapping (address => bool) public isPatient;\r\n    mapping (address => bool) public isAdmin;\r\n\r\n    address[]  all_doctors_adresses ;    //****\r\n    address[]  all_patiens_adresses ;    //****\r\n\r\n    mapping (address => Doctor) public doctors;\r\n    mapping (address => Patient) public patients;\r\n    mapping (address => MedicalRecord) public  medicalRecords;\r\n\r\n    mapping (address => mapping(address => bool ) ) appreovedDoctors ;  // P_adr =>( D_adr => bool )\r\n    mapping (address => address[] ) myPations ;\r\n    mapping (address => address[] ) myDoctors ;   //*********\r\n\r\n    mapping (address => address[] ) doctorsHistory ;\r\n\r\n    ///////////////////////////////////////////////////////////////////////////////\r\n    modifier onlyAdmin() {\r\n        require(msg.sender == admin   , \"Only admin can perform this operation\");\r\n        _;\r\n    }\r\n    modifier onlyDoctor() {\r\n        require(isDoctor[msg.sender]  , \"Only Doctor can perform this operation\");\r\n        _;\r\n    }\r\n    modifier onlyPatient() {\r\n        require(isPatient[msg.sender] , \"Only Patient can perform this operation\");\r\n        _;\r\n    }\r\n    //////////////////////////////////////////////////////////////////////////////\r\n    ////////////////////////////// Create Doctor ////////////////////////////////\r\n    function createDoctor(\r\n        address _doctorAddress,\r\n        string memory _first_name,\r\n        string memory _last_name,\r\n        string memory _email,\r\n        string memory _specialite,\r\n        string memory _hospital_name,\r\n        string memory _wilaya,\r\n        string memory _birth_date,\r\n        string memory _phone,\r\n        string memory _gender,\r\n        string memory _join_date\r\n    )public onlyAdmin {\r\n        Doctor memory newDoctor = Doctor({\r\n            first_name: _first_name,    last_name    : _last_name    ,  email : _email,\r\n            specialite: _specialite,    hospital_name: _hospital_name,  wilaya: _wilaya,\r\n            birth_date: _birth_date,    phone        : _phone        ,  gender: _gender,\r\n            join_date : _join_date\r\n        });\r\n        doctors[_doctorAddress] = newDoctor;\r\n        isDoctor[_doctorAddress]=true;\r\n        all_doctors_adresses.push(_doctorAddress);\r\n    }\r\n\r\n    ////////////////////////////// Create Patient //////////////////////////////\r\n    function createPatient(\r\n        address _patientAddress,\r\n        string memory _first_name,\r\n        string memory _last_name,\r\n        string memory _email,\r\n        string memory _wilaya,\r\n        string memory _birth_date,\r\n        string memory _phone,\r\n        string memory _gender,\r\n        string memory _join_date\r\n\r\n    )public onlyAdmin {\r\n        Patient memory newPatient = Patient({\r\n            first_name: _first_name  , last_name : _last_name    ,    email : _email  ,\r\n            wilaya    : _wilaya      , birth_date: _birth_date   ,    phone : _phone  ,\r\n            gender    : _gender      , join_date : _join_date\r\n        });\r\n        patients[_patientAddress] = newPatient;\r\n        isPatient[_patientAddress]=true;\r\n        all_patiens_adresses.push(_patientAddress);\r\n        //string []memory emptyStr = new string[](0);\r\n        //createMedicalRecord(_patientAddress ,\"\",\"\",\"\",\"\",emptyStr,emptyStr,emptyStr );\r\n    }\r\n    ////////////////////////////// Create Medical Record //////////////////////////////\r\n    function createMedicalRecord (\r\n        address  _patientAddress,\r\n        string memory _blood_type ,\r\n        string memory _height ,\r\n        string memory _weight ,\r\n        string memory _vision_test,\r\n        string [] memory _medical_history,\r\n        string [] memory _diagnostic_tests,\r\n        string [] memory _treatments )\r\n    public onlyDoctor {\r\n        require(isPatient[_patientAddress]  , \"This is not a patient address wla not registred\");\r\n        //require(isPatient[_patientAddress]  , \"This is not a patient address wla not registred\");\r\n        MedicalRecord memory newMedicalRecord = MedicalRecord({\r\n            blood_type  : _blood_type ,\r\n            height      : _height ,\r\n            weight      : _weight ,\r\n            vision_test : _vision_test ,\r\n            medical_history:_medical_history,\r\n            diagnostic_tests:_diagnostic_tests,\r\n            treatments:_treatments\r\n        });\r\n\r\n        medicalRecords[_patientAddress]=newMedicalRecord;\r\n\r\n    }\r\n    //////////////////////////////////////////////////////////////////////////////////////\r\n    //////////////////////////////         Functions       //////////////////////////////\r\n    //// get addresses\r\n    function getAllDoctorAddresses() public view returns (address[] memory) {\r\n        return all_doctors_adresses;\r\n    }\r\n\r\n    function getAllPatientAddresses() public view returns (address[] memory) {\r\n        return all_patiens_adresses;\r\n    }\r\n    //// get info\r\n    function getDoctorinfo(address _adr) public view returns (Doctor memory) {\r\n        return doctors[_adr];\r\n    }                                                                                                   //        /\\       //\r\n    function getPatieninfo(address _adr) public view returns (Patient memory) {                         //       //\\\\      //\r\n        return patients[_adr];                                                                          //      ///\\\\\\     //\r\n    }                                                                                                   //     ////\\\\\\\\    //\r\n                                                                                                        //    /////\\\\\\\\\\   //\r\n    function getMedicalRecordinfo(address _adr) public view returns (MedicalRecord memory) {            //   /////()\\\\\\\\\\  //\r\n        require(!appreovedDoctors[msg.sender][_adr] , \"This not your patient !\"); //   \\\\\\\\|()|////  //\r\n        return medicalRecords[_adr];                                                                    //   ////    \\\\\\\\  //\r\n    }                                                                                                   //  ////||||||\\\\\\\\ //\r\n\r\n\r\n    //// get count\r\n    function getDoctorsCount() public view returns (uint) {\r\n        return all_doctors_adresses.length;\r\n    }\r\n    function getPatiensCount() public view returns (uint) {\r\n        return all_patiens_adresses.length;\r\n    }\r\n    //////////////////////////////////////////////////////////////////////////////////////\r\n    //// For Patient\r\n    // Patient add the address of the Doctor to Allow him\r\n    function approveDoctor(address _doctor_address) public {\r\n        require(isPatient[msg.sender] , \"Only Patient can add approved Dorctor\");\r\n        require(isDoctor[_doctor_address] , \"This address doesn't belong to a Doctor\");\r\n        require(!appreovedDoctors[msg.sender][_doctor_address],\"You already approve this doc\" );\r\n\r\n        appreovedDoctors[msg.sender][_doctor_address]=true;\r\n        myPations[_doctor_address].push(msg.sender);\r\n    }\r\n\r\n    function disapproveDoctor (address _doctor_address) public  {\r\n        address[] memory array_of_patient  = myPations[_doctor_address];\r\n\r\n        require(appreovedDoctors[msg.sender][_doctor_address] ,\"Not approved\");\r\n        require(exist(msg.sender,array_of_patient) , \"Doesn't exist in List of patiens of that Doctor\" );\r\n\r\n        appreovedDoctors[msg.sender][_doctor_address]=false ;                // delete Doctor from approved doctors list\r\n\r\n        array_of_patient = deleteFromArray( msg.sender , array_of_patient ); // delete patient from List of patients of Doctor\r\n        myPations[_doctor_address] = array_of_patient;\r\n    }\r\n\r\n    function getMyDoctors() public onlyPatient view returns  (address[] memory)  {\r\n        address[] memory myDoctorsList = new address[](0);\r\n        address[] memory allDoctors = getAllDoctorAddresses();\r\n\r\n        for (uint i = 0; i < allDoctors.length ; i++) {\r\n            if(appreovedDoctors[msg.sender][all_doctors_adresses[i]]){\r\n                myDoctorsList = _addDoctor(myDoctorsList, allDoctors[i]);\r\n            }\r\n        }\r\n        return myDoctorsList ;\r\n    }\r\n\r\n\r\n\r\n\r\n\r\n    //////////////////////////////////////////////////////////////////////////////////////\r\n    // For Doctor\r\n    function getMyPatientsCount ()public view onlyDoctor returns(uint){\r\n        return myPations[msg.sender].length   ;\r\n    }\r\n    function getAddressesOfMyPatiens ()public  view onlyDoctor returns(address [] memory){\r\n        return myPations[msg.sender]   ;\r\n    }\r\n    function getPatientName(address _adr) public view returns(string memory){\r\n        return getPatieninfo(_adr).first_name;\r\n    }\r\n\r\n    //    function getMyPatientsNames ()public view onlyDoctor returns(string [] memory){\r\n    //        address [] memory addresses = getAddressesOfMyPatiens();\r\n    //        string [] memory names ;\r\n    //\r\n    //        for (uint i= 0 ; i< addresses.length ; i++){\r\n    //            names[i]= getPatieninfo(addresses[i]).first_name;\r\n    //        }\r\n    //        return names ;\r\n    //    }\r\n\r\n\r\n    // *****  Functions for code\r\n    function deleteFromArray(address _addr , address[] memory _arr) private pure returns(address[] memory ) {\r\n        uint indexToRemove = _arr.length ;\r\n        address [] memory newArray = new address[](_arr.length-1); //\r\n        // get index of item ( indexToRemove )\r\n        for (uint i=0 ; i<_arr.length ; i++){\r\n            if(_arr[i] == _addr){\r\n                indexToRemove = i ;\r\n                break;\r\n            }\r\n        }\r\n        // bdal blays f Array\r\n        for(uint j = indexToRemove ; j<_arr.length-1  ; j++){\r\n            _arr[j]=_arr[j+1];\r\n        }\r\n        // 3mar Array jdida\r\n        for (uint k = 0 ;  k <_arr.length-1 ; k++ ){\r\n            newArray[k]= _arr[k];\r\n        }\r\n\r\n        return newArray; // n7tajha fi dasapproveDoctor()\r\n    }\r\n\r\n    function _addDoctor(address[] memory doctorsList, address doctor) private pure returns (address[] memory) {\r\n        uint256 newLength = doctorsList.length + 1;\r\n        address[] memory newDoctorsList = new address[](newLength);\r\n\r\n        for (uint256 i = 0; i < doctorsList.length; i++) {\r\n            newDoctorsList[i] = doctorsList[i];\r\n        }\r\n\r\n        newDoctorsList[newLength - 1] = doctor;\r\n        return newDoctorsList; // n7tajha fi getMyDoctors\r\n    }\r\n\r\n    function exist(address _addr , address[] memory _arr) private pure returns(bool){\r\n        for (uint i=0 ; i<_arr.length ; i++){\r\n            if(_arr[i] == _addr){\r\n                return true ;\r\n            }\r\n        }\r\n        return false ; // if address kayna fi address[]\r\n    }\r\n\r\n\r\n\r\n    function whoIam() public view returns (address){\r\n        return msg.sender;\r\n    }\r\n\r\n\r\n\r\n\r\n}\r\n",
  "sourcePath": "C:\\Users\\BELHADJ Mohamed Ali\\Desktop\\abc\\new-app-feb\\Truffle\\contracts\\Contract.sol",
  "compiler": {
    "name": "solc",
    "version": "0.8.18+commit.87f61d96.Emscripten.clang"
  },
  "schemaVersion": "3.4.13",
  "updatedAt": "2023-04-29T23:47:25.617Z",
  "networkType": "ethereum",
  "devdoc": {
    "kind": "dev",
    "methods": {},
    "version": 1
  },
  "userdoc": {
    "kind": "user",
    "methods": {},
    "version": 1
  }
}