{
  "contractName": "Contract",
  "abi": [
    {
      "inputs": [],
      "stateMutability": "nonpayable",
      "type": "constructor"
    },
    {
      "inputs": [],
      "name": "admin",
      "outputs": [
        {
          "internalType": "address",
          "name": "",
          "type": "address"
        }
      ],
      "stateMutability": "view",
      "type": "function",
      "constant": true
    },
    {
      "inputs": [
        {
          "internalType": "address",
          "name": "",
          "type": "address"
        }
      ],
      "name": "doctors",
      "outputs": [
        {
          "internalType": "string",
          "name": "first_name",
          "type": "string"
        },
        {
          "internalType": "string",
          "name": "last_name",
          "type": "string"
        },
        {
          "internalType": "string",
          "name": "email",
          "type": "string"
        },
        {
          "internalType": "string",
          "name": "specialite",
          "type": "string"
        },
        {
          "internalType": "string",
          "name": "hospital_name",
          "type": "string"
        },
        {
          "internalType": "string",
          "name": "wilaya",
          "type": "string"
        },
        {
          "internalType": "string",
          "name": "birth_date",
          "type": "string"
        },
        {
          "internalType": "string",
          "name": "phone",
          "type": "string"
        },
        {
          "internalType": "string",
          "name": "gender",
          "type": "string"
        },
        {
          "internalType": "string",
          "name": "join_date",
          "type": "string"
        }
      ],
      "stateMutability": "view",
      "type": "function",
      "constant": true
    },
    {
      "inputs": [
        {
          "internalType": "address",
          "name": "",
          "type": "address"
        }
      ],
      "name": "isAdmin",
      "outputs": [
        {
          "internalType": "bool",
          "name": "",
          "type": "bool"
        }
      ],
      "stateMutability": "view",
      "type": "function",
      "constant": true
    },
    {
      "inputs": [
        {
          "internalType": "address",
          "name": "",
          "type": "address"
        }
      ],
      "name": "isCompanyAs",
      "outputs": [
        {
          "internalType": "bool",
          "name": "",
          "type": "bool"
        }
      ],
      "stateMutability": "view",
      "type": "function",
      "constant": true
    },
    {
      "inputs": [
        {
          "internalType": "address",
          "name": "",
          "type": "address"
        }
      ],
      "name": "isDoctor",
      "outputs": [
        {
          "internalType": "bool",
          "name": "",
          "type": "bool"
        }
      ],
      "stateMutability": "view",
      "type": "function",
      "constant": true
    },
    {
      "inputs": [
        {
          "internalType": "address",
          "name": "",
          "type": "address"
        }
      ],
      "name": "isPatient",
      "outputs": [
        {
          "internalType": "bool",
          "name": "",
          "type": "bool"
        }
      ],
      "stateMutability": "view",
      "type": "function",
      "constant": true
    },
    {
      "inputs": [
        {
          "internalType": "address",
          "name": "",
          "type": "address"
        }
      ],
      "name": "medicalRecords",
      "outputs": [
        {
          "internalType": "string",
          "name": "blood_type",
          "type": "string"
        },
        {
          "internalType": "string",
          "name": "height",
          "type": "string"
        },
        {
          "internalType": "string",
          "name": "weight",
          "type": "string"
        },
        {
          "internalType": "string",
          "name": "vision_test",
          "type": "string"
        }
      ],
      "stateMutability": "view",
      "type": "function",
      "constant": true
    },
    {
      "inputs": [
        {
          "internalType": "address",
          "name": "",
          "type": "address"
        }
      ],
      "name": "patients",
      "outputs": [
        {
          "internalType": "string",
          "name": "first_name",
          "type": "string"
        },
        {
          "internalType": "string",
          "name": "last_name",
          "type": "string"
        },
        {
          "internalType": "string",
          "name": "email",
          "type": "string"
        },
        {
          "internalType": "string",
          "name": "wilaya",
          "type": "string"
        },
        {
          "internalType": "string",
          "name": "birth_date",
          "type": "string"
        },
        {
          "internalType": "string",
          "name": "phone",
          "type": "string"
        },
        {
          "internalType": "string",
          "name": "gender",
          "type": "string"
        },
        {
          "internalType": "string",
          "name": "join_date",
          "type": "string"
        }
      ],
      "stateMutability": "view",
      "type": "function",
      "constant": true
    },
    {
      "inputs": [
        {
          "internalType": "address",
          "name": "_doctorAddress",
          "type": "address"
        },
        {
          "internalType": "string",
          "name": "_first_name",
          "type": "string"
        },
        {
          "internalType": "string",
          "name": "_last_name",
          "type": "string"
        },
        {
          "internalType": "string",
          "name": "_email",
          "type": "string"
        },
        {
          "internalType": "string",
          "name": "_specialite",
          "type": "string"
        },
        {
          "internalType": "string",
          "name": "_hospital_name",
          "type": "string"
        },
        {
          "internalType": "string",
          "name": "_wilaya",
          "type": "string"
        },
        {
          "internalType": "string",
          "name": "_birth_date",
          "type": "string"
        },
        {
          "internalType": "string",
          "name": "_phone",
          "type": "string"
        },
        {
          "internalType": "string",
          "name": "_gender",
          "type": "string"
        },
        {
          "internalType": "string",
          "name": "_join_date",
          "type": "string"
        }
      ],
      "name": "createDoctor",
      "outputs": [],
      "stateMutability": "nonpayable",
      "type": "function"
    },
    {
      "inputs": [
        {
          "internalType": "address",
          "name": "_patientAddress",
          "type": "address"
        },
        {
          "internalType": "string",
          "name": "_first_name",
          "type": "string"
        },
        {
          "internalType": "string",
          "name": "_last_name",
          "type": "string"
        },
        {
          "internalType": "string",
          "name": "_email",
          "type": "string"
        },
        {
          "internalType": "string",
          "name": "_wilaya",
          "type": "string"
        },
        {
          "internalType": "string",
          "name": "_birth_date",
          "type": "string"
        },
        {
          "internalType": "string",
          "name": "_phone",
          "type": "string"
        },
        {
          "internalType": "string",
          "name": "_gender",
          "type": "string"
        },
        {
          "internalType": "string",
          "name": "_join_date",
          "type": "string"
        }
      ],
      "name": "createPatient",
      "outputs": [],
      "stateMutability": "nonpayable",
      "type": "function"
    },
    {
      "inputs": [
        {
          "internalType": "address",
          "name": "_patientAddress",
          "type": "address"
        },
        {
          "internalType": "string",
          "name": "_blood_type",
          "type": "string"
        },
        {
          "internalType": "string",
          "name": "_height",
          "type": "string"
        },
        {
          "internalType": "string",
          "name": "_weight",
          "type": "string"
        },
        {
          "internalType": "string",
          "name": "_vision_test",
          "type": "string"
        },
        {
          "internalType": "string[]",
          "name": "_medical_history",
          "type": "string[]"
        },
        {
          "internalType": "string[]",
          "name": "_diagnostic_tests",
          "type": "string[]"
        },
        {
          "internalType": "string[]",
          "name": "_treatments",
          "type": "string[]"
        }
      ],
      "name": "createMedicalRecord",
      "outputs": [],
      "stateMutability": "nonpayable",
      "type": "function"
    },
    {
      "inputs": [],
      "name": "getAllDoctorAddresses",
      "outputs": [
        {
          "internalType": "address[]",
          "name": "",
          "type": "address[]"
        }
      ],
      "stateMutability": "view",
      "type": "function",
      "constant": true
    },
    {
      "inputs": [],
      "name": "getAllPatientAddresses",
      "outputs": [
        {
          "internalType": "address[]",
          "name": "",
          "type": "address[]"
        }
      ],
      "stateMutability": "view",
      "type": "function",
      "constant": true
    },
    {
      "inputs": [
        {
          "internalType": "address",
          "name": "_adr",
          "type": "address"
        }
      ],
      "name": "getDoctorinfo",
      "outputs": [
        {
          "components": [
            {
              "internalType": "string",
              "name": "first_name",
              "type": "string"
            },
            {
              "internalType": "string",
              "name": "last_name",
              "type": "string"
            },
            {
              "internalType": "string",
              "name": "email",
              "type": "string"
            },
            {
              "internalType": "string",
              "name": "specialite",
              "type": "string"
            },
            {
              "internalType": "string",
              "name": "hospital_name",
              "type": "string"
            },
            {
              "internalType": "string",
              "name": "wilaya",
              "type": "string"
            },
            {
              "internalType": "string",
              "name": "birth_date",
              "type": "string"
            },
            {
              "internalType": "string",
              "name": "phone",
              "type": "string"
            },
            {
              "internalType": "string",
              "name": "gender",
              "type": "string"
            },
            {
              "internalType": "string",
              "name": "join_date",
              "type": "string"
            }
          ],
          "internalType": "struct Contract.Doctor",
          "name": "",
          "type": "tuple"
        }
      ],
      "stateMutability": "view",
      "type": "function",
      "constant": true
    },
    {
      "inputs": [
        {
          "internalType": "address",
          "name": "_adr",
          "type": "address"
        }
      ],
      "name": "getPatieninfo",
      "outputs": [
        {
          "components": [
            {
              "internalType": "string",
              "name": "first_name",
              "type": "string"
            },
            {
              "internalType": "string",
              "name": "last_name",
              "type": "string"
            },
            {
              "internalType": "string",
              "name": "email",
              "type": "string"
            },
            {
              "internalType": "string",
              "name": "wilaya",
              "type": "string"
            },
            {
              "internalType": "string",
              "name": "birth_date",
              "type": "string"
            },
            {
              "internalType": "string",
              "name": "phone",
              "type": "string"
            },
            {
              "internalType": "string",
              "name": "gender",
              "type": "string"
            },
            {
              "internalType": "string",
              "name": "join_date",
              "type": "string"
            }
          ],
          "internalType": "struct Contract.Patient",
          "name": "",
          "type": "tuple"
        }
      ],
      "stateMutability": "view",
      "type": "function",
      "constant": true
    },
    {
      "inputs": [
        {
          "internalType": "address",
          "name": "_adr",
          "type": "address"
        }
      ],
      "name": "getMedicalRecordinfo",
      "outputs": [
        {
          "components": [
            {
              "internalType": "string",
              "name": "blood_type",
              "type": "string"
            },
            {
              "internalType": "string",
              "name": "height",
              "type": "string"
            },
            {
              "internalType": "string",
              "name": "weight",
              "type": "string"
            },
            {
              "internalType": "string",
              "name": "vision_test",
              "type": "string"
            },
            {
              "internalType": "string[]",
              "name": "medical_history",
              "type": "string[]"
            },
            {
              "internalType": "string[]",
              "name": "diagnostic_tests",
              "type": "string[]"
            },
            {
              "internalType": "string[]",
              "name": "treatments",
              "type": "string[]"
            }
          ],
          "internalType": "struct Contract.MedicalRecord",
          "name": "",
          "type": "tuple"
        }
      ],
      "stateMutability": "view",
      "type": "function",
      "constant": true
    },
    {
      "inputs": [],
      "name": "getDoctorsCount",
      "outputs": [
        {
          "internalType": "uint256",
          "name": "",
          "type": "uint256"
        }
      ],
      "stateMutability": "view",
      "type": "function",
      "constant": true
    },
    {
      "inputs": [],
      "name": "getPatiensCount",
      "outputs": [
        {
          "internalType": "uint256",
          "name": "",
          "type": "uint256"
        }
      ],
      "stateMutability": "view",
      "type": "function",
      "constant": true
    },
    {
      "inputs": [
        {
          "internalType": "address",
          "name": "_doctor_address",
          "type": "address"
        }
      ],
      "name": "approveDoctor",
      "outputs": [],
      "stateMutability": "nonpayable",
      "type": "function"
    },
    {
      "inputs": [
        {
          "internalType": "address",
          "name": "_doctor_address",
          "type": "address"
        }
      ],
      "name": "disapproveDoctor",
      "outputs": [],
      "stateMutability": "nonpayable",
      "type": "function"
    },
    {
      "inputs": [],
      "name": "getMyDoctors",
      "outputs": [
        {
          "internalType": "address[]",
          "name": "",
          "type": "address[]"
        }
      ],
      "stateMutability": "view",
      "type": "function",
      "constant": true
    },
    {
      "inputs": [],
      "name": "getMyPatientsCount",
      "outputs": [
        {
          "internalType": "uint256",
          "name": "",
          "type": "uint256"
        }
      ],
      "stateMutability": "view",
      "type": "function",
      "constant": true
    },
    {
      "inputs": [],
      "name": "getAddressesOfMyPatiens",
      "outputs": [
        {
          "internalType": "address[]",
          "name": "",
          "type": "address[]"
        }
      ],
      "stateMutability": "view",
      "type": "function",
      "constant": true
    },
    {
      "inputs": [],
      "name": "whoIam",
      "outputs": [
        {
          "internalType": "address",
          "name": "",
          "type": "address"
        }
      ],
      "stateMutability": "view",
      "type": "function",
      "constant": true
    },
    {
      "inputs": [
        {
          "internalType": "address",
          "name": "_companyAddress",
          "type": "address"
        },
        {
          "internalType": "string",
          "name": "_company_name",
          "type": "string"
        },
        {
          "internalType": "string",
          "name": "_location",
          "type": "string"
        },
        {
          "internalType": "string",
          "name": "_number",
          "type": "string"
        },
        {
          "internalType": "string",
          "name": "_email",
          "type": "string"
        },
        {
          "internalType": "string",
          "name": "_website",
          "type": "string"
        },
        {
          "internalType": "string",
          "name": "_description",
          "type": "string"
        }
      ],
      "name": "CreateCompany",
      "outputs": [],
      "stateMutability": "nonpayable",
      "type": "function"
    },
    {
      "inputs": [
        {
          "internalType": "address",
          "name": "_adr",
          "type": "address"
        }
      ],
      "name": "getCompanyinfo",
      "outputs": [
        {
          "components": [
            {
              "internalType": "string",
              "name": "company_name",
              "type": "string"
            },
            {
              "internalType": "string",
              "name": "location",
              "type": "string"
            },
            {
              "internalType": "string",
              "name": "number",
              "type": "string"
            },
            {
              "internalType": "string",
              "name": "email",
              "type": "string"
            },
            {
              "internalType": "string",
              "name": "website",
              "type": "string"
            },
            {
              "internalType": "string",
              "name": "description",
              "type": "string"
            }
          ],
          "internalType": "struct Contract.CompanyAs",
          "name": "",
          "type": "tuple"
        }
      ],
      "stateMutability": "view",
      "type": "function",
      "constant": true
    },
    {
      "inputs": [],
      "name": "getAddressesOfMyCustomers",
      "outputs": [
        {
          "internalType": "address[]",
          "name": "",
          "type": "address[]"
        }
      ],
      "stateMutability": "view",
      "type": "function",
      "constant": true
    },
    {
      "inputs": [
        {
          "internalType": "address",
          "name": "_company_address",
          "type": "address"
        }
      ],
      "name": "allow",
      "outputs": [],
      "stateMutability": "nonpayable",
      "type": "function"
    },
    {
      "inputs": [
        {
          "internalType": "address",
          "name": "_comp_address",
          "type": "address"
        }
      ],
      "name": "disAllow",
      "outputs": [],
      "stateMutability": "nonpayable",
      "type": "function"
    }
  ],
  "bytecode": "0x60806040523480156200001157600080fd5b5060008054600160a060020a031916339081178255815260036020908152604091829020805460ff1916600117905581518083018352600881527f4d6168626f7562690000000000000000000000000000000000000000000000008183015282518084018452600781527f486f757373656d000000000000000000000000000000000000000000000000008184015283518085018552601181527f486f757373656d40676d61696c2e636f6d0000000000000000000000000000008185015284518086018652600a8082527f47656e6572616c69737400000000000000000000000000000000000000000000828701528651808801885260048082527f5553544f00000000000000000000000000000000000000000000000000000000828901528851808a018a528181527f4f72616e00000000000000000000000000000000000000000000000000000000818a01528951808b018b528481527f30322f30352f3230303000000000000000000000000000000000000000000000818b01528a51808c018c529485527f3037383839393636353500000000000000000000000000000000000000000000858b01528a51808c018c528381527f4d616c6500000000000000000000000000000000000000000000000000000000818c01528b51808d01909c52928b527f3230323300000000000000000000000000000000000000000000000000000000998b0199909952620002519973ff640b68f773729e8a352cca92888dc3535db90d9993949193929064010000000062000b41810204565b6200049b73695553ff7eaadb81bceb8deee24118dc36c486af6040518060400160405280600781526020017f4665726b616368000000000000000000000000000000000000000000000000008152506040518060400160405280600481526020017f5a616b69000000000000000000000000000000000000000000000000000000008152506040518060400160405280600e81526020017f7a616b6940676d61696c2e636f6d0000000000000000000000000000000000008152506040518060400160405280600b81526020017f63617264696f6c6f6775650000000000000000000000000000000000000000008152506040518060400160405280600381526020017f53424100000000000000000000000000000000000000000000000000000000008152506040518060400160405280600981526020017f454c2d42415941444800000000000000000000000000000000000000000000008152506040518060400160405280600a81526020017f31322f31322f32303030000000000000000000000000000000000000000000008152506040518060400160405280600a81526020017f30373838393936363535000000000000000000000000000000000000000000008152506040518060400160405280600481526020017f4d616c65000000000000000000000000000000000000000000000000000000008152506040518060400160405280600481526020017f323032320000000000000000000000000000000000000000000000000000000081525062000b41640100000000026401000000009004565b62000679739fe7af5782d9bf27ecc304ee6ed34c0ff97b9ee06040518060400160405280600781526020017f42656c6861646a000000000000000000000000000000000000000000000000008152506040518060400160405280600b81526020017f4d6f68616d656420416c690000000000000000000000000000000000000000008152506040518060400160405280601581526020017f626c686a2e6d6564616c6940676d61696c2e636f6d00000000000000000000008152506040518060400160405280600a81526020017f20456c2d426179616468000000000000000000000000000000000000000000008152506040518060400160405280600a81526020017f32352f31302f32303030000000000000000000000000000000000000000000008152506040518060400160405280600a81526020017f30373838393936363535000000000000000000000000000000000000000000008152506040518060400160405280600481526020017f6d616c65000000000000000000000000000000000000000000000000000000008152506040518060400160405280600481526020017f323032330000000000000000000000000000000000000000000000000000000081525062000d9c640100000000026401000000009004565b6200085773b5b6d0e2c523ec14618d44f9afb73195414f87866040518060400160405280600681526020017f4169626f757400000000000000000000000000000000000000000000000000008152506040518060400160405280600881526020017f53696461686d65640000000000000000000000000000000000000000000000008152506040518060400160405280601381526020017f7369646f75323340686f746d61696c2e636f6d000000000000000000000000008152506040518060400160405280600681526020017f20536169646100000000000000000000000000000000000000000000000000008152506040518060400160405280600a81526020017f31302f31312f32303031000000000000000000000000000000000000000000008152506040518060400160405280600a81526020017f30373838393936363535000000000000000000000000000000000000000000008152506040518060400160405280600481526020017f6d616c65000000000000000000000000000000000000000000000000000000008152506040518060400160405280600481526020017f323032300000000000000000000000000000000000000000000000000000000081525062000d9c640100000000026401000000009004565b620009c9737cc31808e194ebb20429df1fcc8056aa180628356040518060400160405280600481526020017f434e4153000000000000000000000000000000000000000000000000000000008152506040518060400160405280600981526020017f454c2d42415941444800000000000000000000000000000000000000000000008152506040518060400160405280600781526020017f30343931323334000000000000000000000000000000000000000000000000008152506040518060400160405280600d81526020017f636e6173406d61696c2e636f6d000000000000000000000000000000000000008152506040518060400160405280600c81526020017f7777772e636e61732e636f6d00000000000000000000000000000000000000008152506040518060400160405280601381526020017f6173737572616e636520636f6d70616e7920310000000000000000000000000081525062000fa6640100000000026401000000009004565b62000b3b73a3bd68241a59379646109a7b399450d3e8da1fd86040518060400160405280600681526020017f4341534e4f5300000000000000000000000000000000000000000000000000008152506040518060400160405280600581526020017f53414944410000000000000000000000000000000000000000000000000000008152506040518060400160405280600781526020017f30343931323334000000000000000000000000000000000000000000000000008152506040518060400160405280600f81526020017f6361736e6f73406d61696c2e636f6d00000000000000000000000000000000008152506040518060400160405280600e81526020017f7777772e6361736e6f732e636f6d0000000000000000000000000000000000008152506040518060400160405280601381526020017f6173737572616e636520636f6d70616e7920320000000000000000000000000081525062000fa6640100000000026401000000009004565b6200124e565b600054600160a060020a0316331462000bd0576040517f08c379a0000000000000000000000000000000000000000000000000000000008152602060048201526025602482015260008051602062005af683398151915260448201527f6174696f6e00000000000000000000000000000000000000000000000000000060648201526084015b60405180910390fd5b60006040518061014001604052808c81526020018b81526020018a815260200189815260200188815260200187815260200186815260200185815260200184815260200183815250905080600660008e600160a060020a0316600160a060020a03168152602001908152602001600020600082015181600001908162000c5791906200117b565b506020820151600182019062000c6e90826200117b565b506040820151600282019062000c8590826200117b565b506060820151600382019062000c9c90826200117b565b506080820151600482019062000cb390826200117b565b5060a0820151600582019062000cca90826200117b565b5060c0820151600682019062000ce190826200117b565b5060e0820151600782019062000cf890826200117b565b50610100820151600882019062000d1090826200117b565b50610120820151600982019062000d2890826200117b565b505050600160a060020a03909b1660008181526001602081905260408220805460ff1916821790556004805491820181559091527f8a35acfbc15ff81a39ae7d344fd709f28e8600b4aa8c65c6b64bfe7fe36bd19b018054600160a060020a03191690911790555050505050505050505050565b600054600160a060020a0316331462000e27576040517f08c379a0000000000000000000000000000000000000000000000000000000008152602060048201526025602482015260008051602062005af683398151915260448201527f6174696f6e000000000000000000000000000000000000000000000000000000606482015260840162000bc7565b604080516101008101825289815260208082018a9052818301899052606082018890526080820187905260a0820186905260c0820185905260e08201849052600160a060020a038c1660009081526007909152919091208151829190819062000e9190826200117b565b506020820151600182019062000ea890826200117b565b506040820151600282019062000ebf90826200117b565b506060820151600382019062000ed690826200117b565b506080820151600482019062000eed90826200117b565b5060a0820151600582019062000f0490826200117b565b5060c0820151600682019062000f1b90826200117b565b5060e0820151600782019062000f3290826200117b565b505050600160a060020a039099166000818152600260205260408120805460ff191660019081179091556005805491820181559091527f036b6384b5eca791c62761152d0c79bb0604c104a5fb6f4eb0703f3154bb3db0018054600160a060020a0319169091179055505050505050505050565b6040805160c0810182528781526020808201889052818301879052606082018690526080820185905260a08201849052600160a060020a038a166000908152600d90915291909120815182919081906200100190826200117b565b50602082015160018201906200101890826200117b565b50604082015160028201906200102f90826200117b565b50606082015160038201906200104690826200117b565b50608082015160048201906200105d90826200117b565b5060a082015160058201906200107490826200117b565b505050600160a060020a039097166000908152600c60205260409020805460ff1916600117905550505050505050565b7f4e487b7100000000000000000000000000000000000000000000000000000000600052604160045260246000fd5b600281046001821680620010e857607f821691505b60208210810362001122577f4e487b7100000000000000000000000000000000000000000000000000000000600052602260045260246000fd5b50919050565b601f82111562001176576000818152602081206020601f86010481016020861015620011515750805b6020601f860104820191505b8181101562001172578281556001016200115d565b5050505b505050565b815167ffffffffffffffff811115620011985762001198620010a4565b620011b081620011a98454620010d3565b8462001128565b602080601f831160018114620011ec5760008415620011cf5750858301515b60028086026008870290910a600019041982161786555062001172565b600085815260208120601f198616915b828110156200121d57888601518255948401946001909101908401620011fc565b50858210156200123e57878501516008601f88160260020a60001904191681555b5050505050600202600101905550565b614898806200125e6000396000f3fe608060405234801561001057600080fd5b50600436106101ec576000357c010000000000000000000000000000000000000000000000000000000090048063965f80b911610121578063b0865bbe116100bf578063dddf9d611161008e578063dddf9d6114610475578063de9151a21461047d578063f851a44014610485578063ff9913e81461049857600080fd5b8063b0865bbe14610424578063b76d371614610447578063b8f357841461044f578063cf8aacdd1461046257600080fd5b80639c395bfa116100fb5780639c395bfa146103b55780639f1bd194146103d5578063a3287d83146103e8578063a9583c22146103fb57600080fd5b8063965f80b91461035257806396bf254814610372578063996440c61461039257600080fd5b8063587fb7a31161018e57806383a5c2fa1161016857806383a5c2fa146102fa57806389ec3a6a146103145780638f9c79ed1461032757806392be3e651461034a57600080fd5b8063587fb7a3146102ca5780636160a5c2146102df5780636c13139d146102f257600080fd5b80631a33a9fc116101ca5780631a33a9fc1461025a57806324d7806c1461026f57806331357af2146102a25780633430efa3146102aa57600080fd5b80630869cfbc146101f157806308ff78f714610221578063106d617014610237575b600080fd5b6102046101ff3660046138cf565b6104ab565b604051610218989796959493929190613937565b60405180910390f35b61022961092b565b604051908152602001610218565b61024a6102453660046138cf565b61097a565b60405161021894939291906139e6565b61026d610268366004613b96565b610bc2565b005b61029261027d3660046138cf565b60036020526000908152604090205460ff1681565b6040519015158152602001610218565b600454610229565b6102bd6102b83660046138cf565b610d86565b6040516102189190613d19565b6102d2611338565b6040516102189190613def565b61026d6102ed3660046138cf565b61139a565b6102d2611593565b335b604051600160a060020a039091168152602001610218565b61026d6103223660046138cf565b6116d8565b6102926103353660046138cf565b60026020526000908152604090205460ff1681565b6102d26118ab565b6103656103603660046138cf565b61190b565b6040516102189190613e3c565b6103856103803660046138cf565b611cd9565b6040516102189190613eeb565b6102926103a03660046138cf565b60016020526000908152604090205460ff1681565b6103c86103c33660046138cf565b612152565b6040516102189190613fe0565b61026d6103e3366004614108565b6126fd565b61026d6103f63660046142b3565b6128ef565b61040e6104093660046138cf565b6129e1565b6040516102189a999897969594939291906143ba565b6102926104323660046138cf565b600c6020526000908152604090205460ff1681565b600554610229565b61026d61045d366004614495565b612f7d565b61026d6104703660046138cf565b613126565b6102d2613275565b6102d26132de565b6000546102fc90600160a060020a031681565b61026d6104a63660046138cf565b61337a565b6007602052600090815260409020805481906104c6906145e6565b80601f01602080910402602001604051908101604052809291908181526020018280546104f2906145e6565b801561053f5780601f106105145761010080835404028352916020019161053f565b820191906000526020600020905b81548152906001019060200180831161052257829003601f168201915b505050505090806001018054610554906145e6565b80601f0160208091040260200160405190810160405280929190818152602001828054610580906145e6565b80156105cd5780601f106105a2576101008083540402835291602001916105cd565b820191906000526020600020905b8154815290600101906020018083116105b057829003601f168201915b5050505050908060020180546105e2906145e6565b80601f016020809104026020016040519081016040528092919081815260200182805461060e906145e6565b801561065b5780601f106106305761010080835404028352916020019161065b565b820191906000526020600020905b81548152906001019060200180831161063e57829003601f168201915b505050505090806003018054610670906145e6565b80601f016020809104026020016040519081016040528092919081815260200182805461069c906145e6565b80156106e95780601f106106be576101008083540402835291602001916106e9565b820191906000526020600020905b8154815290600101906020018083116106cc57829003601f168201915b5050505050908060040180546106fe906145e6565b80601f016020809104026020016040519081016040528092919081815260200182805461072a906145e6565b80156107775780601f1061074c57610100808354040283529160200191610777565b820191906000526020600020905b81548152906001019060200180831161075a57829003601f168201915b50505050509080600501805461078c906145e6565b80601f01602080910402602001604051908101604052809291908181526020018280546107b8906145e6565b80156108055780601f106107da57610100808354040283529160200191610805565b820191906000526020600020905b8154815290600101906020018083116107e857829003601f168201915b50505050509080600601805461081a906145e6565b80601f0160208091040260200160405190810160405280929190818152602001828054610846906145e6565b80156108935780601f1061086857610100808354040283529160200191610893565b820191906000526020600020905b81548152906001019060200180831161087657829003601f168201915b5050505050908060070180546108a8906145e6565b80601f01602080910402602001604051908101604052809291908181526020018280546108d4906145e6565b80156109215780601f106108f657610100808354040283529160200191610921565b820191906000526020600020905b81548152906001019060200180831161090457829003601f168201915b5050505050905088565b3360009081526001602052604081205460ff166109665760405160e560020a62461bcd02815260040161095d90614623565b60405180910390fd5b50336000908152600a602052604090205490565b600860205260009081526040902080548190610995906145e6565b80601f01602080910402602001604051908101604052809291908181526020018280546109c1906145e6565b8015610a0e5780601f106109e357610100808354040283529160200191610a0e565b820191906000526020600020905b8154815290600101906020018083116109f157829003601f168201915b505050505090806001018054610a23906145e6565b80601f0160208091040260200160405190810160405280929190818152602001828054610a4f906145e6565b8015610a9c5780601f10610a7157610100808354040283529160200191610a9c565b820191906000526020600020905b815481529060010190602001808311610a7f57829003601f168201915b505050505090806002018054610ab1906145e6565b80601f0160208091040260200160405190810160405280929190818152602001828054610add906145e6565b8015610b2a5780601f10610aff57610100808354040283529160200191610b2a565b820191906000526020600020905b815481529060010190602001808311610b0d57829003601f168201915b505050505090806003018054610b3f906145e6565b80601f0160208091040260200160405190810160405280929190818152602001828054610b6b906145e6565b8015610bb85780601f10610b8d57610100808354040283529160200191610bb8565b820191906000526020600020905b815481529060010190602001808311610b9b57829003601f168201915b5050505050905084565b3360009081526001602052604090205460ff16610bf45760405160e560020a62461bcd02815260040161095d90614623565b600160a060020a03881660009081526002602052604090205460ff16610c855760405160e560020a62461bcd02815260206004820152602f60248201527f54686973206973206e6f7420612070617469656e74206164647265737320776c60448201527f61206e6f74207265676973747265640000000000000000000000000000000000606482015260840161095d565b6040805160e0810182528881526020808201899052818301889052606082018790526080820186905260a0820185905260c08201849052600160a060020a038b16600090815260089091529190912081518291908190610ce590826146ce565b5060208201516001820190610cfa90826146ce565b5060408201516002820190610d0f90826146ce565b5060608201516003820190610d2490826146ce565b5060808201518051610d40916004840191602090910190613780565b5060a08201518051610d5c916005840191602090910190613780565b5060c08201518051610d78916006840191602090910190613780565b505050505050505050505050565b610dc66040518060e00160405280606081526020016060815260200160608152602001606081526020016060815260200160608152602001606081525090565b336000908152600960209081526040808320600160a060020a038616845290915290205460ff1615610e3d5760405160e560020a62461bcd02815260206004820152601760248201527f54686973206e6f7420796f75722070617469656e742021000000000000000000604482015260640161095d565b600160a060020a03821660009081526008602052604090819020815160e08101909252805482908290610e6f906145e6565b80601f0160208091040260200160405190810160405280929190818152602001828054610e9b906145e6565b8015610ee85780601f10610ebd57610100808354040283529160200191610ee8565b820191906000526020600020905b815481529060010190602001808311610ecb57829003601f168201915b50505050508152602001600182018054610f01906145e6565b80601f0160208091040260200160405190810160405280929190818152602001828054610f2d906145e6565b8015610f7a5780601f10610f4f57610100808354040283529160200191610f7a565b820191906000526020600020905b815481529060010190602001808311610f5d57829003601f168201915b50505050508152602001600282018054610f93906145e6565b80601f0160208091040260200160405190810160405280929190818152602001828054610fbf906145e6565b801561100c5780601f10610fe15761010080835404028352916020019161100c565b820191906000526020600020905b815481529060010190602001808311610fef57829003601f168201915b50505050508152602001600382018054611025906145e6565b80601f0160208091040260200160405190810160405280929190818152602001828054611051906145e6565b801561109e5780601f106110735761010080835404028352916020019161109e565b820191906000526020600020905b81548152906001019060200180831161108157829003601f168201915b5050505050815260200160048201805480602002602001604051908101604052809291908181526020016000905b828210156111785783829060005260206000200180546110eb906145e6565b80601f0160208091040260200160405190810160405280929190818152602001828054611117906145e6565b80156111645780601f1061113957610100808354040283529160200191611164565b820191906000526020600020905b81548152906001019060200180831161114757829003601f168201915b5050505050815260200190600101906110cc565b50505050815260200160058201805480602002602001604051908101604052809291908181526020016000905b828210156112515783829060005260206000200180546111c4906145e6565b80601f01602080910402602001604051908101604052809291908181526020018280546111f0906145e6565b801561123d5780601f106112125761010080835404028352916020019161123d565b820191906000526020600020905b81548152906001019060200180831161122057829003601f168201915b5050505050815260200190600101906111a5565b50505050815260200160068201805480602002602001604051908101604052809291908181526020016000905b8282101561132a57838290600052602060002001805461129d906145e6565b80601f01602080910402602001604051908101604052809291908181526020018280546112c9906145e6565b80156113165780601f106112eb57610100808354040283529160200191611316565b820191906000526020600020905b8154815290600101906020018083116112f957829003601f168201915b50505050508152602001906001019061127e565b505050915250909392505050565b6060600480548060200260200160405190810160405280929190818152602001828054801561139057602002820191906000526020600020905b8154600160a060020a03168152600190910190602001808311611372575b5050505050905090565b3360009081526002602052604090205460ff166114225760405160e560020a62461bcd02815260206004820152602560248201527f4f6e6c792050617469656e742063616e2061646420617070726f76656420446f60448201527f7263746f72000000000000000000000000000000000000000000000000000000606482015260840161095d565b600160a060020a03811660009081526001602052604090205460ff166114b35760405160e560020a62461bcd02815260206004820152602760248201527f54686973206164647265737320646f65736e27742062656c6f6e6720746f206160448201527f20446f63746f7200000000000000000000000000000000000000000000000000606482015260840161095d565b336000908152600960209081526040808320600160a060020a038516845290915290205460ff161561152a5760405160e560020a62461bcd02815260206004820152601c60248201527f596f7520616c726561647920617070726f7665207468697320646f6300000000604482015260640161095d565b336000818152600960209081526040808320600160a060020a03959095168352938152838220805460ff19166001908117909155600a82529382208054948501815582529020909101805473ffffffffffffffffffffffffffffffffffffffff19169091179055565b3360009081526002602052604090205460609060ff1661161e5760405160e560020a62461bcd02815260206004820152602760248201527f4f6e6c792050617469656e742063616e20706572666f726d2074686973206f7060448201527f65726174696f6e00000000000000000000000000000000000000000000000000606482015260840161095d565b6040805160008082526020820190925290611637611338565b905060005b81518110156116d057336000908152600960205260408120600480549192918490811061166b5761166b614794565b6000918252602080832090910154600160a060020a0316835282019290925260400190205460ff16156116be576116bb838383815181106116ae576116ae614794565b6020026020010151613480565b92505b806116c8816147c6565b91505061163c565b509091505090565b600160a060020a0381166000908152600a602090815260408083208054825181850281018501909352808352919290919083018282801561174257602002820191906000526020600020905b8154600160a060020a03168152600190910190602001808311611724575b5050336000908152600960209081526040808320600160a060020a038a1684529091529020549394505060ff90921691506117c490505760405160e560020a62461bcd02815260206004820152600c60248201527f4e6f7420617070726f7665640000000000000000000000000000000000000000604482015260640161095d565b6117ce338261357d565b6118435760405160e560020a62461bcd02815260206004820152602f60248201527f446f65736e277420657869737420696e204c697374206f662070617469656e7360448201527f206f66207468617420446f63746f720000000000000000000000000000000000606482015260840161095d565b336000818152600960209081526040808320600160a060020a03871684529091529020805460ff1916905561187890826135e2565b600160a060020a0383166000908152600a6020908152604090912082519293506118a69290918401906137d6565b505050565b6060600580548060200260200160405190810160405280929190818152602001828054801561139057602002820191906000526020600020908154600160a060020a03168152600190910190602001808311611372575050505050905090565b6119446040518060c001604052806060815260200160608152602001606081526020016060815260200160608152602001606081525090565b600160a060020a0382166000908152600d602052604090819020815160c08101909252805482908290611976906145e6565b80601f01602080910402602001604051908101604052809291908181526020018280546119a2906145e6565b80156119ef5780601f106119c4576101008083540402835291602001916119ef565b820191906000526020600020905b8154815290600101906020018083116119d257829003601f168201915b50505050508152602001600182018054611a08906145e6565b80601f0160208091040260200160405190810160405280929190818152602001828054611a34906145e6565b8015611a815780601f10611a5657610100808354040283529160200191611a81565b820191906000526020600020905b815481529060010190602001808311611a6457829003601f168201915b50505050508152602001600282018054611a9a906145e6565b80601f0160208091040260200160405190810160405280929190818152602001828054611ac6906145e6565b8015611b135780601f10611ae857610100808354040283529160200191611b13565b820191906000526020600020905b815481529060010190602001808311611af657829003601f168201915b50505050508152602001600382018054611b2c906145e6565b80601f0160208091040260200160405190810160405280929190818152602001828054611b58906145e6565b8015611ba55780601f10611b7a57610100808354040283529160200191611ba5565b820191906000526020600020905b815481529060010190602001808311611b8857829003601f168201915b50505050508152602001600482018054611bbe906145e6565b80601f0160208091040260200160405190810160405280929190818152602001828054611bea906145e6565b8015611c375780601f10611c0c57610100808354040283529160200191611c37565b820191906000526020600020905b815481529060010190602001808311611c1a57829003601f168201915b50505050508152602001600582018054611c50906145e6565b80601f0160208091040260200160405190810160405280929190818152602001828054611c7c906145e6565b8015611cc95780601f10611c9e57610100808354040283529160200191611cc9565b820191906000526020600020905b815481529060010190602001808311611cac57829003601f168201915b5050505050815250509050919050565b611d2160405180610100016040528060608152602001606081526020016060815260200160608152602001606081526020016060815260200160608152602001606081525090565b600160a060020a0382166000908152600760205260409081902081516101008101909252805482908290611d54906145e6565b80601f0160208091040260200160405190810160405280929190818152602001828054611d80906145e6565b8015611dcd5780601f10611da257610100808354040283529160200191611dcd565b820191906000526020600020905b815481529060010190602001808311611db057829003601f168201915b50505050508152602001600182018054611de6906145e6565b80601f0160208091040260200160405190810160405280929190818152602001828054611e12906145e6565b8015611e5f5780601f10611e3457610100808354040283529160200191611e5f565b820191906000526020600020905b815481529060010190602001808311611e4257829003601f168201915b50505050508152602001600282018054611e78906145e6565b80601f0160208091040260200160405190810160405280929190818152602001828054611ea4906145e6565b8015611ef15780601f10611ec657610100808354040283529160200191611ef1565b820191906000526020600020905b815481529060010190602001808311611ed457829003601f168201915b50505050508152602001600382018054611f0a906145e6565b80601f0160208091040260200160405190810160405280929190818152602001828054611f36906145e6565b8015611f835780601f10611f5857610100808354040283529160200191611f83565b820191906000526020600020905b815481529060010190602001808311611f6657829003601f168201915b50505050508152602001600482018054611f9c906145e6565b80601f0160208091040260200160405190810160405280929190818152602001828054611fc8906145e6565b80156120155780601f10611fea57610100808354040283529160200191612015565b820191906000526020600020905b815481529060010190602001808311611ff857829003601f168201915b5050505050815260200160058201805461202e906145e6565b80601f016020809104026020016040519081016040528092919081815260200182805461205a906145e6565b80156120a75780601f1061207c576101008083540402835291602001916120a7565b820191906000526020600020905b81548152906001019060200180831161208a57829003601f168201915b505050505081526020016006820180546120c0906145e6565b80601f01602080910402602001604051908101604052809291908181526020018280546120ec906145e6565b80156121395780601f1061210e57610100808354040283529160200191612139565b820191906000526020600020905b81548152906001019060200180831161211c57829003601f168201915b50505050508152602001600782018054611c50906145e6565b6121a8604051806101400160405280606081526020016060815260200160608152602001606081526020016060815260200160608152602001606081526020016060815260200160608152602001606081525090565b600160a060020a03821660009081526006602052604090819020815161014081019092528054829082906121db906145e6565b80601f0160208091040260200160405190810160405280929190818152602001828054612207906145e6565b80156122545780601f1061222957610100808354040283529160200191612254565b820191906000526020600020905b81548152906001019060200180831161223757829003601f168201915b5050505050815260200160018201805461226d906145e6565b80601f0160208091040260200160405190810160405280929190818152602001828054612299906145e6565b80156122e65780601f106122bb576101008083540402835291602001916122e6565b820191906000526020600020905b8154815290600101906020018083116122c957829003601f168201915b505050505081526020016002820180546122ff906145e6565b80601f016020809104026020016040519081016040528092919081815260200182805461232b906145e6565b80156123785780601f1061234d57610100808354040283529160200191612378565b820191906000526020600020905b81548152906001019060200180831161235b57829003601f168201915b50505050508152602001600382018054612391906145e6565b80601f01602080910402602001604051908101604052809291908181526020018280546123bd906145e6565b801561240a5780601f106123df5761010080835404028352916020019161240a565b820191906000526020600020905b8154815290600101906020018083116123ed57829003601f168201915b50505050508152602001600482018054612423906145e6565b80601f016020809104026020016040519081016040528092919081815260200182805461244f906145e6565b801561249c5780601f106124715761010080835404028352916020019161249c565b820191906000526020600020905b81548152906001019060200180831161247f57829003601f168201915b505050505081526020016005820180546124b5906145e6565b80601f01602080910402602001604051908101604052809291908181526020018280546124e1906145e6565b801561252e5780601f106125035761010080835404028352916020019161252e565b820191906000526020600020905b81548152906001019060200180831161251157829003601f168201915b50505050508152602001600682018054612547906145e6565b80601f0160208091040260200160405190810160405280929190818152602001828054612573906145e6565b80156125c05780601f10612595576101008083540402835291602001916125c0565b820191906000526020600020905b8154815290600101906020018083116125a357829003601f168201915b505050505081526020016007820180546125d9906145e6565b80601f0160208091040260200160405190810160405280929190818152602001828054612605906145e6565b80156126525780601f1061262757610100808354040283529160200191612652565b820191906000526020600020905b81548152906001019060200180831161263557829003601f168201915b5050505050815260200160088201805461266b906145e6565b80601f0160208091040260200160405190810160405280929190818152602001828054612697906145e6565b80156126e45780601f106126b9576101008083540402835291602001916126e4565b820191906000526020600020905b8154815290600101906020018083116126c757829003601f168201915b50505050508152602001600982018054611c50906145e6565b600054600160a060020a0316331461272a5760405160e560020a62461bcd02815260040161095d906147df565b60006040518061014001604052808c81526020018b81526020018a815260200189815260200188815260200187815260200186815260200185815260200184815260200183815250905080600660008e600160a060020a0316600160a060020a0316815260200190815260200160002060008201518160000190816127af91906146ce565b50602082015160018201906127c490826146ce565b50604082015160028201906127d990826146ce565b50606082015160038201906127ee90826146ce565b506080820151600482019061280390826146ce565b5060a0820151600582019061281890826146ce565b5060c0820151600682019061282d90826146ce565b5060e0820151600782019061284290826146ce565b50610100820151600882019061285890826146ce565b50610120820151600982019061286e90826146ce565b505050600160a060020a03909b1660008181526001602081905260408220805460ff1916821790556004805491820181559091527f8a35acfbc15ff81a39ae7d344fd709f28e8600b4aa8c65c6b64bfe7fe36bd19b01805473ffffffffffffffffffffffffffffffffffffffff191690911790555050505050505050505050565b6040805160c0810182528781526020808201889052818301879052606082018690526080820185905260a08201849052600160a060020a038a166000908152600d909152919091208151829190819061294890826146ce565b506020820151600182019061295d90826146ce565b506040820151600282019061297290826146ce565b506060820151600382019061298790826146ce565b506080820151600482019061299c90826146ce565b5060a082015160058201906129b190826146ce565b505050600160a060020a039097166000908152600c60205260409020805460ff1916600117905550505050505050565b6006602052600090815260409020805481906129fc906145e6565b80601f0160208091040260200160405190810160405280929190818152602001828054612a28906145e6565b8015612a755780601f10612a4a57610100808354040283529160200191612a75565b820191906000526020600020905b815481529060010190602001808311612a5857829003601f168201915b505050505090806001018054612a8a906145e6565b80601f0160208091040260200160405190810160405280929190818152602001828054612ab6906145e6565b8015612b035780601f10612ad857610100808354040283529160200191612b03565b820191906000526020600020905b815481529060010190602001808311612ae657829003601f168201915b505050505090806002018054612b18906145e6565b80601f0160208091040260200160405190810160405280929190818152602001828054612b44906145e6565b8015612b915780601f10612b6657610100808354040283529160200191612b91565b820191906000526020600020905b815481529060010190602001808311612b7457829003601f168201915b505050505090806003018054612ba6906145e6565b80601f0160208091040260200160405190810160405280929190818152602001828054612bd2906145e6565b8015612c1f5780601f10612bf457610100808354040283529160200191612c1f565b820191906000526020600020905b815481529060010190602001808311612c0257829003601f168201915b505050505090806004018054612c34906145e6565b80601f0160208091040260200160405190810160405280929190818152602001828054612c60906145e6565b8015612cad5780601f10612c8257610100808354040283529160200191612cad565b820191906000526020600020905b815481529060010190602001808311612c9057829003601f168201915b505050505090806005018054612cc2906145e6565b80601f0160208091040260200160405190810160405280929190818152602001828054612cee906145e6565b8015612d3b5780601f10612d1057610100808354040283529160200191612d3b565b820191906000526020600020905b815481529060010190602001808311612d1e57829003601f168201915b505050505090806006018054612d50906145e6565b80601f0160208091040260200160405190810160405280929190818152602001828054612d7c906145e6565b8015612dc95780601f10612d9e57610100808354040283529160200191612dc9565b820191906000526020600020905b815481529060010190602001808311612dac57829003601f168201915b505050505090806007018054612dde906145e6565b80601f0160208091040260200160405190810160405280929190818152602001828054612e0a906145e6565b8015612e575780601f10612e2c57610100808354040283529160200191612e57565b820191906000526020600020905b815481529060010190602001808311612e3a57829003601f168201915b505050505090806008018054612e6c906145e6565b80601f0160208091040260200160405190810160405280929190818152602001828054612e98906145e6565b8015612ee55780601f10612eba57610100808354040283529160200191612ee5565b820191906000526020600020905b815481529060010190602001808311612ec857829003601f168201915b505050505090806009018054612efa906145e6565b80601f0160208091040260200160405190810160405280929190818152602001828054612f26906145e6565b8015612f735780601f10612f4857610100808354040283529160200191612f73565b820191906000526020600020905b815481529060010190602001808311612f5657829003601f168201915b505050505090508a565b600054600160a060020a03163314612faa5760405160e560020a62461bcd02815260040161095d906147df565b604080516101008101825289815260208082018a9052818301899052606082018890526080820187905260a0820186905260c0820185905260e08201849052600160a060020a038c1660009081526007909152919091208151829190819061301290826146ce565b506020820151600182019061302790826146ce565b506040820151600282019061303c90826146ce565b506060820151600382019061305190826146ce565b506080820151600482019061306690826146ce565b5060a0820151600582019061307b90826146ce565b5060c0820151600682019061309090826146ce565b5060e082015160078201906130a590826146ce565b505050600160a060020a039099166000818152600260205260408120805460ff191660019081179091556005805491820181559091527f036b6384b5eca791c62761152d0c79bb0604c104a5fb6f4eb0703f3154bb3db001805473ffffffffffffffffffffffffffffffffffffffff19169091179055505050505050505050565b600160a060020a0381166000908152600f602090815260408083208054825181850281018501909352808352919290919083018282801561319057602002820191906000526020600020905b8154600160a060020a03168152600190910190602001808311613172575b5050336000908152600e60209081526040808320600160a060020a038a1684529091529020549394505060ff909216915061321290505760405160e560020a62461bcd02815260206004820152600c60248201527f4e6f7420617070726f7665640000000000000000000000000000000000000000604482015260640161095d565b336000818152600e60209081526040808320600160a060020a03871684529091529020805460ff1916905561324790826135e2565b600160a060020a0383166000908152600f6020908152604090912082519293506118a69290918401906137d6565b336000908152600f602090815260409182902080548351818402810184019094528084526060939283018282801561139057602002820191906000526020600020908154600160a060020a03168152600190910190602001808311611372575050505050905090565b3360009081526001602052604090205460609060ff166133135760405160e560020a62461bcd02815260040161095d90614623565b336000908152600a60209081526040918290208054835181840281018401909452808452909183018282801561139057602002820191906000526020600020908154600160a060020a03168152600190910190602001808311611372575050505050905090565b336000908152600e60209081526040808320600160a060020a038516845290915290205460ff16156134175760405160e560020a62461bcd02815260206004820152603660248201527f596f7520616c726561647920616c6c6f77207468697320636f6d7020746f207360448201527f656520796f7572206d65646963616c207265636f726400000000000000000000606482015260840161095d565b336000818152600e60209081526040808320600160a060020a03959095168352938152838220805460ff19166001908117909155600f82529382208054948501815582529020909101805473ffffffffffffffffffffffffffffffffffffffff19169091179055565b6060600083516001613492919061483c565b905060008167ffffffffffffffff8111156134af576134af613a3e565b6040519080825280602002602001820160405280156134d8578160200160208202803683370190505b50905060005b855181101561353d578581815181106134f9576134f9614794565b602002602001015182828151811061351357613513614794565b600160a060020a039092166020928302919091019091015280613535816147c6565b9150506134de565b50838161354b60018561484f565b8151811061355b5761355b614794565b600160a060020a03909216602092830291909101909101529150505b92915050565b6000805b82518110156135d85783600160a060020a03168382815181106135a6576135a6614794565b6020026020010151600160a060020a0316036135c6576001915050613577565b806135d0816147c6565b915050613581565b5060009392505050565b805160609060006135f460018361484f565b67ffffffffffffffff81111561360c5761360c613a3e565b604051908082528060200260200182016040528015613635578160200160208202803683370190505b50905060005b84518110156136905785600160a060020a031685828151811061366057613660614794565b6020026020010151600160a060020a03160361367e57809250613690565b80613688816147c6565b91505061363b565b50815b600185516136a1919061484f565b81101561370857846136b482600161483c565b815181106136c4576136c4614794565b60200260200101518582815181106136de576136de614794565b600160a060020a039092166020928302919091019091015280613700816147c6565b915050613693565b5060005b6001855161371a919061484f565b8110156137775784818151811061373357613733614794565b602002602001015182828151811061374d5761374d614794565b600160a060020a03909216602092830291909101909101528061376f816147c6565b91505061370c565b50949350505050565b8280548282559060005260206000209081019282156137c6579160200282015b828111156137c657825182906137b690826146ce565b50916020019190600101906137a0565b506137d2929150613844565b5090565b828054828255906000526020600020908101928215613838579160200282015b82811115613838578251825473ffffffffffffffffffffffffffffffffffffffff1916600160a060020a039091161782556020909201916001909101906137f6565b506137d2929150613861565b808211156137d25760006138588282613876565b50600101613844565b5b808211156137d25760008155600101613862565b508054613882906145e6565b6000825580601f10613892575050565b601f0160209004906000526020600020908101906138b09190613861565b50565b8035600160a060020a03811681146138ca57600080fd5b919050565b6000602082840312156138e157600080fd5b6138ea826138b3565b9392505050565b6000815180845260005b81811015613917576020818501810151868301820152016138fb565b506000602082860101526020601f19601f83011685010191505092915050565b600061010080835261394b8184018c6138f1565b9050828103602084015261395f818b6138f1565b90508281036040840152613973818a6138f1565b9050828103606084015261398781896138f1565b9050828103608084015261399b81886138f1565b905082810360a08401526139af81876138f1565b905082810360c08401526139c381866138f1565b905082810360e08401526139d781856138f1565b9b9a5050505050505050505050565b6080815260006139f960808301876138f1565b8281036020840152613a0b81876138f1565b90508281036040840152613a1f81866138f1565b90508281036060840152613a3381856138f1565b979650505050505050565b60e060020a634e487b7102600052604160045260246000fd5b604051601f8201601f1916810167ffffffffffffffff81118282101715613a8057613a80613a3e565b604052919050565b600082601f830112613a9957600080fd5b813567ffffffffffffffff811115613ab357613ab3613a3e565b613ac6601f8201601f1916602001613a57565b818152846020838601011115613adb57600080fd5b816020850160208301376000918101602001919091529392505050565b600082601f830112613b0957600080fd5b8135602067ffffffffffffffff80831115613b2657613b26613a3e565b818302613b34838201613a57565b9384528581018301938381019088861115613b4e57600080fd5b84880192505b85831015613b8a57823584811115613b6c5760008081fd5b613b7a8a87838c0101613a88565b8352509184019190840190613b54565b98975050505050505050565b600080600080600080600080610100898b031215613bb357600080fd5b613bbc896138b3565b9750602089013567ffffffffffffffff80821115613bd957600080fd5b613be58c838d01613a88565b985060408b0135915080821115613bfb57600080fd5b613c078c838d01613a88565b975060608b0135915080821115613c1d57600080fd5b613c298c838d01613a88565b965060808b0135915080821115613c3f57600080fd5b613c4b8c838d01613a88565b955060a08b0135915080821115613c6157600080fd5b613c6d8c838d01613af8565b945060c08b0135915080821115613c8357600080fd5b613c8f8c838d01613af8565b935060e08b0135915080821115613ca557600080fd5b50613cb28b828c01613af8565b9150509295985092959890939650565b6000828251808552602080860195508081830284010181860160005b84811015613d0c57601f19868403018952613cfa8383516138f1565b98840198925090830190600101613cde565b5090979650505050505050565b602081526000825160e06020840152613d366101008401826138f1565b90506020840151601f1980858403016040860152613d5483836138f1565b92506040860151915080858403016060860152613d7183836138f1565b92506060860151915080858403016080860152613d8e83836138f1565b925060808601519150808584030160a0860152613dab8383613cc2565b925060a08601519150808584030160c0860152613dc88383613cc2565b925060c08601519150808584030160e086015250613de68282613cc2565b95945050505050565b6020808252825182820181905260009190848201906040850190845b81811015613e30578351600160a060020a031683529284019291840191600101613e0b565b50909695505050505050565b602081526000825160c06020840152613e5860e08401826138f1565b90506020840151601f1980858403016040860152613e7683836138f1565b92506040860151915080858403016060860152613e9383836138f1565b92506060860151915080858403016080860152613eb083836138f1565b925060808601519150808584030160a0860152613ecd83836138f1565b925060a08601519150808584030160c086015250613de682826138f1565b6020815260008251610100806020850152613f0a6101208501836138f1565b91506020850151601f1980868503016040870152613f2884836138f1565b93506040870151915080868503016060870152613f4584836138f1565b93506060870151915080868503016080870152613f6284836138f1565b935060808701519150808685030160a0870152613f7f84836138f1565b935060a08701519150808685030160c0870152613f9c84836138f1565b935060c08701519150808685030160e0870152613fb984836138f1565b935060e0870151915080868503018387015250613fd683826138f1565b9695505050505050565b6020815260008251610140806020850152613fff6101608501836138f1565b91506020850151601f198086850301604087015261401d84836138f1565b9350604087015191508086850301606087015261403a84836138f1565b9350606087015191508086850301608087015261405784836138f1565b935060808701519150808685030160a087015261407484836138f1565b935060a08701519150808685030160c087015261409184836138f1565b935060c08701519150808685030160e08701526140ae84836138f1565b935060e087015191506101008187860301818801526140cd85846138f1565b9450808801519250506101208187860301818801526140ec85846138f1565b908801518782039092018488015293509050613fd683826138f1565b60008060008060008060008060008060006101608c8e03121561412a57600080fd5b6141338c6138b3565b9a5067ffffffffffffffff8060208e0135111561414f57600080fd5b61415f8e60208f01358f01613a88565b9a508060408e0135111561417257600080fd5b6141828e60408f01358f01613a88565b99508060608e0135111561419557600080fd5b6141a58e60608f01358f01613a88565b98508060808e013511156141b857600080fd5b6141c88e60808f01358f01613a88565b97508060a08e013511156141db57600080fd5b6141eb8e60a08f01358f01613a88565b96508060c08e013511156141fe57600080fd5b61420e8e60c08f01358f01613a88565b95508060e08e0135111561422157600080fd5b6142318e60e08f01358f01613a88565b9450806101008e0135111561424557600080fd5b6142568e6101008f01358f01613a88565b9350806101208e0135111561426a57600080fd5b61427b8e6101208f01358f01613a88565b9250806101408e0135111561428f57600080fd5b506142a18d6101408e01358e01613a88565b90509295989b509295989b9093969950565b600080600080600080600060e0888a0312156142ce57600080fd5b6142d7886138b3565b9650602088013567ffffffffffffffff808211156142f457600080fd5b6143008b838c01613a88565b975060408a013591508082111561431657600080fd5b6143228b838c01613a88565b965060608a013591508082111561433857600080fd5b6143448b838c01613a88565b955060808a013591508082111561435a57600080fd5b6143668b838c01613a88565b945060a08a013591508082111561437c57600080fd5b6143888b838c01613a88565b935060c08a013591508082111561439e57600080fd5b506143ab8a828b01613a88565b91505092959891949750929550565b60006101408083526143ce8184018e6138f1565b905082810360208401526143e2818d6138f1565b905082810360408401526143f6818c6138f1565b9050828103606084015261440a818b6138f1565b9050828103608084015261441e818a6138f1565b905082810360a084015261443281896138f1565b905082810360c084015261444681886138f1565b905082810360e084015261445a81876138f1565b905082810361010084015261446f81866138f1565b905082810361012084015261448481856138f1565b9d9c50505050505050505050505050565b60008060008060008060008060006101208a8c0312156144b457600080fd5b6144bd8a6138b3565b985060208a013567ffffffffffffffff808211156144da57600080fd5b6144e68d838e01613a88565b995060408c01359150808211156144fc57600080fd5b6145088d838e01613a88565b985060608c013591508082111561451e57600080fd5b61452a8d838e01613a88565b975060808c013591508082111561454057600080fd5b61454c8d838e01613a88565b965060a08c013591508082111561456257600080fd5b61456e8d838e01613a88565b955060c08c013591508082111561458457600080fd5b6145908d838e01613a88565b945060e08c01359150808211156145a657600080fd5b6145b28d838e01613a88565b93506101008c01359150808211156145c957600080fd5b506145d68c828d01613a88565b9150509295985092959850929598565b6002810460018216806145fa57607f821691505b60208210810361461d5760e060020a634e487b7102600052602260045260246000fd5b50919050565b60208082526026908201527f4f6e6c7920446f63746f722063616e20706572666f726d2074686973206f706560408201527f726174696f6e0000000000000000000000000000000000000000000000000000606082015260800190565b601f8211156118a6576000818152602081206020601f860104810160208610156146a75750805b6020601f860104820191505b818110156146c6578281556001016146b3565b505050505050565b815167ffffffffffffffff8111156146e8576146e8613a3e565b6146fc816146f684546145e6565b84614680565b602080601f83116001811461473557600084156147195750858301515b60028086026008870290910a60001904198216178655506146c6565b600085815260208120601f198616915b8281101561476457888601518255948401946001909101908401614745565b508582101561478457878501516008601f88160260020a60001904191681555b5050505050600202600101905550565b60e060020a634e487b7102600052603260045260246000fd5b60e060020a634e487b7102600052601160045260246000fd5b6000600182016147d8576147d86147ad565b5060010190565b60208082526025908201527f4f6e6c792061646d696e2063616e20706572666f726d2074686973206f70657260408201527f6174696f6e000000000000000000000000000000000000000000000000000000606082015260800190565b80820180821115613577576135776147ad565b81810381811115613577576135776147ad56fea264697066735822122028ddb6eaf789f1bd91ed0c892178a07cf58ab356c032ba20c10e752f72e9f10564736f6c634300081200334f6e6c792061646d696e2063616e20706572666f726d2074686973206f706572",
  "immutableReferences": {},
  "source": "// SPDX-License-Identifier: UNLICENSED\r\npragma solidity ^0.8.0;\r\n\r\ncontract  Contract {\r\n\r\n    address public admin;\r\n\r\n    constructor(){\r\n        admin=msg.sender;\r\n        isAdmin[admin]=true;\r\n        ////////////////////////////////\r\n        createDoctor(0xff640B68F773729E8A352cCa92888dc3535dB90d,\"Mahboubi\",\"Houssem\",\"Houssem@gmail.com\",\"Generalist\",\"USTO\",\"Oran\",\"02/05/2000\",\"0788996655\",\"Male\",\"2023\");\r\n        createDoctor(0x695553ff7eAAdb81BCeb8DEEE24118dC36c486AF,\"Ferkach\",\"Zaki\",\"zaki@gmail.com\",\"cardiologue\",\"SBA\",\"EL-BAYADH\",\"12/12/2000\",\"0788996655\",\"Male\",\"2022\");\r\n\r\n        createPatient(0x9fE7AF5782D9bf27ECC304EE6ED34c0FF97b9eE0,\"Belhadj\",\"Mohamed Ali\",\"blhj.medali@gmail.com\",\" El-Bayadh\",\"25/10/2000\",\"0788996655\",\"male\",\"2023\")  ;\r\n        createPatient(0xb5b6d0E2C523ec14618D44F9AFB73195414F8786,\"Aibout\",\"Sidahmed\",\"sidou23@hotmail.com\",\" Saida\",\"10/11/2001\",\"0788996655\",\"male\",\"2020\")  ;\r\n\r\n        CreateCompany(0x7cC31808e194EBb20429DF1FCC8056aa18062835, \"CNAS\",\"EL-BAYADH\",\"0491234\",\"cnas@mail.com\",\"www.cnas.com\",\"assurance company 1\" )  ;\r\n        CreateCompany(0xA3bd68241A59379646109a7b399450d3E8dA1FD8, \"CASNOS\",\"SAIDA\",\"0491234\",\"casnos@mail.com\",\"www.casnos.com\",\"assurance company 2\" )  ;\r\n    }\r\n    struct Doctor{\r\n        string first_name ;\r\n        string last_name ;\r\n        string email ;\r\n        string specialite ;\r\n        string hospital_name ;\r\n        string wilaya ;\r\n        string birth_date ;\r\n        string phone ;\r\n        string gender ;\r\n        string join_date ;\r\n    }\r\n    struct Patient{\r\n        string first_name ;\r\n        string last_name ;\r\n        string email ;\r\n        string wilaya ;\r\n        string birth_date ;\r\n        string phone ;\r\n        string gender ;\r\n        string join_date ;\r\n    }\r\n    struct MedicalRecord{\r\n        string blood_type ;\r\n        string height ;\r\n        string weight ;\r\n        string vision_test ;\r\n        string [] medical_history;\r\n        string [] diagnostic_tests;\r\n        string [] treatments;\r\n    }\r\n    mapping (address => bool) public isDoctor;\r\n    mapping (address => bool) public isPatient;\r\n    mapping (address => bool) public isAdmin;\r\n\r\n    address[]  all_doctors_adresses ;    //****\r\n    address[]  all_patiens_adresses ;    //****\r\n\r\n    mapping (address => Doctor) public doctors;\r\n    mapping (address => Patient) public patients;\r\n    mapping (address => MedicalRecord) public  medicalRecords;\r\n\r\n    mapping (address => mapping(address => bool ) ) appreovedDoctors ;  // P_adr =>( D_adr => bool )\r\n    mapping (address => address[] ) myPations ;\r\n\r\n    mapping (address => address[] ) doctorsHistory ;\r\n\r\n    ///////////////////////////////////////////////////////////////////////////////\r\n    modifier onlyAdmin() {\r\n        require(msg.sender == admin   , \"Only admin can perform this operation\");\r\n        _;\r\n    }\r\n    modifier onlyDoctor() {\r\n        require(isDoctor[msg.sender]  , \"Only Doctor can perform this operation\");\r\n        _;\r\n    }\r\n    modifier onlyPatient() {\r\n        require(isPatient[msg.sender] , \"Only Patient can perform this operation\");\r\n        _;\r\n    }\r\n    //////////////////////////////////////////////////////////////////////////////\r\n    ////////////////////////////// Create Doctor ////////////////////////////////\r\n    function createDoctor(\r\n        address _doctorAddress,\r\n        string memory _first_name,\r\n        string memory _last_name,\r\n        string memory _email,\r\n        string memory _specialite,\r\n        string memory _hospital_name,\r\n        string memory _wilaya,\r\n        string memory _birth_date,\r\n        string memory _phone,\r\n        string memory _gender,\r\n        string memory _join_date\r\n    )public onlyAdmin {\r\n        Doctor memory newDoctor = Doctor({\r\n            first_name: _first_name,    last_name    : _last_name    ,  email : _email,\r\n            specialite: _specialite,    hospital_name: _hospital_name,  wilaya: _wilaya,\r\n            birth_date: _birth_date,    phone        : _phone        ,  gender: _gender,\r\n            join_date : _join_date\r\n        });\r\n        doctors[_doctorAddress] = newDoctor;\r\n        isDoctor[_doctorAddress]=true;\r\n        all_doctors_adresses.push(_doctorAddress);\r\n    }\r\n\r\n    ////////////////////////////// Create Patient //////////////////////////////\r\n    function createPatient(\r\n        address _patientAddress,\r\n        string memory _first_name,\r\n        string memory _last_name,\r\n        string memory _email,\r\n        string memory _wilaya,\r\n        string memory _birth_date,\r\n        string memory _phone,\r\n        string memory _gender,\r\n        string memory _join_date\r\n\r\n    )public onlyAdmin {\r\n        Patient memory newPatient = Patient({\r\n            first_name: _first_name  , last_name : _last_name    ,    email : _email  ,\r\n            wilaya    : _wilaya      , birth_date: _birth_date   ,    phone : _phone  ,\r\n            gender    : _gender      , join_date : _join_date\r\n        });\r\n        patients[_patientAddress] = newPatient;\r\n        isPatient[_patientAddress]=true;\r\n        all_patiens_adresses.push(_patientAddress);\r\n        //string []memory emptyStr = new string[](0);\r\n        //createMedicalRecord(_patientAddress ,\"\",\"\",\"\",\"\",emptyStr,emptyStr,emptyStr );\r\n    }\r\n    ////////////////////////////// Create Medical Record //////////////////////////////\r\n    function createMedicalRecord (\r\n        address  _patientAddress,\r\n        string memory _blood_type ,\r\n        string memory _height ,\r\n        string memory _weight ,\r\n        string memory _vision_test,\r\n        string [] memory _medical_history,\r\n        string [] memory _diagnostic_tests,\r\n        string [] memory _treatments )\r\n    public onlyDoctor {\r\n        require(isPatient[_patientAddress]  , \"This is not a patient address wla not registred\");\r\n        //require(isPatient[_patientAddress]  , \"This is not a patient address wla not registred\");\r\n        MedicalRecord memory newMedicalRecord = MedicalRecord({\r\n            blood_type  : _blood_type ,\r\n            height      : _height ,\r\n            weight      : _weight ,\r\n            vision_test : _vision_test ,\r\n            medical_history:_medical_history,\r\n            diagnostic_tests:_diagnostic_tests,\r\n            treatments:_treatments\r\n        });\r\n\r\n        medicalRecords[_patientAddress]=newMedicalRecord;\r\n\r\n    }\r\n    //////////////////////////////////////////////////////////////////////////////////////\r\n    //////////////////////////////         Functions       //////////////////////////////\r\n    //// get addresses\r\n    function getAllDoctorAddresses() public view returns (address[] memory) {\r\n        return all_doctors_adresses;\r\n    }\r\n\r\n    function getAllPatientAddresses() public view returns (address[] memory) {\r\n        return all_patiens_adresses;\r\n    }\r\n    //// get info\r\n    function getDoctorinfo(address _adr) public view returns (Doctor memory) {\r\n        return doctors[_adr];\r\n    }                                                                                                   //        /\\        //\r\n    function getPatieninfo(address _adr) public view returns (Patient memory) {                         //       //\\\\       //\r\n        return patients[_adr];                                                                          //      ///\\\\\\      //\r\n    }                                                                                                   //     ////\\\\\\\\     //\r\n                                                                                                        //    /////\\\\\\\\\\    //\r\n    function getMedicalRecordinfo(address _adr) public view returns (MedicalRecord memory) {            //   /////()\\\\\\\\\\   //\r\n        require(!appreovedDoctors[msg.sender][_adr] , \"This not your patient !\");                       //   \\\\\\\\|()|////   //\r\n        return medicalRecords[_adr];                                                                    //   ////    \\\\\\\\   //\r\n    }                                                                                                   //  ////||||||\\\\\\\\  //\r\n                                                                                                        // ////        \\\\\\\\ //\r\n\r\n    //// get count\r\n    function getDoctorsCount() public view returns (uint) {\r\n        return all_doctors_adresses.length;\r\n    }\r\n    function getPatiensCount() public view returns (uint) {\r\n        return all_patiens_adresses.length;\r\n    }\r\n    //////////////////////////////////////////////////////////////////////////////////////\r\n    //// For Patient\r\n    // Patient add the address of the Doctor to Allow him\r\n    function approveDoctor(address _doctor_address) public {\r\n        require(isPatient[msg.sender] , \"Only Patient can add approved Dorctor\");\r\n        require(isDoctor[_doctor_address] , \"This address doesn't belong to a Doctor\");\r\n        require(!appreovedDoctors[msg.sender][_doctor_address],\"You already approve this doc\" );\r\n\r\n        appreovedDoctors[msg.sender][_doctor_address]=true;\r\n        myPations[_doctor_address].push(msg.sender);\r\n    }\r\n\r\n    function disapproveDoctor (address _doctor_address) public  {\r\n        address[] memory array_of_patient  = myPations[_doctor_address];\r\n\r\n        require(appreovedDoctors[msg.sender][_doctor_address] ,\"Not approved\");\r\n        require(exist(msg.sender,array_of_patient) , \"Doesn't exist in List of patiens of that Doctor\" );\r\n\r\n        appreovedDoctors[msg.sender][_doctor_address]=false ;                // delete Doctor from approved doctors list\r\n\r\n        array_of_patient = deleteFromArray( msg.sender , array_of_patient ); // delete patient from List of patients of Doctor\r\n        myPations[_doctor_address] = array_of_patient;\r\n    }\r\n\r\n    function getMyDoctors() public onlyPatient view returns  (address[] memory)  {\r\n        address[] memory myDoctorsList = new address[](0);\r\n        address[] memory allDoctors = getAllDoctorAddresses();\r\n\r\n        for (uint i = 0; i < allDoctors.length ; i++) {\r\n            if(appreovedDoctors[msg.sender][all_doctors_adresses[i]]){\r\n                myDoctorsList = _addDoctor(myDoctorsList, allDoctors[i]);\r\n            }\r\n        }\r\n        return myDoctorsList ;\r\n    }\r\n\r\n\r\n\r\n\r\n\r\n    //////////////////////////////////////////////////////////////////////////////////////\r\n    // For Doctor\r\n    function getMyPatientsCount ()public view onlyDoctor returns(uint){\r\n        return myPations[msg.sender].length   ;\r\n    }\r\n    function getAddressesOfMyPatiens ()public  view onlyDoctor returns(address [] memory){\r\n        return myPations[msg.sender]   ;\r\n    }\r\n\r\n\r\n\r\n\r\n    // *****  Functions for code\r\n    function deleteFromArray(address _addr , address[] memory _arr) private pure returns(address[] memory ) {\r\n        uint indexToRemove = _arr.length ;\r\n        address [] memory newArray = new address[](_arr.length-1); //\r\n        // get index of item ( indexToRemove )\r\n        for (uint i=0 ; i<_arr.length ; i++){\r\n            if(_arr[i] == _addr){\r\n                indexToRemove = i ;\r\n                break;\r\n            }\r\n        }\r\n        // bdal blays f Array\r\n        for(uint j = indexToRemove ; j<_arr.length-1  ; j++){\r\n            _arr[j]=_arr[j+1];\r\n        }\r\n        // 3mar Array jdida\r\n        for (uint k = 0 ;  k <_arr.length-1 ; k++ ){\r\n            newArray[k]= _arr[k];\r\n        }\r\n\r\n        return newArray; // n7tajha fi dasapproveDoctor()\r\n    }\r\n\r\n    function _addDoctor(address[] memory doctorsList, address doctor) private pure returns (address[] memory) {\r\n        uint256 newLength = doctorsList.length + 1;\r\n        address[] memory newDoctorsList = new address[](newLength);\r\n\r\n        for (uint256 i = 0; i < doctorsList.length; i++) {\r\n            newDoctorsList[i] = doctorsList[i];\r\n        }\r\n\r\n        newDoctorsList[newLength - 1] = doctor;\r\n        return newDoctorsList; // n7tajha fi getMyDoctors\r\n    }\r\n\r\n    function exist(address _addr , address[] memory _arr) private pure returns(bool){\r\n        for (uint i=0 ; i<_arr.length ; i++){\r\n            if(_arr[i] == _addr){\r\n                return true ;\r\n            }\r\n        }\r\n        return false ; // if address kayna fi address[]\r\n    }\r\n\r\n\r\n\r\n    function whoIam() public view returns (address){\r\n        return msg.sender;\r\n    }\r\n    /////////////////////////////////////////////////////////////////////////////////\r\n\r\n    struct CompanyAs {\r\n        string company_name;\r\n        string location ;\r\n        string number ;\r\n        string email ;\r\n        string website ;\r\n        string description ;\r\n    }\r\n\r\n    mapping (address => bool) public isCompanyAs ;              //// 2\r\n    mapping (address => CompanyAs) private  companyAs;          ////  2\r\n    mapping (address => mapping(address => bool ) ) allowedCompanies ;  // P_adr =>( C_adr => bool )\r\n    mapping (address => address[] ) myCustomers ;      // List of the company customers\r\n\r\n\r\n    function CreateCompany (\r\n        address _companyAddress,\r\n        string memory _company_name,\r\n        string memory _location,\r\n        string memory _number,\r\n        string memory _email,\r\n        string memory _website,\r\n        string memory _description\r\n    )public{\r\n        CompanyAs memory newCompany = CompanyAs(\r\n            _company_name   ,\r\n            _location ,\r\n            _number   ,\r\n            _email    ,\r\n            _website  ,\r\n            _description);\r\n\r\n        companyAs[_companyAddress]=newCompany ;\r\n        isCompanyAs[_companyAddress] = true ;\r\n    }\r\n\r\n    function getCompanyinfo(address _adr) public view returns (CompanyAs memory) {\r\n        return companyAs[_adr];\r\n    }\r\n    function getAddressesOfMyCustomers ()public  view  returns(address [] memory){\r\n        //require(!isCompanyAs[msg.sender]  , \"Only company can perform this operation\");\r\n        return myCustomers[msg.sender]   ;\r\n    }\r\n\r\n\r\n    //mapping (address => address[] ) joinRequests ;    // yerselha customer ll Company\r\n    function allow(address _company_address) public {\r\n        //require(isPatient[msg.sender] , \"Only Patient can allow company\");\r\n        //require(isCompanyAs[_company_address] , \"This address doesn't belong to a Company\");\r\n        require(!allowedCompanies[msg.sender][_company_address],\"You already allow this comp to see your medical record\" );\r\n\r\n        allowedCompanies[msg.sender][_company_address]=true;\r\n        myCustomers[_company_address].push(msg.sender);\r\n    }\r\n    function disAllow (address _comp_address) public  {\r\n        address[] memory array_of_customers  = myCustomers[_comp_address];\r\n\r\n        require(allowedCompanies[msg.sender][_comp_address] ,\"Not approved\");\r\n        //require(exist(msg.sender,array_of_customers) , \"Doesn't exist in List of patiens of that Doctor\" );\r\n\r\n        allowedCompanies[msg.sender][_comp_address]=false ;                // delete Company from approved doctors list\r\n\r\n        array_of_customers = deleteFromArray( msg.sender , array_of_customers ); // delete patient from List of patients of Company\r\n        myCustomers[_comp_address] = array_of_customers;\r\n    }\r\n\r\n\r\n\r\n\r\n    /////////////////////////////////////////////////////////////////////////////////\r\n\r\n\r\n\r\n}\r\n",
  "sourcePath": "C:\\Users\\BELHADJ Mohamed Ali\\Desktop\\abc\\new-app-feb\\Truffle\\contracts\\Contract.sol",
  "compiler": {
    "name": "solc",
    "version": "0.8.18+commit.87f61d96.Emscripten.clang"
  },
  "schemaVersion": "3.4.13",
  "updatedAt": "2023-07-15T12:45:12.461Z",
  "networkType": "ethereum",
  "devdoc": {
    "kind": "dev",
    "methods": {},
    "version": 1
  },
  "userdoc": {
    "kind": "user",
    "methods": {},
    "version": 1
  }
}