{
  "contractName": "Contract",
  "abi": [
    {
      "inputs": [],
      "stateMutability": "nonpayable",
      "type": "constructor"
    },
    {
      "inputs": [],
      "name": "admin",
      "outputs": [
        {
          "internalType": "address",
          "name": "",
          "type": "address"
        }
      ],
      "stateMutability": "view",
      "type": "function",
      "constant": true
    },
    {
      "inputs": [
        {
          "internalType": "address",
          "name": "",
          "type": "address"
        }
      ],
      "name": "doctors",
      "outputs": [
        {
          "internalType": "string",
          "name": "first_name",
          "type": "string"
        },
        {
          "internalType": "string",
          "name": "last_name",
          "type": "string"
        },
        {
          "internalType": "string",
          "name": "email",
          "type": "string"
        },
        {
          "internalType": "string",
          "name": "specialite",
          "type": "string"
        },
        {
          "internalType": "string",
          "name": "hospital_name",
          "type": "string"
        },
        {
          "internalType": "string",
          "name": "wilaya",
          "type": "string"
        },
        {
          "internalType": "string",
          "name": "birth_date",
          "type": "string"
        },
        {
          "internalType": "string",
          "name": "phone",
          "type": "string"
        },
        {
          "internalType": "string",
          "name": "gender",
          "type": "string"
        }
      ],
      "stateMutability": "view",
      "type": "function",
      "constant": true
    },
    {
      "inputs": [
        {
          "internalType": "address",
          "name": "",
          "type": "address"
        }
      ],
      "name": "isAdmin",
      "outputs": [
        {
          "internalType": "bool",
          "name": "",
          "type": "bool"
        }
      ],
      "stateMutability": "view",
      "type": "function",
      "constant": true
    },
    {
      "inputs": [
        {
          "internalType": "address",
          "name": "",
          "type": "address"
        }
      ],
      "name": "isDoctor",
      "outputs": [
        {
          "internalType": "bool",
          "name": "",
          "type": "bool"
        }
      ],
      "stateMutability": "view",
      "type": "function",
      "constant": true
    },
    {
      "inputs": [
        {
          "internalType": "address",
          "name": "",
          "type": "address"
        }
      ],
      "name": "isPatient",
      "outputs": [
        {
          "internalType": "bool",
          "name": "",
          "type": "bool"
        }
      ],
      "stateMutability": "view",
      "type": "function",
      "constant": true
    },
    {
      "inputs": [
        {
          "internalType": "address",
          "name": "",
          "type": "address"
        }
      ],
      "name": "medicalRecords",
      "outputs": [
        {
          "internalType": "string",
          "name": "blood_type",
          "type": "string"
        },
        {
          "internalType": "string",
          "name": "height",
          "type": "string"
        },
        {
          "internalType": "string",
          "name": "weight",
          "type": "string"
        },
        {
          "internalType": "string",
          "name": "vision_test",
          "type": "string"
        }
      ],
      "stateMutability": "view",
      "type": "function",
      "constant": true
    },
    {
      "inputs": [
        {
          "internalType": "address",
          "name": "",
          "type": "address"
        }
      ],
      "name": "patients",
      "outputs": [
        {
          "internalType": "string",
          "name": "first_name",
          "type": "string"
        },
        {
          "internalType": "string",
          "name": "last_name",
          "type": "string"
        },
        {
          "internalType": "string",
          "name": "email",
          "type": "string"
        },
        {
          "internalType": "string",
          "name": "wilaya",
          "type": "string"
        },
        {
          "internalType": "string",
          "name": "birth_date",
          "type": "string"
        },
        {
          "internalType": "string",
          "name": "phone",
          "type": "string"
        },
        {
          "internalType": "string",
          "name": "gender",
          "type": "string"
        }
      ],
      "stateMutability": "view",
      "type": "function",
      "constant": true
    },
    {
      "inputs": [
        {
          "internalType": "address",
          "name": "_doctorAddress",
          "type": "address"
        },
        {
          "internalType": "string",
          "name": "_first_name",
          "type": "string"
        },
        {
          "internalType": "string",
          "name": "_last_name",
          "type": "string"
        },
        {
          "internalType": "string",
          "name": "_email",
          "type": "string"
        },
        {
          "internalType": "string",
          "name": "_specialite",
          "type": "string"
        },
        {
          "internalType": "string",
          "name": "_hospital_name",
          "type": "string"
        },
        {
          "internalType": "string",
          "name": "_wilaya",
          "type": "string"
        },
        {
          "internalType": "string",
          "name": "_birth_date",
          "type": "string"
        },
        {
          "internalType": "string",
          "name": "_phone",
          "type": "string"
        },
        {
          "internalType": "string",
          "name": "_gender",
          "type": "string"
        }
      ],
      "name": "createDoctor",
      "outputs": [],
      "stateMutability": "nonpayable",
      "type": "function"
    },
    {
      "inputs": [
        {
          "internalType": "address",
          "name": "_patientAddress",
          "type": "address"
        },
        {
          "internalType": "string",
          "name": "_first_name",
          "type": "string"
        },
        {
          "internalType": "string",
          "name": "_last_name",
          "type": "string"
        },
        {
          "internalType": "string",
          "name": "_email",
          "type": "string"
        },
        {
          "internalType": "string",
          "name": "_wilaya",
          "type": "string"
        },
        {
          "internalType": "string",
          "name": "_birth_date",
          "type": "string"
        },
        {
          "internalType": "string",
          "name": "_phone",
          "type": "string"
        },
        {
          "internalType": "string",
          "name": "_gender",
          "type": "string"
        }
      ],
      "name": "createPatient",
      "outputs": [],
      "stateMutability": "nonpayable",
      "type": "function"
    },
    {
      "inputs": [
        {
          "internalType": "address",
          "name": "_patientAddress",
          "type": "address"
        },
        {
          "internalType": "string",
          "name": "_blood_type",
          "type": "string"
        },
        {
          "internalType": "string",
          "name": "_height",
          "type": "string"
        },
        {
          "internalType": "string",
          "name": "_weight",
          "type": "string"
        },
        {
          "internalType": "string",
          "name": "_vision_test",
          "type": "string"
        },
        {
          "internalType": "string[]",
          "name": "_medical_history",
          "type": "string[]"
        },
        {
          "internalType": "string[]",
          "name": "_diagnostic_tests",
          "type": "string[]"
        },
        {
          "internalType": "string[]",
          "name": "_treatments",
          "type": "string[]"
        }
      ],
      "name": "createMedicalRecord",
      "outputs": [],
      "stateMutability": "nonpayable",
      "type": "function"
    },
    {
      "inputs": [],
      "name": "getAllDoctorAddresses",
      "outputs": [
        {
          "internalType": "address[]",
          "name": "",
          "type": "address[]"
        }
      ],
      "stateMutability": "view",
      "type": "function",
      "constant": true
    },
    {
      "inputs": [],
      "name": "getAllPatientAddresses",
      "outputs": [
        {
          "internalType": "address[]",
          "name": "",
          "type": "address[]"
        }
      ],
      "stateMutability": "view",
      "type": "function",
      "constant": true
    },
    {
      "inputs": [
        {
          "internalType": "address",
          "name": "_adr",
          "type": "address"
        }
      ],
      "name": "getDoctorinfo",
      "outputs": [
        {
          "components": [
            {
              "internalType": "string",
              "name": "first_name",
              "type": "string"
            },
            {
              "internalType": "string",
              "name": "last_name",
              "type": "string"
            },
            {
              "internalType": "string",
              "name": "email",
              "type": "string"
            },
            {
              "internalType": "string",
              "name": "specialite",
              "type": "string"
            },
            {
              "internalType": "string",
              "name": "hospital_name",
              "type": "string"
            },
            {
              "internalType": "string",
              "name": "wilaya",
              "type": "string"
            },
            {
              "internalType": "string",
              "name": "birth_date",
              "type": "string"
            },
            {
              "internalType": "string",
              "name": "phone",
              "type": "string"
            },
            {
              "internalType": "string",
              "name": "gender",
              "type": "string"
            }
          ],
          "internalType": "struct Contract.Doctor",
          "name": "",
          "type": "tuple"
        }
      ],
      "stateMutability": "view",
      "type": "function",
      "constant": true
    },
    {
      "inputs": [
        {
          "internalType": "address",
          "name": "_adr",
          "type": "address"
        }
      ],
      "name": "getPatieninfo",
      "outputs": [
        {
          "components": [
            {
              "internalType": "string",
              "name": "first_name",
              "type": "string"
            },
            {
              "internalType": "string",
              "name": "last_name",
              "type": "string"
            },
            {
              "internalType": "string",
              "name": "email",
              "type": "string"
            },
            {
              "internalType": "string",
              "name": "wilaya",
              "type": "string"
            },
            {
              "internalType": "string",
              "name": "birth_date",
              "type": "string"
            },
            {
              "internalType": "string",
              "name": "phone",
              "type": "string"
            },
            {
              "internalType": "string",
              "name": "gender",
              "type": "string"
            }
          ],
          "internalType": "struct Contract.Patient",
          "name": "",
          "type": "tuple"
        }
      ],
      "stateMutability": "view",
      "type": "function",
      "constant": true
    },
    {
      "inputs": [],
      "name": "getDoctorsCount",
      "outputs": [
        {
          "internalType": "uint256",
          "name": "",
          "type": "uint256"
        }
      ],
      "stateMutability": "view",
      "type": "function",
      "constant": true
    },
    {
      "inputs": [],
      "name": "getPatiensCount",
      "outputs": [
        {
          "internalType": "uint256",
          "name": "",
          "type": "uint256"
        }
      ],
      "stateMutability": "view",
      "type": "function",
      "constant": true
    },
    {
      "inputs": [
        {
          "internalType": "address",
          "name": "_doctor_address",
          "type": "address"
        }
      ],
      "name": "approveDoctor",
      "outputs": [],
      "stateMutability": "nonpayable",
      "type": "function"
    },
    {
      "inputs": [
        {
          "internalType": "address",
          "name": "_doctor_address",
          "type": "address"
        }
      ],
      "name": "disapproveDoctor",
      "outputs": [],
      "stateMutability": "nonpayable",
      "type": "function"
    },
    {
      "inputs": [],
      "name": "getMyPatientsCount",
      "outputs": [
        {
          "internalType": "uint256",
          "name": "",
          "type": "uint256"
        }
      ],
      "stateMutability": "view",
      "type": "function",
      "constant": true
    },
    {
      "inputs": [],
      "name": "getAddressesOfMyPatiens",
      "outputs": [
        {
          "internalType": "address[]",
          "name": "",
          "type": "address[]"
        }
      ],
      "stateMutability": "view",
      "type": "function",
      "constant": true
    },
    {
      "inputs": [
        {
          "internalType": "address",
          "name": "_adr",
          "type": "address"
        }
      ],
      "name": "getPatientName",
      "outputs": [
        {
          "internalType": "string",
          "name": "",
          "type": "string"
        }
      ],
      "stateMutability": "view",
      "type": "function",
      "constant": true
    },
    {
      "inputs": [],
      "name": "getMyPatientsNames",
      "outputs": [
        {
          "internalType": "string[]",
          "name": "",
          "type": "string[]"
        }
      ],
      "stateMutability": "view",
      "type": "function",
      "constant": true
    },
    {
      "inputs": [],
      "name": "whoIam",
      "outputs": [
        {
          "internalType": "address",
          "name": "",
          "type": "address"
        }
      ],
      "stateMutability": "view",
      "type": "function",
      "constant": true
    }
  ],
  "bytecode": "0x60806040523480156200001157600080fd5b50336000806101000a81548173ffffffffffffffffffffffffffffffffffffffff021916908373ffffffffffffffffffffffffffffffffffffffff1602179055506001600360008060009054906101000a900473ffffffffffffffffffffffffffffffffffffffff1673ffffffffffffffffffffffffffffffffffffffff1673ffffffffffffffffffffffffffffffffffffffff16815260200190815260200160002060006101000a81548160ff021916908315150217905550620002d673ff640b68f773729e8a352cca92888dc3535db90d6040518060400160405280601481526020017f66697273745f6e616d65206f6620446f63746f720000000000000000000000008152506040518060400160405280601381526020017f6c6173745f6e616d65206f6620446f63746f72000000000000000000000000008152506040518060400160405280600f81526020017f656d61696c206f6620446f63746f7200000000000000000000000000000000008152506040518060400160405280601481526020017f7370656369616c697465206f6620446f63746f720000000000000000000000008152506040518060400160405280601781526020017f686f73706974616c5f6e616d65206f6620446f63746f720000000000000000008152506040518060400160405280601081526020017f77696c617961206f6620446f63746f72000000000000000000000000000000008152506040518060400160405280601481526020017f62697274685f64617465206f6620446f63746f720000000000000000000000008152506040518060400160405280600f81526020017f70686f6e65206f6620446f63746f7200000000000000000000000000000000008152506040518060400160405280601081526020017f67656e646572206f6620446f63746f72000000000000000000000000000000008152506200082560201b60201c565b620004e1734b20993bc481177ec7e8f571cecae8a9e22c02db6040518060400160405280600481526020017f646f6332000000000000000000000000000000000000000000000000000000008152506040518060400160405280600481526020017f646f6332000000000000000000000000000000000000000000000000000000008152506040518060400160405280600481526020017f646f6332000000000000000000000000000000000000000000000000000000008152506040518060400160405280600481526020017f646f6332000000000000000000000000000000000000000000000000000000008152506040518060400160405280600481526020017f646f6332000000000000000000000000000000000000000000000000000000008152506040518060400160405280600481526020017f646f6332000000000000000000000000000000000000000000000000000000008152506040518060400160405280600481526020017f646f6332000000000000000000000000000000000000000000000000000000008152506040518060400160405280600481526020017f646f6332000000000000000000000000000000000000000000000000000000008152506040518060400160405280600481526020017f646f6332000000000000000000000000000000000000000000000000000000008152506200082560201b60201c565b6200068073695553ff7eaadb81bceb8deee24118dc36c486af6040518060400160405280600481526020017f70617431000000000000000000000000000000000000000000000000000000008152506040518060400160405280600581526020017f70617431320000000000000000000000000000000000000000000000000000008152506040518060400160405280600581526020017f70617431330000000000000000000000000000000000000000000000000000008152506040518060400160405280600581526020017f70617431340000000000000000000000000000000000000000000000000000008152506040518060400160405280600581526020017f70617431350000000000000000000000000000000000000000000000000000008152506040518060400160405280600581526020017f70617431360000000000000000000000000000000000000000000000000000008152506040518060400160405280600581526020017f706174313700000000000000000000000000000000000000000000000000000081525062000add60201b60201c565b6200081f73583031d1113ad414f02576bd6afabfb3021402256040518060400160405280600481526020017f70617432000000000000000000000000000000000000000000000000000000008152506040518060400160405280600481526020017f70617432000000000000000000000000000000000000000000000000000000008152506040518060400160405280600481526020017f70617432000000000000000000000000000000000000000000000000000000008152506040518060400160405280600481526020017f70617432000000000000000000000000000000000000000000000000000000008152506040518060400160405280600481526020017f70617432000000000000000000000000000000000000000000000000000000008152506040518060400160405280600481526020017f70617432000000000000000000000000000000000000000000000000000000008152506040518060400160405280600481526020017f706174320000000000000000000000000000000000000000000000000000000081525062000add60201b60201c565b62001562565b60008054906101000a900473ffffffffffffffffffffffffffffffffffffffff1673ffffffffffffffffffffffffffffffffffffffff163373ffffffffffffffffffffffffffffffffffffffff1614620008b6576040517f08c379a0000000000000000000000000000000000000000000000000000000008152600401620008ad9062001147565b60405180910390fd5b60006040518061012001604052808b81526020018a815260200189815260200188815260200187815260200186815260200185815260200184815260200183815250905080600660008d73ffffffffffffffffffffffffffffffffffffffff1673ffffffffffffffffffffffffffffffffffffffff1681526020019081526020016000206000820151816000019081620009519190620013e3565b506020820151816001019081620009699190620013e3565b506040820151816002019081620009819190620013e3565b506060820151816003019081620009999190620013e3565b506080820151816004019081620009b19190620013e3565b5060a0820151816005019081620009c99190620013e3565b5060c0820151816006019081620009e19190620013e3565b5060e0820151816007019081620009f99190620013e3565b5061010082015181600801908162000a129190620013e3565b5090505060018060008d73ffffffffffffffffffffffffffffffffffffffff1673ffffffffffffffffffffffffffffffffffffffff16815260200190815260200160002060006101000a81548160ff02191690831515021790555060048b9080600181540180825580915050600190039060005260206000200160009091909190916101000a81548173ffffffffffffffffffffffffffffffffffffffff021916908373ffffffffffffffffffffffffffffffffffffffff1602179055505050505050505050505050565b60008054906101000a900473ffffffffffffffffffffffffffffffffffffffff1673ffffffffffffffffffffffffffffffffffffffff163373ffffffffffffffffffffffffffffffffffffffff161462000b6e576040517f08c379a000000000000000000000000000000000000000000000000000000000815260040162000b659062001147565b60405180910390fd5b60006040518060e0016040528089815260200188815260200187815260200186815260200185815260200184815260200183815250905080600760008b73ffffffffffffffffffffffffffffffffffffffff1673ffffffffffffffffffffffffffffffffffffffff168152602001908152602001600020600082015181600001908162000bfc9190620013e3565b50602082015181600101908162000c149190620013e3565b50604082015181600201908162000c2c9190620013e3565b50606082015181600301908162000c449190620013e3565b50608082015181600401908162000c5c9190620013e3565b5060a082015181600501908162000c749190620013e3565b5060c082015181600601908162000c8c9190620013e3565b509050506001600260008b73ffffffffffffffffffffffffffffffffffffffff1673ffffffffffffffffffffffffffffffffffffffff16815260200190815260200160002060006101000a81548160ff0219169083151502179055506005899080600181540180825580915050600190039060005260206000200160009091909190916101000a81548173ffffffffffffffffffffffffffffffffffffffff021916908373ffffffffffffffffffffffffffffffffffffffff16021790555060008067ffffffffffffffff81111562000d6a5762000d6962001174565b5b60405190808252806020026020018201604052801562000d9f57816020015b606081526020019060019003908162000d895790505b50905062000df68a6040518060200160405280600081525060405180602001604052806000815250604051806020016040528060008152506040518060200160405280600081525086878862000e0260201b60201c565b50505050505050505050565b600260008973ffffffffffffffffffffffffffffffffffffffff1673ffffffffffffffffffffffffffffffffffffffff16815260200190815260200160002060009054906101000a900460ff1662000e91576040517f08c379a000000000000000000000000000000000000000000000000000000000815260040162000e889062001540565b60405180910390fd5b60006040518060e0016040528089815260200188815260200187815260200186815260200185815260200184815260200183815250905080600860008b73ffffffffffffffffffffffffffffffffffffffff1673ffffffffffffffffffffffffffffffffffffffff168152602001908152602001600020600082015181600001908162000f1f9190620013e3565b50602082015181600101908162000f379190620013e3565b50604082015181600201908162000f4f9190620013e3565b50606082015181600301908162000f679190620013e3565b50608082015181600401908051906020019062000f8692919062000fd3565b5060a082015181600501908051906020019062000fa592919062000fd3565b5060c082015181600601908051906020019062000fc492919062000fd3565b50905050505050505050505050565b82805482825590600052602060002090810192821562001020579160200282015b828111156200101f5782518290816200100e9190620013e3565b509160200191906001019062000ff4565b5b5090506200102f919062001033565b5090565b5b808211156200105757600081816200104d91906200105b565b5060010162001034565b5090565b5080546200106990620011d2565b6000825580601f106200107d57506200109e565b601f0160209004906000526020600020908101906200109d9190620010a1565b5b50565b5b80821115620010bc576000816000905550600101620010a2565b5090565b600082825260208201905092915050565b7f4f6e6c792061646d696e2063616e20706572666f726d2074686973206f70657260008201527f6174696f6e000000000000000000000000000000000000000000000000000000602082015250565b60006200112f602583620010c0565b91506200113c82620010d1565b604082019050919050565b60006020820190508181036000830152620011628162001120565b9050919050565b600081519050919050565b7f4e487b7100000000000000000000000000000000000000000000000000000000600052604160045260246000fd5b7f4e487b7100000000000000000000000000000000000000000000000000000000600052602260045260246000fd5b60006002820490506001821680620011eb57607f821691505b602082108103620012015762001200620011a3565b5b50919050565b60008190508160005260206000209050919050565b60006020601f8301049050919050565b600082821b905092915050565b6000600883026200126b7fffffffffffffffffffffffffffffffffffffffffffffffffffffffffffffffff826200122c565b6200127786836200122c565b95508019841693508086168417925050509392505050565b6000819050919050565b6000819050919050565b6000620012c4620012be620012b8846200128f565b62001299565b6200128f565b9050919050565b6000819050919050565b620012e083620012a3565b620012f8620012ef82620012cb565b84845462001239565b825550505050565b600090565b6200130f62001300565b6200131c818484620012d5565b505050565b5b8181101562001344576200133860008262001305565b60018101905062001322565b5050565b601f82111562001393576200135d8162001207565b62001368846200121c565b8101602085101562001378578190505b6200139062001387856200121c565b83018262001321565b50505b505050565b600082821c905092915050565b6000620013b86000198460080262001398565b1980831691505092915050565b6000620013d38383620013a5565b9150826002028217905092915050565b620013ee8262001169565b67ffffffffffffffff8111156200140a576200140962001174565b5b620014168254620011d2565b6200142382828562001348565b600060209050601f8311600181146200145b576000841562001446578287015190505b620014528582620013c5565b865550620014c2565b601f1984166200146b8662001207565b60005b8281101562001495578489015182556001820191506020850194506020810190506200146e565b86831015620014b55784890151620014b1601f891682620013a5565b8355505b6001600288020188555050505b505050505050565b7f54686973206973206e6f7420612070617469656e74206164647265737320776c60008201527f61206e6f74207265676973747265640000000000000000000000000000000000602082015250565b600062001528602f83620010c0565b91506200153582620014ca565b604082019050919050565b600060208201905081810360008301526200155b8162001519565b9050919050565b6147e980620015726000396000f3fe608060405234801561001057600080fd5b506004361061014d5760003560e01c80638f9c79ed116100c3578063b76d37161161007c578063b76d3716146103e9578063bd7be49014610407578063c15266d214610437578063d0be73ae14610453578063de9151a214610471578063f851a4401461048f5761014d565b80638f9c79ed146102d357806392be3e651461030357806396bf254814610321578063996440c6146103515780639c395bfa14610381578063a9583c22146103b15761014d565b806324d7806c1161011557806324d7806c1461021157806331357af214610241578063587fb7a31461025f5780636160a5c21461027d57806383a5c2fa1461029957806389ec3a6a146102b75761014d565b80630869cfbc1461015257806308886c471461018857806308ff78f7146101a4578063106d6170146101c25780631a33a9fc146101f5575b600080fd5b61016c60048036038101906101679190613144565b6104ad565b60405161017f9796959493929190613201565b60405180910390f35b6101a2600480360381019061019d91906133d6565b6108a7565b005b6101ac610b4a565b6040516101b991906135ca565b60405180910390f35b6101dc60048036038101906101d79190613144565b610c20565b6040516101ec94939291906135e5565b60405180910390f35b61020f600480360381019061020a919061372c565b610e70565b005b61022b60048036038101906102269190613144565b611030565b60405161023891906138c1565b60405180910390f35b610249611050565b60405161025691906135ca565b60405180910390f35b61026761105d565b604051610274919061399a565b60405180910390f35b61029760048036038101906102929190613144565b6110eb565b005b6102a1611405565b6040516102ae91906139cb565b60405180910390f35b6102d160048036038101906102cc9190613144565b61140d565b005b6102ed60048036038101906102e89190613144565b6116e0565b6040516102fa91906138c1565b60405180910390f35b61030b611700565b604051610318919061399a565b60405180910390f35b61033b60048036038101906103369190613144565b61178e565b6040516103489190613af6565b60405180910390f35b61036b60048036038101906103669190613144565b611be5565b60405161037891906138c1565b60405180910390f35b61039b60048036038101906103969190613144565b611c05565b6040516103a89190613c15565b60405180910390f35b6103cb60048036038101906103c69190613144565b612181565b6040516103e099989796959493929190613c37565b60405180910390f35b6103f1612697565b6040516103fe91906135ca565b60405180910390f35b610421600480360381019061041c9190613144565b6126a4565b60405161042e9190613d03565b60405180910390f35b610451600480360381019061044c9190613d25565b6126ba565b005b61045b6129c1565b6040516104689190613f61565b60405180910390f35b610479612aca565b604051610486919061399a565b60405180910390f35b610497612c21565b6040516104a491906139cb565b60405180910390f35b60076020528060005260406000206000915090508060000180546104d090613fb2565b80601f01602080910402602001604051908101604052809291908181526020018280546104fc90613fb2565b80156105495780601f1061051e57610100808354040283529160200191610549565b820191906000526020600020905b81548152906001019060200180831161052c57829003601f168201915b50505050509080600101805461055e90613fb2565b80601f016020809104026020016040519081016040528092919081815260200182805461058a90613fb2565b80156105d75780601f106105ac576101008083540402835291602001916105d7565b820191906000526020600020905b8154815290600101906020018083116105ba57829003601f168201915b5050505050908060020180546105ec90613fb2565b80601f016020809104026020016040519081016040528092919081815260200182805461061890613fb2565b80156106655780601f1061063a57610100808354040283529160200191610665565b820191906000526020600020905b81548152906001019060200180831161064857829003601f168201915b50505050509080600301805461067a90613fb2565b80601f01602080910402602001604051908101604052809291908181526020018280546106a690613fb2565b80156106f35780601f106106c8576101008083540402835291602001916106f3565b820191906000526020600020905b8154815290600101906020018083116106d657829003601f168201915b50505050509080600401805461070890613fb2565b80601f016020809104026020016040519081016040528092919081815260200182805461073490613fb2565b80156107815780601f1061075657610100808354040283529160200191610781565b820191906000526020600020905b81548152906001019060200180831161076457829003601f168201915b50505050509080600501805461079690613fb2565b80601f01602080910402602001604051908101604052809291908181526020018280546107c290613fb2565b801561080f5780601f106107e45761010080835404028352916020019161080f565b820191906000526020600020905b8154815290600101906020018083116107f257829003601f168201915b50505050509080600601805461082490613fb2565b80601f016020809104026020016040519081016040528092919081815260200182805461085090613fb2565b801561089d5780601f106108725761010080835404028352916020019161089d565b820191906000526020600020905b81548152906001019060200180831161088057829003601f168201915b5050505050905087565b60008054906101000a900473ffffffffffffffffffffffffffffffffffffffff1673ffffffffffffffffffffffffffffffffffffffff163373ffffffffffffffffffffffffffffffffffffffff1614610935576040517f08c379a000000000000000000000000000000000000000000000000000000000815260040161092c90614055565b60405180910390fd5b60006040518061012001604052808b81526020018a815260200189815260200188815260200187815260200186815260200185815260200184815260200183815250905080600660008d73ffffffffffffffffffffffffffffffffffffffff1673ffffffffffffffffffffffffffffffffffffffff16815260200190815260200160002060008201518160000190816109ce9190614221565b5060208201518160010190816109e49190614221565b5060408201518160020190816109fa9190614221565b506060820151816003019081610a109190614221565b506080820151816004019081610a269190614221565b5060a0820151816005019081610a3c9190614221565b5060c0820151816006019081610a529190614221565b5060e0820151816007019081610a689190614221565b50610100820151816008019081610a7f9190614221565b5090505060018060008d73ffffffffffffffffffffffffffffffffffffffff1673ffffffffffffffffffffffffffffffffffffffff16815260200190815260200160002060006101000a81548160ff02191690831515021790555060048b9080600181540180825580915050600190039060005260206000200160009091909190916101000a81548173ffffffffffffffffffffffffffffffffffffffff021916908373ffffffffffffffffffffffffffffffffffffffff1602179055505050505050505050505050565b6000600160003373ffffffffffffffffffffffffffffffffffffffff1673ffffffffffffffffffffffffffffffffffffffff16815260200190815260200160002060009054906101000a900460ff16610bd8576040517f08c379a0000000000000000000000000000000000000000000000000000000008152600401610bcf90614365565b60405180910390fd5b600a60003373ffffffffffffffffffffffffffffffffffffffff1673ffffffffffffffffffffffffffffffffffffffff16815260200190815260200160002080549050905090565b6008602052806000526040600020600091509050806000018054610c4390613fb2565b80601f0160208091040260200160405190810160405280929190818152602001828054610c6f90613fb2565b8015610cbc5780601f10610c9157610100808354040283529160200191610cbc565b820191906000526020600020905b815481529060010190602001808311610c9f57829003601f168201915b505050505090806001018054610cd190613fb2565b80601f0160208091040260200160405190810160405280929190818152602001828054610cfd90613fb2565b8015610d4a5780601f10610d1f57610100808354040283529160200191610d4a565b820191906000526020600020905b815481529060010190602001808311610d2d57829003601f168201915b505050505090806002018054610d5f90613fb2565b80601f0160208091040260200160405190810160405280929190818152602001828054610d8b90613fb2565b8015610dd85780601f10610dad57610100808354040283529160200191610dd8565b820191906000526020600020905b815481529060010190602001808311610dbb57829003601f168201915b505050505090806003018054610ded90613fb2565b80601f0160208091040260200160405190810160405280929190818152602001828054610e1990613fb2565b8015610e665780601f10610e3b57610100808354040283529160200191610e66565b820191906000526020600020905b815481529060010190602001808311610e4957829003601f168201915b5050505050905084565b600260008973ffffffffffffffffffffffffffffffffffffffff1673ffffffffffffffffffffffffffffffffffffffff16815260200190815260200160002060009054906101000a900460ff16610efc576040517f08c379a0000000000000000000000000000000000000000000000000000000008152600401610ef3906143f7565b60405180910390fd5b60006040518060e0016040528089815260200188815260200187815260200186815260200185815260200184815260200183815250905080600860008b73ffffffffffffffffffffffffffffffffffffffff1673ffffffffffffffffffffffffffffffffffffffff1681526020019081526020016000206000820151816000019081610f889190614221565b506020820151816001019081610f9e9190614221565b506040820151816002019081610fb49190614221565b506060820151816003019081610fca9190614221565b506080820151816004019080519060200190610fe7929190612ee5565b5060a0820151816005019080519060200190611004929190612ee5565b5060c0820151816006019080519060200190611021929190612ee5565b50905050505050505050505050565b60036020528060005260406000206000915054906101000a900460ff1681565b6000600480549050905090565b606060048054806020026020016040519081016040528092919081815260200182805480156110e157602002820191906000526020600020905b8160009054906101000a900473ffffffffffffffffffffffffffffffffffffffff1673ffffffffffffffffffffffffffffffffffffffff1681526020019060010190808311611097575b5050505050905090565b600260003373ffffffffffffffffffffffffffffffffffffffff1673ffffffffffffffffffffffffffffffffffffffff16815260200190815260200160002060009054906101000a900460ff16611177576040517f08c379a000000000000000000000000000000000000000000000000000000000815260040161116e90614489565b60405180910390fd5b600160008273ffffffffffffffffffffffffffffffffffffffff1673ffffffffffffffffffffffffffffffffffffffff16815260200190815260200160002060009054906101000a900460ff16611203576040517f08c379a00000000000000000000000000000000000000000000000000000000081526004016111fa9061451b565b60405180910390fd5b600960003373ffffffffffffffffffffffffffffffffffffffff1673ffffffffffffffffffffffffffffffffffffffff16815260200190815260200160002060008273ffffffffffffffffffffffffffffffffffffffff1673ffffffffffffffffffffffffffffffffffffffff16815260200190815260200160002060009054906101000a900460ff16156112cd576040517f08c379a00000000000000000000000000000000000000000000000000000000081526004016112c490614587565b60405180910390fd5b6001600960003373ffffffffffffffffffffffffffffffffffffffff1673ffffffffffffffffffffffffffffffffffffffff16815260200190815260200160002060008373ffffffffffffffffffffffffffffffffffffffff1673ffffffffffffffffffffffffffffffffffffffff16815260200190815260200160002060006101000a81548160ff021916908315150217905550600a60008273ffffffffffffffffffffffffffffffffffffffff1673ffffffffffffffffffffffffffffffffffffffff168152602001908152602001600020339080600181540180825580915050600190039060005260206000200160009091909190916101000a81548173ffffffffffffffffffffffffffffffffffffffff021916908373ffffffffffffffffffffffffffffffffffffffff16021790555050565b600033905090565b6000600a60008373ffffffffffffffffffffffffffffffffffffffff1673ffffffffffffffffffffffffffffffffffffffff1681526020019081526020016000208054806020026020016040519081016040528092919081815260200182805480156114ce57602002820191906000526020600020905b8160009054906101000a900473ffffffffffffffffffffffffffffffffffffffff1673ffffffffffffffffffffffffffffffffffffffff1681526020019060010190808311611484575b50505050509050600960003373ffffffffffffffffffffffffffffffffffffffff1673ffffffffffffffffffffffffffffffffffffffff16815260200190815260200160002060008373ffffffffffffffffffffffffffffffffffffffff1673ffffffffffffffffffffffffffffffffffffffff16815260200190815260200160002060009054906101000a900460ff1661159e576040517f08c379a0000000000000000000000000000000000000000000000000000000008152600401611595906145f3565b60405180910390fd5b6115a83382612c45565b6115e7576040517f08c379a00000000000000000000000000000000000000000000000000000000081526004016115de90614685565b60405180910390fd5b6000600960003373ffffffffffffffffffffffffffffffffffffffff1673ffffffffffffffffffffffffffffffffffffffff16815260200190815260200160002060008473ffffffffffffffffffffffffffffffffffffffff1673ffffffffffffffffffffffffffffffffffffffff16815260200190815260200160002060006101000a81548160ff0219169083151502179055506116863382612ccc565b905080600a60008473ffffffffffffffffffffffffffffffffffffffff1673ffffffffffffffffffffffffffffffffffffffff16815260200190815260200160002090805190602001906116db929190612f3e565b505050565b60026020528060005260406000206000915054906101000a900460ff1681565b6060600580548060200260200160405190810160405280929190818152602001828054801561178457602002820191906000526020600020905b8160009054906101000a900473ffffffffffffffffffffffffffffffffffffffff1673ffffffffffffffffffffffffffffffffffffffff168152602001906001019080831161173a575b5050505050905090565b611796612fc8565b600760008373ffffffffffffffffffffffffffffffffffffffff1673ffffffffffffffffffffffffffffffffffffffff1681526020019081526020016000206040518060e00160405290816000820180546117f090613fb2565b80601f016020809104026020016040519081016040528092919081815260200182805461181c90613fb2565b80156118695780601f1061183e57610100808354040283529160200191611869565b820191906000526020600020905b81548152906001019060200180831161184c57829003601f168201915b5050505050815260200160018201805461188290613fb2565b80601f01602080910402602001604051908101604052809291908181526020018280546118ae90613fb2565b80156118fb5780601f106118d0576101008083540402835291602001916118fb565b820191906000526020600020905b8154815290600101906020018083116118de57829003601f168201915b5050505050815260200160028201805461191490613fb2565b80601f016020809104026020016040519081016040528092919081815260200182805461194090613fb2565b801561198d5780601f106119625761010080835404028352916020019161198d565b820191906000526020600020905b81548152906001019060200180831161197057829003601f168201915b505050505081526020016003820180546119a690613fb2565b80601f01602080910402602001604051908101604052809291908181526020018280546119d290613fb2565b8015611a1f5780601f106119f457610100808354040283529160200191611a1f565b820191906000526020600020905b815481529060010190602001808311611a0257829003601f168201915b50505050508152602001600482018054611a3890613fb2565b80601f0160208091040260200160405190810160405280929190818152602001828054611a6490613fb2565b8015611ab15780601f10611a8657610100808354040283529160200191611ab1565b820191906000526020600020905b815481529060010190602001808311611a9457829003601f168201915b50505050508152602001600582018054611aca90613fb2565b80601f0160208091040260200160405190810160405280929190818152602001828054611af690613fb2565b8015611b435780601f10611b1857610100808354040283529160200191611b43565b820191906000526020600020905b815481529060010190602001808311611b2657829003601f168201915b50505050508152602001600682018054611b5c90613fb2565b80601f0160208091040260200160405190810160405280929190818152602001828054611b8890613fb2565b8015611bd55780601f10611baa57610100808354040283529160200191611bd5565b820191906000526020600020905b815481529060010190602001808311611bb857829003601f168201915b5050505050815250509050919050565b60016020528060005260406000206000915054906101000a900460ff1681565b611c0d613005565b600660008373ffffffffffffffffffffffffffffffffffffffff1673ffffffffffffffffffffffffffffffffffffffff16815260200190815260200160002060405180610120016040529081600082018054611c6890613fb2565b80601f0160208091040260200160405190810160405280929190818152602001828054611c9490613fb2565b8015611ce15780601f10611cb657610100808354040283529160200191611ce1565b820191906000526020600020905b815481529060010190602001808311611cc457829003601f168201915b50505050508152602001600182018054611cfa90613fb2565b80601f0160208091040260200160405190810160405280929190818152602001828054611d2690613fb2565b8015611d735780601f10611d4857610100808354040283529160200191611d73565b820191906000526020600020905b815481529060010190602001808311611d5657829003601f168201915b50505050508152602001600282018054611d8c90613fb2565b80601f0160208091040260200160405190810160405280929190818152602001828054611db890613fb2565b8015611e055780601f10611dda57610100808354040283529160200191611e05565b820191906000526020600020905b815481529060010190602001808311611de857829003601f168201915b50505050508152602001600382018054611e1e90613fb2565b80601f0160208091040260200160405190810160405280929190818152602001828054611e4a90613fb2565b8015611e975780601f10611e6c57610100808354040283529160200191611e97565b820191906000526020600020905b815481529060010190602001808311611e7a57829003601f168201915b50505050508152602001600482018054611eb090613fb2565b80601f0160208091040260200160405190810160405280929190818152602001828054611edc90613fb2565b8015611f295780601f10611efe57610100808354040283529160200191611f29565b820191906000526020600020905b815481529060010190602001808311611f0c57829003601f168201915b50505050508152602001600582018054611f4290613fb2565b80601f0160208091040260200160405190810160405280929190818152602001828054611f6e90613fb2565b8015611fbb5780601f10611f9057610100808354040283529160200191611fbb565b820191906000526020600020905b815481529060010190602001808311611f9e57829003601f168201915b50505050508152602001600682018054611fd490613fb2565b80601f016020809104026020016040519081016040528092919081815260200182805461200090613fb2565b801561204d5780601f106120225761010080835404028352916020019161204d565b820191906000526020600020905b81548152906001019060200180831161203057829003601f168201915b5050505050815260200160078201805461206690613fb2565b80601f016020809104026020016040519081016040528092919081815260200182805461209290613fb2565b80156120df5780601f106120b4576101008083540402835291602001916120df565b820191906000526020600020905b8154815290600101906020018083116120c257829003601f168201915b505050505081526020016008820180546120f890613fb2565b80601f016020809104026020016040519081016040528092919081815260200182805461212490613fb2565b80156121715780601f1061214657610100808354040283529160200191612171565b820191906000526020600020905b81548152906001019060200180831161215457829003601f168201915b5050505050815250509050919050565b60066020528060005260406000206000915090508060000180546121a490613fb2565b80601f01602080910402602001604051908101604052809291908181526020018280546121d090613fb2565b801561221d5780601f106121f25761010080835404028352916020019161221d565b820191906000526020600020905b81548152906001019060200180831161220057829003601f168201915b50505050509080600101805461223290613fb2565b80601f016020809104026020016040519081016040528092919081815260200182805461225e90613fb2565b80156122ab5780601f10612280576101008083540402835291602001916122ab565b820191906000526020600020905b81548152906001019060200180831161228e57829003601f168201915b5050505050908060020180546122c090613fb2565b80601f01602080910402602001604051908101604052809291908181526020018280546122ec90613fb2565b80156123395780601f1061230e57610100808354040283529160200191612339565b820191906000526020600020905b81548152906001019060200180831161231c57829003601f168201915b50505050509080600301805461234e90613fb2565b80601f016020809104026020016040519081016040528092919081815260200182805461237a90613fb2565b80156123c75780601f1061239c576101008083540402835291602001916123c7565b820191906000526020600020905b8154815290600101906020018083116123aa57829003601f168201915b5050505050908060040180546123dc90613fb2565b80601f016020809104026020016040519081016040528092919081815260200182805461240890613fb2565b80156124555780601f1061242a57610100808354040283529160200191612455565b820191906000526020600020905b81548152906001019060200180831161243857829003601f168201915b50505050509080600501805461246a90613fb2565b80601f016020809104026020016040519081016040528092919081815260200182805461249690613fb2565b80156124e35780601f106124b8576101008083540402835291602001916124e3565b820191906000526020600020905b8154815290600101906020018083116124c657829003601f168201915b5050505050908060060180546124f890613fb2565b80601f016020809104026020016040519081016040528092919081815260200182805461252490613fb2565b80156125715780601f1061254657610100808354040283529160200191612571565b820191906000526020600020905b81548152906001019060200180831161255457829003601f168201915b50505050509080600701805461258690613fb2565b80601f01602080910402602001604051908101604052809291908181526020018280546125b290613fb2565b80156125ff5780601f106125d4576101008083540402835291602001916125ff565b820191906000526020600020905b8154815290600101906020018083116125e257829003601f168201915b50505050509080600801805461261490613fb2565b80601f016020809104026020016040519081016040528092919081815260200182805461264090613fb2565b801561268d5780601f106126625761010080835404028352916020019161268d565b820191906000526020600020905b81548152906001019060200180831161267057829003601f168201915b5050505050905089565b6000600580549050905090565b60606126af8261178e565b600001519050919050565b60008054906101000a900473ffffffffffffffffffffffffffffffffffffffff1673ffffffffffffffffffffffffffffffffffffffff163373ffffffffffffffffffffffffffffffffffffffff1614612748576040517f08c379a000000000000000000000000000000000000000000000000000000000815260040161273f90614055565b60405180910390fd5b60006040518060e0016040528089815260200188815260200187815260200186815260200185815260200184815260200183815250905080600760008b73ffffffffffffffffffffffffffffffffffffffff1673ffffffffffffffffffffffffffffffffffffffff16815260200190815260200160002060008201518160000190816127d49190614221565b5060208201518160010190816127ea9190614221565b5060408201518160020190816128009190614221565b5060608201518160030190816128169190614221565b50608082015181600401908161282c9190614221565b5060a08201518160050190816128429190614221565b5060c08201518160060190816128589190614221565b509050506001600260008b73ffffffffffffffffffffffffffffffffffffffff1673ffffffffffffffffffffffffffffffffffffffff16815260200190815260200160002060006101000a81548160ff0219169083151502179055506005899080600181540180825580915050600190039060005260206000200160009091909190916101000a81548173ffffffffffffffffffffffffffffffffffffffff021916908373ffffffffffffffffffffffffffffffffffffffff16021790555060008067ffffffffffffffff811115612933576129326132ab565b5b60405190808252806020026020018201604052801561296657816020015b60608152602001906001900390816129515790505b5090506129b58a60405180602001604052806000815250604051806020016040528060008152506040518060200160405280600081525060405180602001604052806000815250868788610e70565b50505050505050505050565b6060600160003373ffffffffffffffffffffffffffffffffffffffff1673ffffffffffffffffffffffffffffffffffffffff16815260200190815260200160002060009054906101000a900460ff16612a4f576040517f08c379a0000000000000000000000000000000000000000000000000000000008152600401612a4690614365565b60405180910390fd5b6000612a59612aca565b9050606060005b8251811015612ac157612a8c838281518110612a7f57612a7e6146a5565b5b602002602001015161178e565b60000151828281518110612aa357612aa26146a5565b5b60200260200101819052508080612ab990614703565b915050612a60565b50809250505090565b6060600160003373ffffffffffffffffffffffffffffffffffffffff1673ffffffffffffffffffffffffffffffffffffffff16815260200190815260200160002060009054906101000a900460ff16612b58576040517f08c379a0000000000000000000000000000000000000000000000000000000008152600401612b4f90614365565b60405180910390fd5b600a60003373ffffffffffffffffffffffffffffffffffffffff1673ffffffffffffffffffffffffffffffffffffffff168152602001908152602001600020805480602002602001604051908101604052809291908181526020018280548015612c1757602002820191906000526020600020905b8160009054906101000a900473ffffffffffffffffffffffffffffffffffffffff1673ffffffffffffffffffffffffffffffffffffffff1681526020019060010190808311612bcd575b5050505050905090565b60008054906101000a900473ffffffffffffffffffffffffffffffffffffffff1681565b600080600090505b8251811015612cc0578373ffffffffffffffffffffffffffffffffffffffff16838281518110612c8057612c7f6146a5565b5b602002602001015173ffffffffffffffffffffffffffffffffffffffff1603612cad576001915050612cc6565b8080612cb890614703565b915050612c4d565b50600090505b92915050565b6060600082519050600060018451612ce4919061474b565b67ffffffffffffffff811115612cfd57612cfc6132ab565b5b604051908082528060200260200182016040528015612d2b5781602001602082028036833780820191505090505b50905060005b8451811015612da2578573ffffffffffffffffffffffffffffffffffffffff16858281518110612d6457612d636146a5565b5b602002602001015173ffffffffffffffffffffffffffffffffffffffff1603612d8f57809250612da2565b8080612d9a90614703565b915050612d31565b5060008290505b60018551612db7919061474b565b811015612e455784600182612dcc919061477f565b81518110612ddd57612ddc6146a5565b5b6020026020010151858281518110612df857612df76146a5565b5b602002602001019073ffffffffffffffffffffffffffffffffffffffff16908173ffffffffffffffffffffffffffffffffffffffff16815250508080612e3d90614703565b915050612da9565b5060005b60018551612e57919061474b565b811015612ed957848181518110612e7157612e706146a5565b5b6020026020010151828281518110612e8c57612e8b6146a5565b5b602002602001019073ffffffffffffffffffffffffffffffffffffffff16908173ffffffffffffffffffffffffffffffffffffffff16815250508080612ed190614703565b915050612e49565b50809250505092915050565b828054828255906000526020600020908101928215612f2d579160200282015b82811115612f2c578251829081612f1c9190614221565b5091602001919060010190612f05565b5b509050612f3a9190613051565b5090565b828054828255906000526020600020908101928215612fb7579160200282015b82811115612fb65782518260006101000a81548173ffffffffffffffffffffffffffffffffffffffff021916908373ffffffffffffffffffffffffffffffffffffffff16021790555091602001919060010190612f5e565b5b509050612fc49190613075565b5090565b6040518060e00160405280606081526020016060815260200160608152602001606081526020016060815260200160608152602001606081525090565b6040518061012001604052806060815260200160608152602001606081526020016060815260200160608152602001606081526020016060815260200160608152602001606081525090565b5b8082111561307157600081816130689190613092565b50600101613052565b5090565b5b8082111561308e576000816000905550600101613076565b5090565b50805461309e90613fb2565b6000825580601f106130b057506130cf565b601f0160209004906000526020600020908101906130ce9190613075565b5b50565b6000604051905090565b600080fd5b600080fd5b600073ffffffffffffffffffffffffffffffffffffffff82169050919050565b6000613111826130e6565b9050919050565b61312181613106565b811461312c57600080fd5b50565b60008135905061313e81613118565b92915050565b60006020828403121561315a576131596130dc565b5b60006131688482850161312f565b91505092915050565b600081519050919050565b600082825260208201905092915050565b60005b838110156131ab578082015181840152602081019050613190565b60008484015250505050565b6000601f19601f8301169050919050565b60006131d382613171565b6131dd818561317c565b93506131ed81856020860161318d565b6131f6816131b7565b840191505092915050565b600060e082019050818103600083015261321b818a6131c8565b9050818103602083015261322f81896131c8565b9050818103604083015261324381886131c8565b9050818103606083015261325781876131c8565b9050818103608083015261326b81866131c8565b905081810360a083015261327f81856131c8565b905081810360c083015261329381846131c8565b905098975050505050505050565b600080fd5b600080fd5b7f4e487b7100000000000000000000000000000000000000000000000000000000600052604160045260246000fd5b6132e3826131b7565b810181811067ffffffffffffffff82111715613302576133016132ab565b5b80604052505050565b60006133156130d2565b905061332182826132da565b919050565b600067ffffffffffffffff821115613341576133406132ab565b5b61334a826131b7565b9050602081019050919050565b82818337600083830152505050565b600061337961337484613326565b61330b565b905082815260208101848484011115613395576133946132a6565b5b6133a0848285613357565b509392505050565b600082601f8301126133bd576133bc6132a1565b5b81356133cd848260208601613366565b91505092915050565b6000806000806000806000806000806101408b8d0312156133fa576133f96130dc565b5b60006134088d828e0161312f565b9a505060208b013567ffffffffffffffff811115613429576134286130e1565b5b6134358d828e016133a8565b99505060408b013567ffffffffffffffff811115613456576134556130e1565b5b6134628d828e016133a8565b98505060608b013567ffffffffffffffff811115613483576134826130e1565b5b61348f8d828e016133a8565b97505060808b013567ffffffffffffffff8111156134b0576134af6130e1565b5b6134bc8d828e016133a8565b96505060a08b013567ffffffffffffffff8111156134dd576134dc6130e1565b5b6134e98d828e016133a8565b95505060c08b013567ffffffffffffffff81111561350a576135096130e1565b5b6135168d828e016133a8565b94505060e08b013567ffffffffffffffff811115613537576135366130e1565b5b6135438d828e016133a8565b9350506101008b013567ffffffffffffffff811115613565576135646130e1565b5b6135718d828e016133a8565b9250506101208b013567ffffffffffffffff811115613593576135926130e1565b5b61359f8d828e016133a8565b9150509295989b9194979a5092959850565b6000819050919050565b6135c4816135b1565b82525050565b60006020820190506135df60008301846135bb565b92915050565b600060808201905081810360008301526135ff81876131c8565b9050818103602083015261361381866131c8565b9050818103604083015261362781856131c8565b9050818103606083015261363b81846131c8565b905095945050505050565b600067ffffffffffffffff821115613661576136606132ab565b5b602082029050602081019050919050565b600080fd5b600061368a61368584613646565b61330b565b905080838252602082019050602084028301858111156136ad576136ac613672565b5b835b818110156136f457803567ffffffffffffffff8111156136d2576136d16132a1565b5b8086016136df89826133a8565b855260208501945050506020810190506136af565b5050509392505050565b600082601f830112613713576137126132a1565b5b8135613723848260208601613677565b91505092915050565b600080600080600080600080610100898b03121561374d5761374c6130dc565b5b600061375b8b828c0161312f565b985050602089013567ffffffffffffffff81111561377c5761377b6130e1565b5b6137888b828c016133a8565b975050604089013567ffffffffffffffff8111156137a9576137a86130e1565b5b6137b58b828c016133a8565b965050606089013567ffffffffffffffff8111156137d6576137d56130e1565b5b6137e28b828c016133a8565b955050608089013567ffffffffffffffff811115613803576138026130e1565b5b61380f8b828c016133a8565b94505060a089013567ffffffffffffffff8111156138305761382f6130e1565b5b61383c8b828c016136fe565b93505060c089013567ffffffffffffffff81111561385d5761385c6130e1565b5b6138698b828c016136fe565b92505060e089013567ffffffffffffffff81111561388a576138896130e1565b5b6138968b828c016136fe565b9150509295985092959890939650565b60008115159050919050565b6138bb816138a6565b82525050565b60006020820190506138d660008301846138b2565b92915050565b600081519050919050565b600082825260208201905092915050565b6000819050602082019050919050565b61391181613106565b82525050565b60006139238383613908565b60208301905092915050565b6000602082019050919050565b6000613947826138dc565b61395181856138e7565b935061395c836138f8565b8060005b8381101561398d5781516139748882613917565b975061397f8361392f565b925050600181019050613960565b5085935050505092915050565b600060208201905081810360008301526139b4818461393c565b905092915050565b6139c581613106565b82525050565b60006020820190506139e060008301846139bc565b92915050565b600082825260208201905092915050565b6000613a0282613171565b613a0c81856139e6565b9350613a1c81856020860161318d565b613a25816131b7565b840191505092915050565b600060e0830160008301518482036000860152613a4d82826139f7565b91505060208301518482036020860152613a6782826139f7565b91505060408301518482036040860152613a8182826139f7565b91505060608301518482036060860152613a9b82826139f7565b91505060808301518482036080860152613ab582826139f7565b91505060a083015184820360a0860152613acf82826139f7565b91505060c083015184820360c0860152613ae982826139f7565b9150508091505092915050565b60006020820190508181036000830152613b108184613a30565b905092915050565b6000610120830160008301518482036000860152613b3682826139f7565b91505060208301518482036020860152613b5082826139f7565b91505060408301518482036040860152613b6a82826139f7565b91505060608301518482036060860152613b8482826139f7565b91505060808301518482036080860152613b9e82826139f7565b91505060a083015184820360a0860152613bb882826139f7565b91505060c083015184820360c0860152613bd282826139f7565b91505060e083015184820360e0860152613bec82826139f7565b915050610100830151848203610100860152613c0882826139f7565b9150508091505092915050565b60006020820190508181036000830152613c2f8184613b18565b905092915050565b6000610120820190508181036000830152613c52818c6131c8565b90508181036020830152613c66818b6131c8565b90508181036040830152613c7a818a6131c8565b90508181036060830152613c8e81896131c8565b90508181036080830152613ca281886131c8565b905081810360a0830152613cb681876131c8565b905081810360c0830152613cca81866131c8565b905081810360e0830152613cde81856131c8565b9050818103610100830152613cf381846131c8565b90509a9950505050505050505050565b60006020820190508181036000830152613d1d81846131c8565b905092915050565b600080600080600080600080610100898b031215613d4657613d456130dc565b5b6000613d548b828c0161312f565b985050602089013567ffffffffffffffff811115613d7557613d746130e1565b5b613d818b828c016133a8565b975050604089013567ffffffffffffffff811115613da257613da16130e1565b5b613dae8b828c016133a8565b965050606089013567ffffffffffffffff811115613dcf57613dce6130e1565b5b613ddb8b828c016133a8565b955050608089013567ffffffffffffffff811115613dfc57613dfb6130e1565b5b613e088b828c016133a8565b94505060a089013567ffffffffffffffff811115613e2957613e286130e1565b5b613e358b828c016133a8565b93505060c089013567ffffffffffffffff811115613e5657613e556130e1565b5b613e628b828c016133a8565b92505060e089013567ffffffffffffffff811115613e8357613e826130e1565b5b613e8f8b828c016133a8565b9150509295985092959890939650565b600081519050919050565b600082825260208201905092915050565b6000819050602082019050919050565b6000613ed783836139f7565b905092915050565b6000602082019050919050565b6000613ef782613e9f565b613f018185613eaa565b935083602082028501613f1385613ebb565b8060005b85811015613f4f5784840389528151613f308582613ecb565b9450613f3b83613edf565b925060208a01995050600181019050613f17565b50829750879550505050505092915050565b60006020820190508181036000830152613f7b8184613eec565b905092915050565b7f4e487b7100000000000000000000000000000000000000000000000000000000600052602260045260246000fd5b60006002820490506001821680613fca57607f821691505b602082108103613fdd57613fdc613f83565b5b50919050565b7f4f6e6c792061646d696e2063616e20706572666f726d2074686973206f70657260008201527f6174696f6e000000000000000000000000000000000000000000000000000000602082015250565b600061403f60258361317c565b915061404a82613fe3565b604082019050919050565b6000602082019050818103600083015261406e81614032565b9050919050565b60008190508160005260206000209050919050565b60006020601f8301049050919050565b600082821b905092915050565b6000600883026140d77fffffffffffffffffffffffffffffffffffffffffffffffffffffffffffffffff8261409a565b6140e1868361409a565b95508019841693508086168417925050509392505050565b6000819050919050565b600061411e614119614114846135b1565b6140f9565b6135b1565b9050919050565b6000819050919050565b61413883614103565b61414c61414482614125565b8484546140a7565b825550505050565b600090565b614161614154565b61416c81848461412f565b505050565b5b8181101561419057614185600082614159565b600181019050614172565b5050565b601f8211156141d5576141a681614075565b6141af8461408a565b810160208510156141be578190505b6141d26141ca8561408a565b830182614171565b50505b505050565b600082821c905092915050565b60006141f8600019846008026141da565b1980831691505092915050565b600061421183836141e7565b9150826002028217905092915050565b61422a82613171565b67ffffffffffffffff811115614243576142426132ab565b5b61424d8254613fb2565b614258828285614194565b600060209050601f83116001811461428b5760008415614279578287015190505b6142838582614205565b8655506142eb565b601f19841661429986614075565b60005b828110156142c15784890151825560018201915060208501945060208101905061429c565b868310156142de57848901516142da601f8916826141e7565b8355505b6001600288020188555050505b505050505050565b7f4f6e6c7920446f63746f722063616e20706572666f726d2074686973206f706560008201527f726174696f6e0000000000000000000000000000000000000000000000000000602082015250565b600061434f60268361317c565b915061435a826142f3565b604082019050919050565b6000602082019050818103600083015261437e81614342565b9050919050565b7f54686973206973206e6f7420612070617469656e74206164647265737320776c60008201527f61206e6f74207265676973747265640000000000000000000000000000000000602082015250565b60006143e1602f8361317c565b91506143ec82614385565b604082019050919050565b60006020820190508181036000830152614410816143d4565b9050919050565b7f4f6e6c792050617469656e742063616e2061646420617070726f76656420446f60008201527f7263746f72000000000000000000000000000000000000000000000000000000602082015250565b600061447360258361317c565b915061447e82614417565b604082019050919050565b600060208201905081810360008301526144a281614466565b9050919050565b7f54686973206164647265737320646f65736e27742062656c6f6e6720746f206160008201527f20446f63746f7200000000000000000000000000000000000000000000000000602082015250565b600061450560278361317c565b9150614510826144a9565b604082019050919050565b60006020820190508181036000830152614534816144f8565b9050919050565b7f596f7520616c726561647920617070726f7665207468697320646f6300000000600082015250565b6000614571601c8361317c565b915061457c8261453b565b602082019050919050565b600060208201905081810360008301526145a081614564565b9050919050565b7f4e6f7420617070726f7665640000000000000000000000000000000000000000600082015250565b60006145dd600c8361317c565b91506145e8826145a7565b602082019050919050565b6000602082019050818103600083015261460c816145d0565b9050919050565b7f446f65736e277420657869737420696e204c697374206f662070617469656e7360008201527f206f66207468617420446f63746f720000000000000000000000000000000000602082015250565b600061466f602f8361317c565b915061467a82614613565b604082019050919050565b6000602082019050818103600083015261469e81614662565b9050919050565b7f4e487b7100000000000000000000000000000000000000000000000000000000600052603260045260246000fd5b7f4e487b7100000000000000000000000000000000000000000000000000000000600052601160045260246000fd5b600061470e826135b1565b91507fffffffffffffffffffffffffffffffffffffffffffffffffffffffffffffffff82036147405761473f6146d4565b5b600182019050919050565b6000614756826135b1565b9150614761836135b1565b9250828203905081811115614779576147786146d4565b5b92915050565b600061478a826135b1565b9150614795836135b1565b92508282019050808211156147ad576147ac6146d4565b5b9291505056fea2646970667358221220b7bf4f61610d8cd4aa02a8e75cbcec81435887d0f13263b6ce508eb7a985aafa64736f6c63430008120033",
  "immutableReferences": {},
  "source": "// SPDX-License-Identifier: UNLICENSED\r\npragma solidity ^0.8.0;\r\n\r\ncontract  Contract {\r\n\r\n    address public admin;\r\n\r\n    constructor(){\r\n        admin=msg.sender;\r\n        isAdmin[admin]=true;\r\n        //////////////////\r\n        createDoctor(0xff640B68F773729E8A352cCa92888dc3535dB90d,\"first_name of Doctor\",\"last_name of Doctor\",\"email of Doctor\",\"specialite of Doctor\",\"hospital_name of Doctor\",\"wilaya of Doctor\",\"birth_date of Doctor\",\"phone of Doctor\",\"gender of Doctor\");\r\n        createDoctor(0x4B20993Bc481177ec7E8f571ceCaE8A9e22C02db ,\"doc2\",\"doc2\",\"doc2\",\"doc2\",\"doc2\",\"doc2\",\"doc2\",\"doc2\",\"doc2\");\r\n\r\n        createPatient(0x695553ff7eAAdb81BCeb8DEEE24118dC36c486AF,\"pat1\",\"pat12\",\"pat13\",\"pat14\",\"pat15\",\"pat16\",\"pat17\")  ;\r\n        createPatient(0x583031D1113aD414F02576BD6afaBfb302140225,\"pat2\",\"pat2\",\"pat2\",\"pat2\",\"pat2\",\"pat2\",\"pat2\")  ;\r\n    }\r\n\r\n\r\n\r\n    struct Doctor{\r\n        string first_name ;\r\n        string last_name ;\r\n        string email ;\r\n        string specialite ;\r\n        string hospital_name ;\r\n        string wilaya ;\r\n        string birth_date ;\r\n        string phone ;\r\n        string gender ;\r\n    }\r\n    struct Patient{\r\n        string first_name ;\r\n        string last_name ;\r\n        string email ;\r\n        string wilaya ;\r\n        string birth_date ;\r\n        string phone ;\r\n        string gender ;\r\n    }\r\n    struct MedicalRecord{\r\n        string blood_type ;\r\n        string height ;\r\n        string weight ;\r\n        string vision_test ;\r\n        string [] medical_history;\r\n        string [] diagnostic_tests;\r\n        string [] treatments;\r\n    }\r\n    mapping (address => bool) public isDoctor;\r\n    mapping (address => bool) public isPatient;\r\n    mapping (address => bool) public isAdmin;\r\n\r\n    address[]  all_doctors_adresses ;\r\n    address[]  all_patiens_adresses ;\r\n\r\n    mapping (address => Doctor) public doctors;\r\n    mapping (address => Patient) public patients;\r\n    mapping (address => MedicalRecord) public  medicalRecords;\r\n\r\n    mapping (address => mapping(address => bool ) ) appreovedDoctors ;\r\n    mapping (address => address[] ) myPations ;\r\n\r\n    mapping (address => address[] ) doctorsHistory ;\r\n\r\n    ///////////////////////////////////////////////////////////////////////////////\r\n    modifier onlyAdmin() {\r\n        require(msg.sender == admin   , \"Only admin can perform this operation\");\r\n        _;\r\n    }\r\n    modifier onlyDoctor() {\r\n        require(isDoctor[msg.sender]  , \"Only Doctor can perform this operation\");\r\n        _;\r\n    }\r\n    modifier onlyPatient() {\r\n        require(isPatient[msg.sender] , \"Only Patient can perform this operation\");\r\n        _;\r\n    }\r\n    //////////////////////////////////////////////////////////////////////////////\r\n    ////////////////////////////// Create Doctor ////////////////////////////////\r\n    function createDoctor(\r\n        address _doctorAddress,\r\n        string memory _first_name,\r\n        string memory _last_name,\r\n        string memory _email,\r\n        string memory _specialite,\r\n        string memory _hospital_name,\r\n        string memory _wilaya,\r\n        string memory _birth_date,\r\n        string memory _phone,\r\n        string memory _gender\r\n    )public onlyAdmin {\r\n        Doctor memory newDoctor = Doctor({\r\n            first_name: _first_name,    last_name    : _last_name    ,  email : _email,\r\n            specialite: _specialite,    hospital_name: _hospital_name,  wilaya: _wilaya,\r\n            birth_date: _birth_date,    phone        : _phone        ,  gender: _gender\r\n        });\r\n        doctors[_doctorAddress] = newDoctor;\r\n        isDoctor[_doctorAddress]=true;\r\n        all_doctors_adresses.push(_doctorAddress);\r\n    }\r\n\r\n    ////////////////////////////// Create Patient //////////////////////////////\r\n    function createPatient(\r\n        address _patientAddress,\r\n        string memory _first_name,\r\n        string memory _last_name,\r\n        string memory _email,\r\n        string memory _wilaya,\r\n        string memory _birth_date,\r\n        string memory _phone,\r\n        string memory _gender\r\n    )public onlyAdmin {\r\n        Patient memory newPatient = Patient({\r\n            first_name: _first_name  , last_name : _last_name    ,    email : _email  ,\r\n            wilaya    : _wilaya      , birth_date: _birth_date   ,    phone : _phone  ,\r\n            gender    : _gender\r\n        });\r\n        patients[_patientAddress] = newPatient;\r\n        isPatient[_patientAddress]=true;\r\n        all_patiens_adresses.push(_patientAddress);\r\n        string []memory emptyStr = new string[](0);\r\n        createMedicalRecord(_patientAddress ,\"\",\"\",\"\",\"\",emptyStr,emptyStr,emptyStr );\r\n    }\r\n    ////////////////////////////// Create Medical Record //////////////////////////////\r\n    function createMedicalRecord (\r\n        address  _patientAddress,\r\n        string memory _blood_type ,\r\n        string memory _height ,\r\n        string memory _weight ,\r\n        string memory _vision_test,\r\n        string [] memory _medical_history,\r\n        string [] memory _diagnostic_tests,\r\n        string [] memory _treatments )\r\n    public /*onlyDoctor*/ {\r\n        require(isPatient[_patientAddress]  , \"This is not a patient address wla not registred\");\r\n        MedicalRecord memory newMedicalRecord = MedicalRecord({\r\n            blood_type  : _blood_type ,\r\n            height      : _height ,\r\n            weight      : _weight ,\r\n            vision_test : _vision_test ,\r\n            medical_history:_medical_history,\r\n            diagnostic_tests:_diagnostic_tests,\r\n            treatments:_treatments\r\n        });\r\n\r\n        medicalRecords[_patientAddress]=newMedicalRecord;\r\n\r\n    }\r\n    //////////////////////////////////////////////////////////////////////////////////////\r\n    //////////////////////////////         Functions       //////////////////////////////\r\n    //// get addresses\r\n    function getAllDoctorAddresses() public view returns (address[] memory) {\r\n        return all_doctors_adresses;\r\n    }\r\n\r\n    function getAllPatientAddresses() public view returns (address[] memory) {\r\n        return all_patiens_adresses;\r\n    }\r\n    //// get info\r\n    function getDoctorinfo(address _adr) public view returns (Doctor memory) {\r\n        return doctors[_adr];\r\n    }\r\n    function getPatieninfo(address _adr) public view returns (Patient memory) {\r\n        return patients[_adr];\r\n    }\r\n    //////////////////////////////////////////////////////////////////////////////////////\r\n    function getDoctorsCount() public view returns (uint) {\r\n        return all_doctors_adresses.length;\r\n    }\r\n    function getPatiensCount() public view returns (uint) {\r\n        return all_patiens_adresses.length;\r\n    }\r\n    //////////////////////////////////////////////////////////////////////////////////////\r\n    //// For Patient\r\n    // Patient add the address of the Doctor to Allow him\r\n    function approveDoctor(address _doctor_address) public {\r\n        require(isPatient[msg.sender] , \"Only Patient can add approved Dorctor\");\r\n        require(isDoctor[_doctor_address] , \"This address doesn't belong to a Doctor\");\r\n        require(!appreovedDoctors[msg.sender][_doctor_address],\"You already approve this doc\" );\r\n\r\n        appreovedDoctors[msg.sender][_doctor_address]=true;\r\n        myPations[_doctor_address].push(msg.sender);\r\n    }\r\n\r\n    function disapproveDoctor (address _doctor_address) public  {\r\n        address[] memory array_of_patient  = myPations[_doctor_address];\r\n\r\n        require(appreovedDoctors[msg.sender][_doctor_address] ,\"Not approved\");\r\n        require(exist(msg.sender,array_of_patient) , \"Doesn't exist in List of patiens of that Doctor\" );\r\n\r\n\r\n        appreovedDoctors[msg.sender][_doctor_address]=false ;                // delete Doctor from approved doctors list\r\n\r\n        array_of_patient = deleteFromArray( msg.sender , array_of_patient ); // delete patient from List of patient of Doctor\r\n        myPations[_doctor_address] = array_of_patient;\r\n    }\r\n\r\n\r\n\r\n    //////////////////////////////////////////////////////////////////////////////////////\r\n    // For Doctor\r\n    function getMyPatientsCount ()public view onlyDoctor returns(uint){\r\n        return myPations[msg.sender].length   ;\r\n    }\r\n    function getAddressesOfMyPatiens ()public  view onlyDoctor returns(address [] memory){\r\n        return myPations[msg.sender]   ;\r\n    }\r\n\r\n    function getPatientName(address _adr) public view returns(string memory){\r\n        //Patient memory p =\r\n        return getPatieninfo(_adr).first_name;\r\n    }\r\n\r\n    function getMyPatientsNames ()public view onlyDoctor returns(string [] memory){\r\n        address [] memory addresses = getAddressesOfMyPatiens();\r\n        string [] memory names ;\r\n\r\n        for (uint i= 0 ; i< addresses.length ; i++){\r\n            names[i]= getPatieninfo(addresses[i]).first_name;\r\n        }\r\n        return names ;\r\n    }\r\n\r\n\r\n\r\n\r\n\r\n\r\n\r\n\r\n\r\n\r\n    // Functions for code\r\n    function deleteFromArray(address _addr , address[] memory _arr) private pure returns(address[] memory ) {\r\n        uint indexToRemove = _arr.length ;\r\n        address [] memory newArray = new address[](_arr.length-1); //\r\n        // get index of item ( indexToRemove )\r\n        for (uint i=0 ; i<_arr.length ; i++){\r\n            if(_arr[i] == _addr){\r\n                indexToRemove = i ;\r\n                break;\r\n            }\r\n        }\r\n        // bdal blays f Array\r\n        for(uint j = indexToRemove ; j<_arr.length-1  ; j++){\r\n            _arr[j]=_arr[j+1];\r\n        }\r\n        // 3mar Array jdida\r\n        for (uint k = 0 ;  k <_arr.length-1 ; k++ ){\r\n            newArray[k]= _arr[k];\r\n        }\r\n\r\n        return newArray;\r\n    }\r\n\r\n    function exist(address _addr , address[] memory _arr) private pure returns(bool){\r\n        for (uint i=0 ; i<_arr.length ; i++){\r\n            if(_arr[i] == _addr){\r\n                return true ;\r\n            }\r\n        }\r\n        return false ;\r\n    }\r\n\r\n\r\n\r\n    function whoIam() public view returns (address){\r\n        return msg.sender;\r\n    }\r\n\r\n\r\n\r\n\r\n}\r\n",
  "sourcePath": "C:\\Users\\BELHADJ Mohamed Ali\\Desktop\\abc\\new-app-feb\\Truffle\\contracts\\Contract.sol",
  "compiler": {
    "name": "solc",
    "version": "0.8.18+commit.87f61d96.Emscripten.clang"
  },
  "schemaVersion": "3.4.13",
  "updatedAt": "2023-04-19T17:25:32.507Z",
  "networkType": "ethereum",
  "devdoc": {
    "kind": "dev",
    "methods": {},
    "version": 1
  },
  "userdoc": {
    "kind": "user",
    "methods": {},
    "version": 1
  }
}